{
  "_format": "hh-sol-artifact-1",
  "contractName": "ContractReader",
  "sourceName": "contracts/core/utils/ContractReader.sol",
  "abi": [
    {
      "inputs": [],
      "stateMutability": "nonpayable",
      "type": "constructor"
    },
    {
      "anonymous": false,
      "inputs": [
        {
          "indexed": false,
          "internalType": "uint8",
          "name": "version",
          "type": "uint8"
        }
      ],
      "name": "Initialized",
      "type": "event"
    },
    {
      "inputs": [],
      "name": "getALPTotalSupply",
      "outputs": [
        {
          "internalType": "uint256",
          "name": "_totalSupply",
          "type": "uint256"
        }
      ],
      "stateMutability": "view",
      "type": "function"
    },
    {
      "inputs": [],
      "name": "getAlpPrice",
      "outputs": [
        {
          "internalType": "uint256",
          "name": "_price",
          "type": "uint256"
        }
      ],
      "stateMutability": "view",
      "type": "function"
    },
    {
      "inputs": [],
      "name": "getExposuresPerALP",
      "outputs": [
        {
          "internalType": "int256[]",
          "name": "exposures",
          "type": "int256[]"
        }
      ],
      "stateMutability": "view",
      "type": "function"
    },
    {
      "inputs": [
        {
          "internalType": "address",
          "name": "user",
          "type": "address"
        },
        {
          "internalType": "uint32",
          "name": "marketId",
          "type": "uint32"
        }
      ],
      "name": "getFeeRate",
      "outputs": [
        {
          "internalType": "uint256",
          "name": "_feeRate",
          "type": "uint256"
        },
        {
          "internalType": "uint256",
          "name": "_maxLeverage",
          "type": "uint256"
        }
      ],
      "stateMutability": "view",
      "type": "function"
    },
    {
      "inputs": [
        {
          "internalType": "uint32",
          "name": "marketId",
          "type": "uint32"
        },
        {
          "internalType": "uint256",
          "name": "marketOrderSeq",
          "type": "uint256"
        }
      ],
      "name": "getFuturesMarketOrder",
      "outputs": [
        {
          "internalType": "address",
          "name": "user",
          "type": "address"
        },
        {
          "internalType": "uint256",
          "name": "orderId",
          "type": "uint256"
        },
        {
          "internalType": "uint256",
          "name": "qty",
          "type": "uint256"
        },
        {
          "internalType": "uint256",
          "name": "price",
          "type": "uint256"
        },
        {
          "internalType": "uint256",
          "name": "slippageThreshold",
          "type": "uint256"
        },
        {
          "internalType": "uint32",
          "name": "_marketId",
          "type": "uint32"
        },
        {
          "internalType": "bool",
          "name": "isLong",
          "type": "bool"
        },
        {
          "internalType": "bool",
          "name": "isLimitOrder",
          "type": "bool"
        }
      ],
      "stateMutability": "view",
      "type": "function"
    },
    {
      "inputs": [
        {
          "internalType": "uint32",
          "name": "marketId",
          "type": "uint32"
        },
        {
          "internalType": "int256",
          "name": "qty",
          "type": "int256"
        }
      ],
      "name": "getMarkPriceAndInstantClosePrice",
      "outputs": [
        {
          "internalType": "uint256",
          "name": "marketPrice",
          "type": "uint256"
        },
        {
          "internalType": "uint256",
          "name": "instantClosePrice",
          "type": "uint256"
        }
      ],
      "stateMutability": "view",
      "type": "function"
    },
    {
      "inputs": [
        {
          "internalType": "uint32",
          "name": "marketId",
          "type": "uint32"
        }
      ],
      "name": "getMarket",
      "outputs": [
        {
          "components": [
            {
              "internalType": "int256",
              "name": "accFundingFactor",
              "type": "int256"
            },
            {
              "internalType": "int256",
              "name": "fundingRate",
              "type": "int256"
            },
            {
              "internalType": "int256",
              "name": "skewness",
              "type": "int256"
            },
            {
              "internalType": "uint256",
              "name": "lastFundingRateUpdateTimestamp",
              "type": "uint256"
            },
            {
              "internalType": "uint256",
              "name": "depthFactor",
              "type": "uint256"
            },
            {
              "internalType": "uint256",
              "name": "skewnessSoftCap",
              "type": "uint256"
            },
            {
              "internalType": "uint256",
              "name": "skewnessHardCap",
              "type": "uint256"
            },
            {
              "internalType": "enum DataTypes.MarketStatus",
              "name": "status",
              "type": "uint8"
            },
            {
              "internalType": "uint256",
              "name": "fundingRateCoefficient",
              "type": "uint256"
            },
            {
              "internalType": "uint256",
              "name": "targetLeverage",
              "type": "uint256"
            },
            {
              "internalType": "uint32",
              "name": "imr",
              "type": "uint32"
            },
            {
              "internalType": "uint32",
              "name": "mmr",
              "type": "uint32"
            }
          ],
          "internalType": "struct ContractReader.Market",
          "name": "market",
          "type": "tuple"
        }
      ],
      "stateMutability": "view",
      "type": "function"
    },
    {
      "inputs": [],
      "name": "getMarkets",
      "outputs": [
        {
          "components": [
            {
              "internalType": "int256",
              "name": "accFundingFactor",
              "type": "int256"
            },
            {
              "internalType": "int256",
              "name": "fundingRate",
              "type": "int256"
            },
            {
              "internalType": "int256",
              "name": "skewness",
              "type": "int256"
            },
            {
              "internalType": "uint256",
              "name": "lastFundingRateUpdateTimestamp",
              "type": "uint256"
            },
            {
              "internalType": "uint256",
              "name": "depthFactor",
              "type": "uint256"
            },
            {
              "internalType": "uint256",
              "name": "skewnessSoftCap",
              "type": "uint256"
            },
            {
              "internalType": "uint256",
              "name": "skewnessHardCap",
              "type": "uint256"
            },
            {
              "internalType": "enum DataTypes.MarketStatus",
              "name": "status",
              "type": "uint8"
            },
            {
              "internalType": "uint256",
              "name": "fundingRateCoefficient",
              "type": "uint256"
            },
            {
              "internalType": "uint256",
              "name": "targetLeverage",
              "type": "uint256"
            },
            {
              "internalType": "uint32",
              "name": "imr",
              "type": "uint32"
            },
            {
              "internalType": "uint32",
              "name": "mmr",
              "type": "uint32"
            }
          ],
          "internalType": "struct ContractReader.Market[]",
          "name": "markets",
          "type": "tuple[]"
        }
      ],
      "stateMutability": "view",
      "type": "function"
    },
    {
      "inputs": [
        {
          "internalType": "uint32[]",
          "name": "marketIds",
          "type": "uint32[]"
        }
      ],
      "name": "getMarketsExistingPendingOrders",
      "outputs": [
        {
          "internalType": "bool[]",
          "name": "",
          "type": "bool[]"
        }
      ],
      "stateMutability": "view",
      "type": "function"
    },
    {
      "inputs": [
        {
          "internalType": "uint256",
          "name": "assetId",
          "type": "uint256"
        }
      ],
      "name": "getPriceFeed",
      "outputs": [
        {
          "internalType": "uint256",
          "name": "",
          "type": "uint256"
        }
      ],
      "stateMutability": "view",
      "type": "function"
    },
    {
      "inputs": [
        {
          "internalType": "uint256[]",
          "name": "assetIds",
          "type": "uint256[]"
        }
      ],
      "name": "getPriceFeeds",
      "outputs": [
        {
          "internalType": "uint256[]",
          "name": "",
          "type": "uint256[]"
        }
      ],
      "stateMutability": "view",
      "type": "function"
    },
    {
      "inputs": [
        {
          "internalType": "address",
          "name": "user",
          "type": "address"
        }
      ],
      "name": "getUserALPSize",
      "outputs": [
        {
          "internalType": "uint256",
          "name": "_size",
          "type": "uint256"
        }
      ],
      "stateMutability": "view",
      "type": "function"
    },
    {
      "inputs": [
        {
          "internalType": "address",
          "name": "user",
          "type": "address"
        }
      ],
      "name": "getUserFuturesStatus",
      "outputs": [
        {
          "components": [
            {
              "components": [
                {
                  "internalType": "int256",
                  "name": "qty",
                  "type": "int256"
                },
                {
                  "internalType": "int256",
                  "name": "lastAccFundingFactor",
                  "type": "int256"
                },
                {
                  "internalType": "uint256",
                  "name": "entryPrice",
                  "type": "uint256"
                }
              ],
              "internalType": "struct ContractReader.FuturesPosition[]",
              "name": "positions",
              "type": "tuple[]"
            },
            {
              "components": [
                {
                  "internalType": "address",
                  "name": "tokenAddress",
                  "type": "address"
                },
                {
                  "internalType": "uint256",
                  "name": "qty",
                  "type": "uint256"
                },
                {
                  "internalType": "uint256",
                  "name": "withdrawable",
                  "type": "uint256"
                },
                {
                  "internalType": "uint256",
                  "name": "initialWeight",
                  "type": "uint256"
                },
                {
                  "internalType": "uint256",
                  "name": "totalWeight",
                  "type": "uint256"
                }
              ],
              "internalType": "struct ContractReader.Collateral[]",
              "name": "collaterals",
              "type": "tuple[]"
            },
            {
              "internalType": "int256",
              "name": "usdBalance",
              "type": "int256"
            },
            {
              "internalType": "uint256",
              "name": "withdrawableUsd",
              "type": "uint256"
            },
            {
              "internalType": "int256",
              "name": "initialWeightedBalance",
              "type": "int256"
            },
            {
              "internalType": "int256",
              "name": "totalWeightedBalance",
              "type": "int256"
            },
            {
              "internalType": "int256",
              "name": "nonWeightedBalance",
              "type": "int256"
            },
            {
              "internalType": "int256",
              "name": "pendingFundingFee",
              "type": "int256"
            },
            {
              "internalType": "uint256",
              "name": "initialMargin",
              "type": "uint256"
            },
            {
              "internalType": "uint256",
              "name": "maintenanceMargin",
              "type": "uint256"
            },
            {
              "internalType": "uint256",
              "name": "blockNumber",
              "type": "uint256"
            },
            {
              "internalType": "uint32",
              "name": "feeRate",
              "type": "uint32"
            },
            {
              "internalType": "uint32",
              "name": "maxLeverage",
              "type": "uint32"
            }
          ],
          "internalType": "struct ContractReader.UserFuturesStatus",
          "name": "status",
          "type": "tuple"
        }
      ],
      "stateMutability": "view",
      "type": "function"
    },
    {
      "inputs": [
        {
          "internalType": "address",
          "name": "user",
          "type": "address"
        }
      ],
      "name": "getUserLpStatus",
      "outputs": [
        {
          "components": [
            {
              "components": [
                {
                  "internalType": "uint256",
                  "name": "qty",
                  "type": "uint256"
                },
                {
                  "internalType": "uint256",
                  "name": "entryPrice",
                  "type": "uint256"
                }
              ],
              "internalType": "struct ContractReader.LpPosition",
              "name": "position",
              "type": "tuple"
            },
            {
              "components": [
                {
                  "internalType": "address",
                  "name": "tokenAddress",
                  "type": "address"
                },
                {
                  "internalType": "uint256",
                  "name": "qty",
                  "type": "uint256"
                },
                {
                  "internalType": "uint256",
                  "name": "withdrawable",
                  "type": "uint256"
                },
                {
                  "internalType": "uint256",
                  "name": "initialWeight",
                  "type": "uint256"
                },
                {
                  "internalType": "uint256",
                  "name": "totalWeight",
                  "type": "uint256"
                }
              ],
              "internalType": "struct ContractReader.Collateral[]",
              "name": "collaterals",
              "type": "tuple[]"
            },
            {
              "internalType": "int256",
              "name": "usdBalance",
              "type": "int256"
            },
            {
              "internalType": "uint256",
              "name": "withdrawableUsd",
              "type": "uint256"
            },
            {
              "internalType": "int256",
              "name": "initialWeightedBalance",
              "type": "int256"
            },
            {
              "internalType": "int256",
              "name": "totalWeightedBalance",
              "type": "int256"
            },
            {
              "internalType": "int256",
              "name": "nonWeightedBalance",
              "type": "int256"
            },
            {
              "internalType": "uint256",
              "name": "initialMargin",
              "type": "uint256"
            },
            {
              "internalType": "uint256",
              "name": "maintenanceMargin",
              "type": "uint256"
            },
            {
              "internalType": "uint256",
              "name": "blockNumber",
              "type": "uint256"
            },
            {
              "internalType": "uint32",
              "name": "feeRate",
              "type": "uint32"
            },
            {
              "internalType": "uint32",
              "name": "maxLeverage",
              "type": "uint32"
            }
          ],
          "internalType": "struct ContractReader.UserLpStatus",
          "name": "status",
          "type": "tuple"
        }
      ],
      "stateMutability": "view",
      "type": "function"
    },
    {
      "inputs": [
        {
          "internalType": "address",
          "name": "observer_",
          "type": "address"
        }
      ],
      "name": "initialize",
      "outputs": [],
      "stateMutability": "nonpayable",
      "type": "function"
    },
    {
      "inputs": [],
      "name": "observer",
      "outputs": [
        {
          "internalType": "address",
          "name": "",
          "type": "address"
        }
      ],
      "stateMutability": "view",
      "type": "function"
    }
  ],
  "bytecode": "0x608060405234801561001057600080fd5b50613c5e806100206000396000f3fe608060405234801561001057600080fd5b50600436106100e05760003560e01c8063dd3be83511610087578063dd3be835146101b8578063de2c6d41146101cb578063e083e316146101e0578063e351f57b14610242578063eb70e49814610255578063ec2c90161461027b578063f91d443f14610290578063f9940bcd146102a357600080fd5b8063045ae6e4146100e55780633b292a181461010057806385491d8e146101135780638a587a7b1461013b5780638b9d82d41461015b578063a30e397a14610163578063c2c79dec14610183578063c4d66de8146101a3575b600080fd5b6100ed6102c3565b6040519081526020015b60405180910390f35b6100ed61010e3660046131ba565b610345565b6101266101213660046131e9565b6103d3565b604080519283526020830191909152016100f7565b61014e6101493660046131ba565b6105bc565b6040516100f791906132d6565b6100ed61152e565b610176610171366004613402565b611587565b6040516100f79190613443565b610196610191366004613489565b611708565b6040516100f79190613546565b6101b66101b13660046131ba565b611865565b005b6101266101c6366004613555565b6119b9565b6101d3611add565b6040516100f79190613581565b6101f36101ee366004613555565b611d32565b604080516001600160a01b0390991689526020890197909752958701949094526060860192909252608085015263ffffffff1660a0840152151560c0830152151560e0820152610100016100f7565b6101d3610250366004613402565b611e3f565b60005461026e906201000090046001600160a01b031681565b6040516100f791906135b9565b610283611f16565b6040516100f791906135cd565b6100ed61029e366004613610565b61204e565b6102b66102b13660046131ba565b612070565b6040516100f79190613629565b600080546102df906201000090046001600160a01b0316612c5c565b6001600160a01b03166378d9a46e6040518163ffffffff1660e01b8152600401602060405180830381865afa15801561031c573d6000803e3d6000fd5b505050506040513d601f19601f8201168201806040525081019061034091906136f0565b905090565b60008054610361906201000090046001600160a01b0316612c5c565b6001600160a01b03166355f57510836040518263ffffffff1660e01b815260040161038c91906135b9565b602060405180830381865afa1580156103a9573d6000803e3d6000fd5b505050506040513d601f19601f820116820180604052508101906103cd91906136f0565b92915050565b600080548190819081906103f5906201000090046001600160a01b0316612cc0565b6001600160a01b031663265f003b8760016040518363ffffffff1660e01b8152600401610423929190613709565b6040805180830381865afa15801561043f573d6000803e3d6000fd5b505050506040513d601f19601f820116820180604052508101906104639190613736565b63ffffffff16915063ffffffff169150600061049c600060029054906101000a90046001600160a01b03166001600160a01b0316612d00565b6001600160a01b031663a205bb97886040518263ffffffff1660e01b81526004016104c791906135b9565b606060405180830381865afa1580156104e4573d6000803e3d6000fd5b505050506040513d601f19601f820116820180604052508101906105089190613765565b5063ffffffff169150506105af61051f8483612d3f565b60005461053a906201000090046001600160a01b0316612d57565b6040516314a9fe4560e11b815263ffffffff8a1660048201526001600160a01b039190911690632953fc8a90602401602060405180830381865afa158015610586573d6000803e3d6000fd5b505050506040513d601f19601f820116820180604052508101906105aa91906136f0565b612d3f565b9791965090945050505050565b610633604051806101a001604052806060815260200160608152602001600081526020016000815260200160008152602001600081526020016000815260200160008152602001600081526020016000815260200160008152602001600063ffffffff168152602001600063ffffffff1681525090565b43610140820152600054610655906201000090046001600160a01b0316612d57565b6001600160a01b03166395adc2f26040518163ffffffff1660e01b8152600401602060405180830381865afa158015610692573d6000803e3d6000fd5b505050506040513d601f19601f820116820180604052508101906106b691906137b2565b63ffffffff166001600160401b038111156106d3576106d36137cf565b60405190808252806020026020018201604052801561072857816020015b61071560405180606001604052806000815260200160008152602001600081525090565b8152602001906001900390816106f15790505b508152600054610746906201000090046001600160a01b0316612d57565b6001600160a01b0316630468674b6040518163ffffffff1660e01b8152600401602060405180830381865afa158015610783573d6000803e3d6000fd5b505050506040513d601f19601f820116820180604052508101906107a791906137b2565b63ffffffff166001600160401b038111156107c4576107c46137cf565b6040519080825280602002602001820160405280156107fd57816020015b6107ea613106565b8152602001906001900390816107e25790505b506020820152600061080d611f16565b600080549192509061082d906201000090046001600160a01b0316612d57565b6001600160a01b0316635e5c06e2856040518263ffffffff1660e01b815260040161085891906135b9565b6040805180830381865afa158015610874573d6000803e3d6000fd5b505050506040513d601f19601f820116820180604052508101906108989190613834565b506000549091506108b7906201000090046001600160a01b0316612cc0565b6001600160a01b031663265f003b8560016040518363ffffffff1660e01b81526004016108e5929190613709565b6040805180830381865afa158015610901573d6000803e3d6000fd5b505050506040513d601f19601f820116820180604052508101906109259190613736565b63ffffffff9081166101808601819052911661016085015260009061094d90620f424061388d565b6040850183905290506000805b85515163ffffffff82161015610e5957600054610985906201000090046001600160a01b0316612d57565b6001600160a01b031663160d8b2888836040518363ffffffff1660e01b81526004016109b29291906138b0565b6040805180830381865afa1580156109ce573d6000803e3d6000fd5b505050506040513d601f19601f820116820180604052508101906109f291906138cf565b8751805163ffffffff8516908110610a0c57610a0c6138f3565b602002602001015160000188600001518463ffffffff1681518110610a3357610a336138f3565b6020908102919091018101510191909152528551805163ffffffff8316908110610a5f57610a5f6138f3565b602002602001015160000151600014610e4757600054610a8d906201000090046001600160a01b0316612d57565b6001600160a01b0316638a7d6ac688836040518363ffffffff1660e01b8152600401610aba9291906138b0565b602060405180830381865afa158015610ad7573d6000803e3d6000fd5b505050506040513d601f19601f82011682018060405250810190610afb91906136f0565b8651805163ffffffff8416908110610b1557610b156138f3565b60200260200101516040018181525050600080610b598389600001518563ffffffff1681518110610b4857610b486138f3565b6020026020010151600001516119b9565b9150915060008289600001518563ffffffff1681518110610b7c57610b7c6138f3565b602002602001015160000151610b929190613909565b90508189600001518563ffffffff1681518110610bb157610bb16138f3565b602002602001015160000151610bc79190613909565b89604001818151610bd89190613939565b90525060008113610c4257612710610c20898663ffffffff1681518110610c0157610c016138f3565b6020026020010151610100015163ffffffff168863ffffffff16612d97565b610c2983613961565b610c33919061397d565b610c3d9190613994565b610c74565b612710610c60898663ffffffff1681518110610c0157610c016138f3565b610c6a908361397d565b610c749190613994565b8961010001818151610c8691906139a8565b90525060008113610ce257612710888563ffffffff1681518110610cac57610cac6138f3565b6020026020010151610120015163ffffffff1682610cc990613961565b610cd3919061397d565b610cdd9190613994565b610d25565b612710888563ffffffff1681518110610cfd57610cfd6138f3565b6020026020010151610120015163ffffffff1682610d1b919061397d565b610d259190613994565b8961012001818151610d3791906139a8565b905250885180516402540be400919063ffffffff8716908110610d5c57610d5c6138f3565b602002602001015160200151898663ffffffff1681518110610d8057610d806138f3565b60200260200101516060015142610d9791906139bb565b8a8763ffffffff1681518110610daf57610daf6138f3565b602002602001015160200151610dc59190613909565b8a8763ffffffff1681518110610ddd57610ddd6138f3565b602002602001015160000151610df39190613939565b610dfd91906139ce565b8a51805163ffffffff8816908110610e1757610e176138f3565b602002602001015160000151610e2d9190613909565b610e3791906139f5565b610e419086613939565b94505050505b80610e5181613a23565b91505061095a565b5060e08501819052604085018051829190610e759083906139ce565b905250600090508060015b8660200151518163ffffffff16101561123257600080548190610eb1906201000090046001600160a01b0316612d57565b6040516318c261fd60e11b815263ffffffff851660048201526001600160a01b039190911690633184c3fa906024016040805180830381865afa158015610efc573d6000803e3d6000fd5b505050506040513d601f19601f82011682018060405250810190610f209190613a46565b90925090506001600160a01b038216610f3a575050611220565b805160081c613fff1689602001518463ffffffff1681518110610f5f57610f5f6138f3565b602090810291909101015160600152805160161c613fff1689602001518463ffffffff1681518110610f9357610f936138f3565b60209081029190910101516080015260008054610fbe906201000090046001600160a01b0316612d57565b60405163728f08cf60e11b81526001600160a01b038d811660048301528581166024830152919091169063e51e119e90604401602060405180830381865afa15801561100e573d6000803e3d6000fd5b505050506040513d601f19601f8201168201806040525081019061103291906136f0565b825190915060321c601f1661104890600a613b57565b6110549061271061397d565b8a602001518563ffffffff1681518110611070576110706138f3565b60200260200101516060015161108a61029e855160ff1690565b611094908461397d565b61109e919061397d565b6110ad906402540be40061397d565b6110b79190613994565b6110c190876139a8565b825190965060321c601f166110d790600a613b57565b6110e39061271061397d565b8a602001518563ffffffff16815181106110ff576110ff6138f3565b60200260200101516080015161111961029e855160ff1690565b611123908461397d565b61112d919061397d565b61113c906402540be40061397d565b6111469190613994565b61115090866139a8565b825190955060321c601f1661116690600a613b57565b61117461029e845160ff1690565b61117e908361397d565b61118d906402540be40061397d565b6111979190613994565b8a60c0018181516111a89190613939565b90525060208a0151805184919063ffffffff87169081106111cb576111cb6138f3565b6020026020010151600001906001600160a01b031690816001600160a01b031681525050808a602001518563ffffffff168151811061120c5761120c6138f3565b602002602001015160200181815250505050505b8061122a81613a23565b915050610e80565b508186604001516112439190613939565b60808701526040860151611258908290613939565b60a0870152604086015160c087018051611273908390613939565b90525060015b8660200151518163ffffffff1610156114c557866101000151876080015112156112d057600087602001518263ffffffff16815181106112bb576112bb6138f3565b602002602001015160400181815250506114b3565b6000805481906112ee906201000090046001600160a01b0316612d57565b6040516318c261fd60e11b815263ffffffff851660048201526001600160a01b039190911690633184c3fa906024016040805180830381865afa158015611339573d6000803e3d6000fd5b505050506040513d601f19601f8201168201806040525081019061135d9190613a46565b90925090506001600160a01b0382166113775750506114b3565b6000670de0b6b3a76400006127108b602001518663ffffffff16815181106113a1576113a16138f3565b6020026020010151606001516113bc8763ffffffff1661204e565b6113c6919061397d565b6113d09190613994565b835160321c601f166113e390600a613b57565b8c61010001518d608001516113f891906139bb565b611402919061397d565b611410906305f5e10061397d565b61141a9190613994565b6114249190613994565b905089602001518463ffffffff1681518110611442576114426138f3565b602002602001015160200151811161145a5780611483565b89602001518463ffffffff1681518110611476576114766138f3565b6020026020010151602001515b8a602001518563ffffffff168151811061149f5761149f6138f3565b602002602001015160400181815250505050505b806114bd81613a23565b915050611279565b50600082876101000151116114db5760006114ec565b828761010001516114ec91906139bb565b9050600081886040015161150091906139ce565b1261151a5780876040015161151591906139bb565b61151d565b60005b606088015250949695505050505050565b6000805461154a906201000090046001600160a01b0316612c5c565b6001600160a01b031663fa5a2e626040518163ffffffff1660e01b8152600401602060405180830381865afa15801561031c573d6000803e3d6000fd5b6060816000816001600160401b038111156115a4576115a46137cf565b6040519080825280602002602001820160405280156115cd578160200160208202803683370190505b5060008054919250620100009091046001600160a01b0316905b838163ffffffff1610156116fd5760008061160a846001600160a01b0316612da6565b6001600160a01b031663c14ffdb98a8a8663ffffffff16818110611630576116306138f3565b90506020020160208101906116459190613489565b6040516001600160e01b031960e084901b16815263ffffffff919091166004820152602401606060405180830381865afa158015611687573d6000803e3d6000fd5b505050506040513d601f19601f820116820180604052508101906116ab9190613b63565b5063ffffffff16915063ffffffff16915080821415858463ffffffff16815181106116d8576116d86138f3565b91151560209283029190910190910152508190506116f581613a23565b9150506115e7565b509095945050505050565b61171061313e565b604080516020810190915260008152604080516020810190915260008152600054611749906201000090046001600160a01b0316612d57565b60405163ece91e3560e01b815263ffffffff861660048201526001600160a01b03919091169063ece91e3590602401608060405180830381865afa158015611795573d6000803e3d6000fd5b505050506040513d601f19601f820116820180604052508101906117b99190613b83565b602087019290925291855290925090506117d282612de6565b60408401526117e082612e10565b60808401526117ee82612e34565b60c08401526117fc82612e58565b60a0840152815160411c63ffffffff16606084015261181a82612e7c565b8360e001906003811115611830576118306134a6565b90816003811115611843576118436134a6565b905250905160bb1c613fff908116610100840152905116610120820152919050565b600054600190610100900460ff16158015611887575060005460ff8083169116105b6118ef5760405162461bcd60e51b815260206004820152602e60248201527f496e697469616c697a61626c653a20636f6e747261637420697320616c72656160448201526d191e481a5b9a5d1a585b1a5e995960921b60648201526084015b60405180910390fd5b6000805461ffff191660ff8316176101001790556001600160a01b0382166119595760405162461bcd60e51b815260206004820152601b60248201527f4f627365727665722073686f756c642062652070726f7669646564000000000060448201526064016118e6565b60008054610100600160b01b031916620100006001600160a01b0385160261ff00191617905560405160ff821681527f7f26b83ff96e1f2b6a682f133852f6798a09c465da95921460cefb38474024989060200160405180910390a15050565b6000806119d26040518060200160405280600081525090565b6000546119ed906201000090046001600160a01b0316612d57565b60405163ece91e3560e01b815263ffffffff871660048201526001600160a01b03919091169063ece91e3590602401608060405180830381865afa158015611a39573d6000803e3d6000fd5b505050506040513d601f19601f82011682018060405250810190611a5d9190613b83565b50600080549194509250611a9b915063ffffffff881690611a8c906201000090046001600160a01b0316612e9e565b6001600160a01b031690612ede565b90506000611aa883612de6565b90506000611ab584612e10565b9050611ac2838383612f7d565b9550611ad087848484612fb8565b9450505050509250929050565b6000805460609190611afd906201000090046001600160a01b0316612d57565b6001600160a01b03166395adc2f26040518163ffffffff1660e01b8152600401602060405180830381865afa158015611b3a573d6000803e3d6000fd5b505050506040513d601f19601f82011682018060405250810190611b5e91906137b2565b6000805491925090611b7e906201000090046001600160a01b0316612c5c565b6001600160a01b031663fa5a2e626040518163ffffffff1660e01b8152600401602060405180830381865afa158015611bbb573d6000803e3d6000fd5b505050506040513d601f19601f82011682018060405250810190611bdf91906136f0565b90508163ffffffff166001600160401b03811115611bff57611bff6137cf565b604051908082528060200260200182016040528015611c28578160200160208202803683370190505b50925060015b8263ffffffff168163ffffffff161015611d2c5760008054611c5e906201000090046001600160a01b0316612d57565b60405163ece91e3560e01b815263ffffffff841660048201526001600160a01b03919091169063ece91e3590602401608060405180830381865afa158015611caa573d6000803e3d6000fd5b505050506040513d601f19601f82011682018060405250810190611cce9190613b83565b509250505082611cdd82612de6565b611cec906402540be400613909565b611cf691906139f5565b858363ffffffff1681518110611d0e57611d0e6138f3565b60209081029190910101525080611d2481613a23565b915050611c2e565b50505090565b600080600080600080600080611d546040518060200160405280600081525090565b600054611d6f906201000090046001600160a01b0316612da6565b6040516314a19a3160e21b815263ffffffff8d166004820152602481018c90526001600160a01b03919091169063528668c490604401606060405180830381865afa158015611dc2573d6000803e3d6000fd5b505050506040513d601f19601f82011682018060405250810190611de69190613bcb565b919a50985090506000611df882613009565b9050806000015181602001518260400151836060015184608001518560a00151809850819950829a50839b50849c50859d5050505050505050509295985092959890939650565b6060816000816001600160401b03811115611e5c57611e5c6137cf565b604051908082528060200260200182016040528015611e85578160200160208202803683370190505b5060008054919250620100009091046001600160a01b0316905b838163ffffffff1610156116fd57611ee187878363ffffffff16818110611ec857611ec86138f3565b90506020020135611a8c846001600160a01b0316612e9e565b838263ffffffff1681518110611ef957611ef96138f3565b602090810291909101015280611f0e81613a23565b915050611e9f565b6000805460609190611f36906201000090046001600160a01b0316612d57565b6001600160a01b03166395adc2f26040518163ffffffff1660e01b8152600401602060405180830381865afa158015611f73573d6000803e3d6000fd5b505050506040513d601f19601f82011682018060405250810190611f9791906137b2565b90508063ffffffff166001600160401b03811115611fb757611fb76137cf565b604051908082528060200260200182016040528015611ff057816020015b611fdd61313e565b815260200190600190039081611fd55790505b50915060005b8163ffffffff168163ffffffff1610156120495761201381611708565b838263ffffffff168151811061202b5761202b6138f3565b6020026020010181905250808061204190613a23565b915050611ff6565b505090565b600080546103cd908390611a8c906201000090046001600160a01b0316612e9e565b6120f3604080516101c08101909152600061018082018181526101a083019190915281908152602001606081526020016000815260200160008152602001600081526020016000815260200160008152602001600081526020016000815260200160008152602001600063ffffffff168152602001600063ffffffff1681525090565b43610120820152600054612115906201000090046001600160a01b0316612c5c565b6001600160a01b0316630468674b6040518163ffffffff1660e01b8152600401602060405180830381865afa158015612152573d6000803e3d6000fd5b505050506040513d601f19601f8201168201806040525081019061217691906137b2565b63ffffffff166001600160401b03811115612193576121936137cf565b6040519080825280602002602001820160405280156121cc57816020015b6121b9613106565b8152602001906001900390816121b15790505b506020820152600080546121ee906201000090046001600160a01b0316612c5c565b6001600160a01b0316635e5c06e2846040518263ffffffff1660e01b815260040161221991906135b9565b6040805180830381865afa158015612235573d6000803e3d6000fd5b505050506040513d601f19601f820116820180604052508101906122599190613834565b50600054909150612278906201000090046001600160a01b0316612cc0565b6001600160a01b031663265f003b8460006040518363ffffffff1660e01b81526004016122a6929190613709565b6040805180830381865afa1580156122c2573d6000803e3d6000fd5b505050506040513d601f19601f820116820180604052508101906122e69190613736565b63ffffffff908116610160850152166101408301526040820181905260005461231d906201000090046001600160a01b0316612c5c565b6001600160a01b03166355f57510846040518263ffffffff1660e01b815260040161234891906135b9565b602060405180830381865afa158015612365573d6000803e3d6000fd5b505050506040513d601f19601f8201168201806040525081019061238991906136f0565b8251526000546123a7906201000090046001600160a01b0316612c5c565b6001600160a01b031663d19d30ad846040518263ffffffff1660e01b81526004016123d291906135b9565b602060405180830381865afa1580156123ef573d6000803e3d6000fd5b505050506040513d601f19601f8201168201806040525081019061241391906136f0565b82516020015260008054612435906201000090046001600160a01b0316612c5c565b6001600160a01b03166378d9a46e6040518163ffffffff1660e01b8152600401602060405180830381865afa158015612472573d6000803e3d6000fd5b505050506040513d601f19601f8201168201806040525081019061249691906136f0565b8351516124a3919061397d565b9050612710836101600151620f42406124bc919061388d565b6124cc9063ffffffff168361397d565b6124d69190613994565b60e084015260408051602081019091526000546127109161257691819061250b906201000090046001600160a01b0316612c5c565b6001600160a01b0316631c580ad56040518163ffffffff1660e01b8152600401602060405180830381865afa158015612548573d6000803e3d6000fd5b505050506040513d601f19601f8201168201806040525081019061256c91906136f0565b905251613fff1690565b6125869063ffffffff168361397d565b6125909190613994565b6101008401526040830180518291906125aa908390613939565b90525060008060015b8560200151518163ffffffff161015612965576000805481906125e4906201000090046001600160a01b0316612c5c565b6040516318c261fd60e11b815263ffffffff851660048201526001600160a01b039190911690633184c3fa906024016040805180830381865afa15801561262f573d6000803e3d6000fd5b505050506040513d601f19601f820116820180604052508101906126539190613a46565b90925090506001600160a01b03821661266d575050612953565b805160081c613fff1688602001518463ffffffff1681518110612692576126926138f3565b602090810291909101015160600152805160161c613fff1688602001518463ffffffff16815181106126c6576126c66138f3565b602090810291909101015160800152600080546126f1906201000090046001600160a01b0316612c5c565b60405163728f08cf60e11b81526001600160a01b038c811660048301528581166024830152919091169063e51e119e90604401602060405180830381865afa158015612741573d6000803e3d6000fd5b505050506040513d601f19601f8201168201806040525081019061276591906136f0565b825190915060321c601f1661277b90600a613b57565b6127879061271061397d565b89602001518563ffffffff16815181106127a3576127a36138f3565b6020026020010151606001516127bd61029e855160ff1690565b6127c7908461397d565b6127d1919061397d565b6127e0906402540be40061397d565b6127ea9190613994565b6127f490876139a8565b825190965060321c601f1661280a90600a613b57565b6128169061271061397d565b89602001518563ffffffff1681518110612832576128326138f3565b60200260200101516080015161284c61029e855160ff1690565b612856908461397d565b612860919061397d565b61286f906402540be40061397d565b6128799190613994565b61288390866139a8565b825190955060321c601f1661289990600a613b57565b6128a761029e845160ff1690565b6128b1908361397d565b6128c0906402540be40061397d565b6128ca9190613994565b8960c0018181516128db9190613939565b9052506020890151805184919063ffffffff87169081106128fe576128fe6138f3565b6020026020010151600001906001600160a01b031690816001600160a01b0316815250508089602001518563ffffffff168151811061293f5761293f6138f3565b602002602001015160200181815250505050505b8061295d81613a23565b9150506125b3565b508185604001516129769190613939565b6080860152604085015161298b908290613939565b60a0860152604085015160c0860180516129a6908390613939565b90525060015b8560200151518163ffffffff161015612bf6578560e0015186608001511215612a0257600086602001518263ffffffff16815181106129ed576129ed6138f3565b60200260200101516040018181525050612be4565b600080548190612a20906201000090046001600160a01b0316612c5c565b6040516318c261fd60e11b815263ffffffff851660048201526001600160a01b039190911690633184c3fa906024016040805180830381865afa158015612a6b573d6000803e3d6000fd5b505050506040513d601f19601f82011682018060405250810190612a8f9190613a46565b90925090506001600160a01b038216612aa9575050612be4565b6000670de0b6b3a76400006127108a602001518663ffffffff1681518110612ad357612ad36138f3565b602002602001015160600151612aee8763ffffffff1661204e565b612af8919061397d565b612b029190613994565b835160321c601f16612b1590600a613b57565b8b60e001518c60800151612b2991906139bb565b612b33919061397d565b612b41906305f5e10061397d565b612b4b9190613994565b612b559190613994565b905088602001518463ffffffff1681518110612b7357612b736138f3565b6020026020010151602001518111612b8b5780612bb4565b88602001518463ffffffff1681518110612ba757612ba76138f3565b6020026020010151602001515b89602001518563ffffffff1681518110612bd057612bd06138f3565b602002602001015160400181815250505050505b80612bee81613a23565b9150506129ac565b506000828660e0015111612c0b576000612c1b565b828660e00151612c1b91906139bb565b90506000818760400151612c2f91906139ce565b12612c4957808660400151612c4491906139bb565b612c4c565b60005b6060870152509395945050505050565b6000816001600160a01b031663b906f15a6040518163ffffffff1660e01b8152600401602060405180830381865afa158015612c9c573d6000803e3d6000fd5b505050506040513d601f19601f820116820180604052508101906103cd9190613c0b565b6000816001600160a01b03166370fac6736040518163ffffffff1660e01b8152600401602060405180830381865afa158015612c9c573d6000803e3d6000fd5b6000816001600160a01b0316626cc35e6040518163ffffffff1660e01b8152600401602060405180830381865afa158015612c9c573d6000803e3d6000fd5b6000818310612d4e5781612d50565b825b9392505050565b6000816001600160a01b031663af8e64226040518163ffffffff1660e01b8152600401602060405180830381865afa158015612c9c573d6000803e3d6000fd5b6000818311612d4e5781612d50565b6000816001600160a01b0316635e9658d26040518163ffffffff1660e01b8152600401602060405180830381865afa158015612c9c573d6000803e3d6000fd5b80516000906001600160401b03811690600160401b1682036103cd57612e0b81613961565b612d50565b60006061633fffffff60611b836000015116901c6402540be4006103cd919061397d565b6000607f633fffffff607f1b836000015116901c6402540be4006103cd919061397d565b6000609d633fffffff609d1b836000015116901c6402540be4006103cd919061397d565b600060c9600360c91b836000015116901c60038111156103cd576103cd6134a6565b6000816001600160a01b0316632630c12f6040518163ffffffff1660e01b8152600401602060405180830381865afa158015612c9c573d6000803e3d6000fd5b60405163f91d443f60e01b81526004810182905260009081906001600160a01b0385169063f91d443f90602401602060405180830381865afa158015612f28573d6000803e3d6000fd5b505050506040513d601f19601f82011682018060405250810190612f4c91906136f0565b90506000612f59856130d6565b905080612f6a836305f5e10061397d565b612f749190613994565b95945050505050565b60008381606484612f8e8785613909565b612f9891906139f5565b612fa291906139f5565b9050612fae8183613939565b9695505050505050565b60008381606484612fca60028a6139f5565b612fd490886139ce565b612fde9085613909565b612fe891906139f5565b612ff291906139f5565b9050612ffe8183613939565b979650505050505050565b6040805160e081018252600080825260208201819052918101829052606081018290526080810182905260a0810182905260c08101919091526040518060e0016040528061305f84516701ffffffffffffff1690565b8152835160391c663fffffffffffff90811660208301528451606f1c166040820152835160a51c60ff1660608201528351608090910190600160ad1b161515151581526020016130b58451600160ae1b16151590565b151581526020016130cc8451600160cf1b16151590565b1515905292915050565b60405163f91d443f60e01b8152600060048201819052906001600160a01b0383169063f91d443f9060240161038c565b6040518060a0016040528060006001600160a01b03168152602001600081526020016000815260200160008152602001600081525090565b604051806101400160405280600081526020016000815260200160008152602001600081526020016000815260200160008152602001600081526020016000600381111561318e5761318e6134a6565b815260006020820181905260409091015290565b6001600160a01b03811681146131b757600080fd5b50565b6000602082840312156131cc57600080fd5b8135612d50816131a2565b63ffffffff811681146131b757600080fd5b600080604083850312156131fc57600080fd5b8235613207816131a2565b91506020830135613217816131d7565b809150509250929050565b600081518084526020808501945080840160005b838110156132685781518051885283810151848901526040908101519088015260609096019590820190600101613236565b509495945050505050565b600081518084526020808501945080840160005b8381101561326857815180516001600160a01b03168852838101518489015260408082015190890152606080820151908901526080908101519088015260a09096019590820190600101613287565b60208152600082516101a08060208501526132f56101c0850183613222565b91506020850151601f198584030160408601526133128382613273565b9250506040850151606085015260608501516080850152608085015160a085015260a085015160c085015260c085015160e085015260e085015161010081818701528087015191505061012081818701528087015191505061014081818701528087015191505061016081818701528087015191505061018061339c8187018363ffffffff169052565b86015163ffffffff81168387015290505b5090949350505050565b60008083601f8401126133c957600080fd5b5081356001600160401b038111156133e057600080fd5b6020830191508360208260051b85010111156133fb57600080fd5b9250929050565b6000806020838503121561341557600080fd5b82356001600160401b0381111561342b57600080fd5b613437858286016133b7565b90969095509350505050565b6020808252825182820181905260009190848201906040850190845b8181101561347d57835115158352928401929184019160010161345f565b50909695505050505050565b60006020828403121561349b57600080fd5b8135612d50816131d7565b634e487b7160e01b600052602160045260246000fd5b600481106134cc576134cc6134a6565b9052565b805182526020810151602083015260408101516040830152606081015160608301526080810151608083015260a081015160a083015260c081015160c083015260e081015161352260e08401826134bc565b506101008181015163ffffffff908116918401919091526101209182015116910152565b61014081016103cd82846134d0565b6000806040838503121561356857600080fd5b8235613573816131d7565b946020939093013593505050565b6020808252825182820181905260009190848201906040850190845b8181101561347d5783518352928401929184019160010161359d565b6001600160a01b0391909116815260200190565b6020808252825182820181905260009190848201906040850190845b8181101561347d576135fc8385516134d0565b9284019261014092909201916001016135e9565b60006020828403121561362257600080fd5b5035919050565b6020808252825180518383015201516040820152600060208301516101a080606085015261365b6101c0850183613273565b915060408501516080850152606085015160a0850152608085015160c085015260a085015160e085015260c0850151610100818187015260e087015191506101208281880152818801519250610140915082828801528088015192505061016082818801528188015192506136d961018088018463ffffffff169052565b87015163ffffffff81168488015291506133ad9050565b60006020828403121561370257600080fd5b5051919050565b6001600160a01b03831681526040810160028310613729576137296134a6565b8260208301529392505050565b6000806040838503121561374957600080fd5b8251613754816131d7565b6020840151909250613217816131d7565b60008060006060848603121561377a57600080fd5b8351613785816131a2565b6020850151909350613796816131d7565b60408501519092506137a7816131d7565b809150509250925092565b6000602082840312156137c457600080fd5b8151612d50816131d7565b634e487b7160e01b600052604160045260246000fd5b6000602082840312156137f757600080fd5b604051602081018181106001600160401b038211171561382757634e487b7160e01b600052604160045260246000fd5b6040529151825250919050565b6000806040838503121561384757600080fd5b8251915061385884602085016137e5565b90509250929050565b634e487b7160e01b600052601260045260246000fd5b634e487b7160e01b600052601160045260246000fd5b600063ffffffff808416806138a4576138a4613861565b92169190910492915050565b6001600160a01b0392909216825263ffffffff16602082015260400190565b600080604083850312156138e257600080fd5b505080516020909101519092909150565b634e487b7160e01b600052603260045260246000fd5b80820260008212600160ff1b8414161561392557613925613877565b81810583148215176103cd576103cd613877565b808201828112600083128015821682158216171561395957613959613877565b505092915050565b6000600160ff1b820161397657613976613877565b5060000390565b80820281158282048414176103cd576103cd613877565b6000826139a3576139a3613861565b500490565b808201808211156103cd576103cd613877565b818103818111156103cd576103cd613877565b81810360008312801583831316838312821617156139ee576139ee613877565b5092915050565b600082613a0457613a04613861565b600160ff1b821460001984141615613a1e57613a1e613877565b500590565b600063ffffffff808316818103613a3c57613a3c613877565b6001019392505050565b60008060408385031215613a5957600080fd5b8251613a64816131a2565b915061385884602085016137e5565b600181815b80851115613aae578160001904821115613a9457613a94613877565b80851615613aa157918102915b93841c9390800290613a78565b509250929050565b600082613ac5575060016103cd565b81613ad2575060006103cd565b8160018114613ae85760028114613af257613b0e565b60019150506103cd565b60ff841115613b0357613b03613877565b50506001821b6103cd565b5060208310610133831016604e8410600b8410161715613b31575081810a6103cd565b613b3b8383613a73565b8060001904821115613b4f57613b4f613877565b029392505050565b6000612d508383613ab6565b600080600060608486031215613b7857600080fd5b8351613785816131d7565b60008060008060808587031215613b9957600080fd5b8451935060208501519250613bb186604087016137e5565b9150613bc086606087016137e5565b905092959194509250565b600080600060608486031215613be057600080fd5b8351613beb816131a2565b60208501519093509150613c0285604086016137e5565b90509250925092565b600060208284031215613c1d57600080fd5b8151612d50816131a256fea2646970667358221220e5ab70833e779f87aa9ae2be2e1be822cd1d5f952f05d48bb8f241fe52767a2164736f6c63430008130033",
  "linkReferences": {},
  "deployedLinkReferences": {}
}