{
  "_format": "hh-sol-artifact-1",
  "contractName": "ContractReader",
  "sourceName": "contracts/core/utils/ContractReader.sol",
  "abi": [
    {
      "inputs": [
        {
          "internalType": "address",
          "name": "observer_",
          "type": "address"
        }
      ],
      "stateMutability": "nonpayable",
      "type": "constructor"
    },
    {
      "inputs": [
        {
          "internalType": "uint32",
          "name": "marketId",
          "type": "uint32"
        },
        {
          "internalType": "uint256",
          "name": "marketOrderSeq",
          "type": "uint256"
        }
      ],
      "name": "getFuturesMarketOrder",
      "outputs": [
        {
          "internalType": "address",
          "name": "user",
          "type": "address"
        },
        {
          "internalType": "uint256",
          "name": "orderId",
          "type": "uint256"
        },
        {
          "internalType": "uint256",
          "name": "qty",
          "type": "uint256"
        },
        {
          "internalType": "uint256",
          "name": "price",
          "type": "uint256"
        },
        {
          "internalType": "uint256",
          "name": "slippageThreshold",
          "type": "uint256"
        },
        {
          "internalType": "uint32",
          "name": "_marketId",
          "type": "uint32"
        },
        {
          "internalType": "bool",
          "name": "isLong",
          "type": "bool"
        },
        {
          "internalType": "bool",
          "name": "isLimitOrder",
          "type": "bool"
        }
      ],
      "stateMutability": "view",
      "type": "function"
    },
    {
      "inputs": [
        {
          "internalType": "uint32",
          "name": "marketId",
          "type": "uint32"
        },
        {
          "internalType": "int256",
          "name": "qty",
          "type": "int256"
        }
      ],
      "name": "getMarkPriceAndInstantClosePrice",
      "outputs": [
        {
          "internalType": "uint256",
          "name": "marketPrice",
          "type": "uint256"
        },
        {
          "internalType": "uint256",
          "name": "instantClosePrice",
          "type": "uint256"
        }
      ],
      "stateMutability": "view",
      "type": "function"
    },
    {
      "inputs": [
        {
          "internalType": "uint32",
          "name": "marketId",
          "type": "uint32"
        }
      ],
      "name": "getMarket",
      "outputs": [
        {
          "internalType": "int256",
          "name": "accFundingFactor",
          "type": "int256"
        },
        {
          "internalType": "int256",
          "name": "fundingRate",
          "type": "int256"
        },
        {
          "internalType": "int256",
          "name": "openInterest",
          "type": "int256"
        },
        {
          "internalType": "uint256",
          "name": "lastFundingRateUpdateTimestamp",
          "type": "uint256"
        },
        {
          "internalType": "uint256",
          "name": "depthFactor",
          "type": "uint256"
        },
        {
          "internalType": "uint256",
          "name": "oiSoftCap",
          "type": "uint256"
        },
        {
          "internalType": "uint256",
          "name": "oiHardCap",
          "type": "uint256"
        }
      ],
      "stateMutability": "view",
      "type": "function"
    },
    {
      "inputs": [
        {
          "internalType": "uint32[]",
          "name": "marketIds",
          "type": "uint32[]"
        }
      ],
      "name": "getMarketsExistingPendingOrders",
      "outputs": [
        {
          "internalType": "bool[]",
          "name": "",
          "type": "bool[]"
        }
      ],
      "stateMutability": "view",
      "type": "function"
    },
    {
      "inputs": [
        {
          "internalType": "uint256",
          "name": "assetId",
          "type": "uint256"
        }
      ],
      "name": "getPriceFeed",
      "outputs": [
        {
          "internalType": "uint256",
          "name": "",
          "type": "uint256"
        }
      ],
      "stateMutability": "view",
      "type": "function"
    },
    {
      "inputs": [
        {
          "internalType": "uint256[]",
          "name": "assetIds",
          "type": "uint256[]"
        }
      ],
      "name": "getPriceFeeds",
      "outputs": [
        {
          "internalType": "uint256[]",
          "name": "",
          "type": "uint256[]"
        }
      ],
      "stateMutability": "view",
      "type": "function"
    }
  ],
  "bytecode": "0x608060405234801561001057600080fd5b5060405161110538038061110583398101604081905261002f91610054565b600080546001600160a01b0319166001600160a01b0392909216919091179055610084565b60006020828403121561006657600080fd5b81516001600160a01b038116811461007d57600080fd5b9392505050565b611072806100936000396000f3fe608060405234801561001057600080fd5b50600436106100625760003560e01c8063a30e397a14610067578063c2c79dec14610090578063dd3be835146100d8578063e083e31614610100578063e351f57b14610162578063f91d443f14610182575b600080fd5b61007a610075366004610c24565b6101a3565b6040516100879190610c66565b60405180910390f35b6100a361009e366004610cc1565b61036a565b604080519788526020880196909652948601939093526060850191909152608084015260a083015260c082015260e001610087565b6100eb6100e6366004610cde565b6104d0565b60408051928352602083019190915201610087565b61011361010e366004610cde565b6106a1565b604080516001600160a01b0390991689526020890197909752958701949094526060860192909252608085015263ffffffff1660a0840152151560c0830152151560e082015261010001610087565b610175610170366004610c24565b6107e5565b6040516100879190610d0a565b610195610190366004610d42565b6108e8565b604051908152602001610087565b60608160008167ffffffffffffffff8111156101c1576101c1610d5b565b6040519080825280602002602001820160405280156101ea578160200160208202803683370190505b50905060005b828163ffffffff16101561035f576000805460408051633d6f0a9560e21b8152905183926001600160a01b03169163f5bc2a549160048083019260209291908290030181865afa158015610248573d6000803e3d6000fd5b505050506040513d601f19601f8201168201806040525081019061026c9190610d8d565b6001600160a01b031663c14ffdb989898663ffffffff1681811061029257610292610da8565b90506020020160208101906102a79190610cc1565b6040516001600160e01b031960e084901b16815263ffffffff919091166004820152602401606060405180830381865afa1580156102e9573d6000803e3d6000fd5b505050506040513d601f19601f8201168201806040525081019061030d9190610dbe565b5063ffffffff16915063ffffffff16915080821415848463ffffffff168151811061033a5761033a610da8565b911515602092830291909101909101525081905061035781610e21565b9150506101f0565b509150505b92915050565b600080600080600080600061038b6040518060200160405280600081525090565b60408051602081019091526000815260008054906101000a90046001600160a01b03166001600160a01b03166366a7f7626040518163ffffffff1660e01b8152600401602060405180830381865afa1580156103eb573d6000803e3d6000fd5b505050506040513d601f19601f8201168201806040525081019061040f9190610d8d565b60405163ece91e3560e01b815263ffffffff8c1660048201526001600160a01b03919091169063ece91e3590602401608060405180830381865afa15801561045b573d6000803e3d6000fd5b505050506040513d601f19601f8201168201806040525081019061047f9190610e94565b929b50909950925090506104928261093f565b965061049d82610978565b94506104a88261099c565b92506104b3826109c0565b825190945060411c63ffffffff1695505050919395979092949650565b6000806104e96040518060200160405280600081525090565b60008054906101000a90046001600160a01b03166001600160a01b03166366a7f7626040518163ffffffff1660e01b8152600401602060405180830381865afa15801561053a573d6000803e3d6000fd5b505050506040513d601f19601f8201168201806040525081019061055e9190610d8d565b60405163ece91e3560e01b815263ffffffff871660048201526001600160a01b03919091169063ece91e3590602401608060405180830381865afa1580156105aa573d6000803e3d6000fd5b505050506040513d601f19601f820116820180604052508101906105ce9190610e94565b506000805460408051631f94a27560e31b8152905193965091945061065f935063ffffffff8a16926001600160a01b039091169163fca513a89160048083019260209291908290030181865afa15801561062c573d6000803e3d6000fd5b505050506040513d601f19601f820116820180604052508101906106509190610d8d565b6001600160a01b0316906109e4565b9050600061066c8361093f565b9050600061067984610978565b9050610686838383610a83565b955061069487848484610abe565b9450505050509250929050565b6000806000806000806000806106c36040518060200160405280600081525090565b60008054906101000a90046001600160a01b03166001600160a01b031663f5bc2a546040518163ffffffff1660e01b8152600401602060405180830381865afa158015610714573d6000803e3d6000fd5b505050506040513d601f19601f820116820180604052508101906107389190610d8d565b6040516314a19a3160e21b815263ffffffff8d166004820152602481018c90526001600160a01b03919091169063528668c490604401606060405180830381865afa15801561078b573d6000803e3d6000fd5b505050506040513d601f19601f820116820180604052508101906107af9190610edc565b919a50985090506107bf81610b0f565b809750819850829950839a50849b50859c50505050505050509295985092959890939650565b60608160008167ffffffffffffffff81111561080357610803610d5b565b60405190808252806020026020018201604052801561082c578160200160208202803683370190505b50905060005b828163ffffffff16101561035f576108b386868363ffffffff1681811061085b5761085b610da8565b9050602002013560008054906101000a90046001600160a01b03166001600160a01b031663fca513a86040518163ffffffff1660e01b8152600401602060405180830381865afa15801561062c573d6000803e3d6000fd5b828263ffffffff16815181106108cb576108cb610da8565b6020908102919091010152806108e081610e21565b915050610832565b60006103648260008054906101000a90046001600160a01b03166001600160a01b031663fca513a86040518163ffffffff1660e01b8152600401602060405180830381865afa15801561062c573d6000803e3d6000fd5b805160009067ffffffffffffffff8116906801000000000000000016820361096f5761096a81610f19565b610971565b805b9392505050565b60006061633fffffff60611b836000015116901c6402540be4006103649190610f35565b6000607f633fffffff607f1b836000015116901c6402540be4006103649190610f35565b6000609d633fffffff609d1b836000015116901c6402540be4006103649190610f35565b60405163f91d443f60e01b81526004810182905260009081906001600160a01b0385169063f91d443f90602401602060405180830381865afa158015610a2e573d6000803e3d6000fd5b505050506040513d601f19601f82011682018060405250810190610a529190610f4c565b90506000610a5f85610b6c565b905080610a70836305f5e100610f35565b610a7a9190610f7b565b95945050505050565b60008381606484610a948785610f8f565b610a9e9190610fbf565b610aa89190610fbf565b9050610ab48183610fed565b9695505050505050565b60008381606484610ad060028a610fbf565b610ada9088611015565b610ae49085610f8f565b610aee9190610fbf565b610af89190610fbf565b9050610b048183610fed565b979650505050505050565b600080600080600080610b2a87516701ffffffffffffff1690565b96519697663fffffffffffff603989901c811698606f81901c909116975060ff60a582901c169650600160ad1b811615159550600160ae1b1615159350915050565b60405163f91d443f60e01b8152600060048201819052906001600160a01b0383169063f91d443f90602401602060405180830381865afa158015610bb4573d6000803e3d6000fd5b505050506040513d601f19601f820116820180604052508101906103649190610f4c565b60008083601f840112610bea57600080fd5b50813567ffffffffffffffff811115610c0257600080fd5b6020830191508360208260051b8501011115610c1d57600080fd5b9250929050565b60008060208385031215610c3757600080fd5b823567ffffffffffffffff811115610c4e57600080fd5b610c5a85828601610bd8565b90969095509350505050565b6020808252825182820181905260009190848201906040850190845b81811015610ca0578351151583529284019291840191600101610c82565b50909695505050505050565b63ffffffff81168114610cbe57600080fd5b50565b600060208284031215610cd357600080fd5b813561097181610cac565b60008060408385031215610cf157600080fd5b8235610cfc81610cac565b946020939093013593505050565b6020808252825182820181905260009190848201906040850190845b81811015610ca057835183529284019291840191600101610d26565b600060208284031215610d5457600080fd5b5035919050565b634e487b7160e01b600052604160045260246000fd5b80516001600160a01b0381168114610d8857600080fd5b919050565b600060208284031215610d9f57600080fd5b61097182610d71565b634e487b7160e01b600052603260045260246000fd5b600080600060608486031215610dd357600080fd5b8351610dde81610cac565b6020850151909350610def81610cac565b6040850151909250610e0081610cac565b809150509250925092565b634e487b7160e01b600052601160045260246000fd5b600063ffffffff808316818103610e3a57610e3a610e0b565b6001019392505050565b600060208284031215610e5657600080fd5b6040516020810181811067ffffffffffffffff82111715610e8757634e487b7160e01b600052604160045260246000fd5b6040529151825250919050565b60008060008060808587031215610eaa57600080fd5b8451935060208501519250610ec28660408701610e44565b9150610ed18660608701610e44565b905092959194509250565b600080600060608486031215610ef157600080fd5b610efa84610d71565b925060208401519150610f108560408601610e44565b90509250925092565b6000600160ff1b8201610f2e57610f2e610e0b565b5060000390565b808202811582820484141761036457610364610e0b565b600060208284031215610f5e57600080fd5b5051919050565b634e487b7160e01b600052601260045260246000fd5b600082610f8a57610f8a610f65565b500490565b80820260008212600160ff1b84141615610fab57610fab610e0b565b818105831482151761036457610364610e0b565b600082610fce57610fce610f65565b600160ff1b821460001984141615610fe857610fe8610e0b565b500590565b808201828112600083128015821682158216171561100d5761100d610e0b565b505092915050565b818103600083128015838313168383128216171561103557611035610e0b565b509291505056fea2646970667358221220de57b6e50d83a6597c7cbe70e3c1456a2bbd1fdae8c59edaf45621085a5ad52c64736f6c63430008130033",
  "linkReferences": {},
  "deployedLinkReferences": {}
}