{
  "_format": "hh-sol-artifact-1",
  "contractName": "FlashLiquidator",
  "sourceName": "contracts/FlashLiquidator.sol",
  "abi": [
    {
      "anonymous": false,
      "inputs": [
        {
          "indexed": false,
          "internalType": "uint8",
          "name": "version",
          "type": "uint8"
        }
      ],
      "name": "Initialized",
      "type": "event"
    },
    {
      "anonymous": false,
      "inputs": [
        {
          "indexed": true,
          "internalType": "address",
          "name": "previousOwner",
          "type": "address"
        },
        {
          "indexed": true,
          "internalType": "address",
          "name": "newOwner",
          "type": "address"
        }
      ],
      "name": "OwnershipTransferred",
      "type": "event"
    },
    {
      "inputs": [
        {
          "internalType": "address",
          "name": "addr",
          "type": "address"
        }
      ],
      "name": "checkLiquidateGranted",
      "outputs": [
        {
          "internalType": "bool",
          "name": "",
          "type": "bool"
        }
      ],
      "stateMutability": "view",
      "type": "function"
    },
    {
      "inputs": [
        {
          "internalType": "address",
          "name": "user",
          "type": "address"
        },
        {
          "internalType": "uint256",
          "name": "repayQty",
          "type": "uint256"
        },
        {
          "internalType": "address",
          "name": "_repayTokenAddress",
          "type": "address"
        },
        {
          "internalType": "address",
          "name": "receiveTokenAddress",
          "type": "address"
        },
        {
          "internalType": "bool",
          "name": "isLP",
          "type": "bool"
        }
      ],
      "name": "getRepayAndReceiveQty",
      "outputs": [
        {
          "internalType": "uint256",
          "name": "liqRepayQty",
          "type": "uint256"
        },
        {
          "internalType": "uint256",
          "name": "liqReceiveQty",
          "type": "uint256"
        }
      ],
      "stateMutability": "view",
      "type": "function"
    },
    {
      "inputs": [
        {
          "internalType": "address[]",
          "name": "addrList",
          "type": "address[]"
        }
      ],
      "name": "grantLiquidators",
      "outputs": [],
      "stateMutability": "nonpayable",
      "type": "function"
    },
    {
      "inputs": [
        {
          "internalType": "contract IRouter",
          "name": "_aarkRouter",
          "type": "address"
        },
        {
          "internalType": "contract IManager",
          "name": "_aarkFuturesManager",
          "type": "address"
        },
        {
          "internalType": "contract IManager",
          "name": "_aarkLpManager",
          "type": "address"
        },
        {
          "internalType": "contract IObserver",
          "name": "_aarkObserver",
          "type": "address"
        },
        {
          "internalType": "address",
          "name": "_aarkVault",
          "type": "address"
        },
        {
          "internalType": "address",
          "name": "_aarkPriceOracle",
          "type": "address"
        },
        {
          "internalType": "address",
          "name": "_repayTokenAddress",
          "type": "address"
        },
        {
          "internalType": "contract IWETH9",
          "name": "_WETH9",
          "type": "address"
        }
      ],
      "name": "initialize",
      "outputs": [],
      "stateMutability": "nonpayable",
      "type": "function"
    },
    {
      "inputs": [
        {
          "components": [
            {
              "internalType": "address",
              "name": "user",
              "type": "address"
            },
            {
              "internalType": "uint256",
              "name": "repayQty",
              "type": "uint256"
            },
            {
              "internalType": "uint256",
              "name": "receiveQty",
              "type": "uint256"
            },
            {
              "internalType": "address",
              "name": "receiveTokenAddress",
              "type": "address"
            },
            {
              "internalType": "bool",
              "name": "isLP",
              "type": "bool"
            },
            {
              "internalType": "address",
              "name": "uniswapV3Pool",
              "type": "address"
            }
          ],
          "internalType": "struct FlashLiquidator.LiquidationRequest[]",
          "name": "liquidationRequests",
          "type": "tuple[]"
        }
      ],
      "name": "liquidateForMultipleRequests",
      "outputs": [],
      "stateMutability": "nonpayable",
      "type": "function"
    },
    {
      "inputs": [],
      "name": "owner",
      "outputs": [
        {
          "internalType": "address",
          "name": "",
          "type": "address"
        }
      ],
      "stateMutability": "view",
      "type": "function"
    },
    {
      "inputs": [],
      "name": "renounceOwnership",
      "outputs": [],
      "stateMutability": "nonpayable",
      "type": "function"
    },
    {
      "inputs": [
        {
          "internalType": "address[]",
          "name": "addrList",
          "type": "address[]"
        }
      ],
      "name": "revokeLiquidators",
      "outputs": [],
      "stateMutability": "nonpayable",
      "type": "function"
    },
    {
      "inputs": [
        {
          "internalType": "address",
          "name": "newOwner",
          "type": "address"
        }
      ],
      "name": "transferOwnership",
      "outputs": [],
      "stateMutability": "nonpayable",
      "type": "function"
    },
    {
      "inputs": [
        {
          "internalType": "int256",
          "name": "amount0Delta",
          "type": "int256"
        },
        {
          "internalType": "int256",
          "name": "amount1Delta",
          "type": "int256"
        },
        {
          "internalType": "bytes",
          "name": "data",
          "type": "bytes"
        }
      ],
      "name": "uniswapV3SwapCallback",
      "outputs": [],
      "stateMutability": "nonpayable",
      "type": "function"
    },
    {
      "inputs": [
        {
          "internalType": "contract IRouter",
          "name": "_aarkRouter",
          "type": "address"
        },
        {
          "internalType": "contract IManager",
          "name": "_aarkFuturesManager",
          "type": "address"
        },
        {
          "internalType": "contract IManager",
          "name": "_aarkLpManager",
          "type": "address"
        },
        {
          "internalType": "contract IObserver",
          "name": "_aarkObserver",
          "type": "address"
        },
        {
          "internalType": "address",
          "name": "_aarkVault",
          "type": "address"
        },
        {
          "internalType": "address",
          "name": "_aarkPriceOracle",
          "type": "address"
        },
        {
          "internalType": "address",
          "name": "_repayTokenAddress",
          "type": "address"
        },
        {
          "internalType": "contract IWETH9",
          "name": "_WETH9",
          "type": "address"
        }
      ],
      "name": "update",
      "outputs": [],
      "stateMutability": "nonpayable",
      "type": "function"
    },
    {
      "inputs": [
        {
          "internalType": "address",
          "name": "to",
          "type": "address"
        },
        {
          "internalType": "address",
          "name": "tokenAddress",
          "type": "address"
        },
        {
          "internalType": "uint256",
          "name": "amount",
          "type": "uint256"
        }
      ],
      "name": "withdrawERC20",
      "outputs": [],
      "stateMutability": "nonpayable",
      "type": "function"
    },
    {
      "inputs": [
        {
          "internalType": "address payable",
          "name": "to",
          "type": "address"
        },
        {
          "internalType": "uint256",
          "name": "amount",
          "type": "uint256"
        }
      ],
      "name": "withdrawETH",
      "outputs": [],
      "stateMutability": "nonpayable",
      "type": "function"
    },
    {
      "stateMutability": "payable",
      "type": "receive"
    }
  ],
  "bytecode": "0x60806040523480156200001157600080fd5b5062000032620000266200003860201b60201c565b6200004060201b60201c565b62000105565b600033905090565b60008060029054906101000a900473ffffffffffffffffffffffffffffffffffffffff16905081600060026101000a81548173ffffffffffffffffffffffffffffffffffffffff021916908373ffffffffffffffffffffffffffffffffffffffff1602179055508173ffffffffffffffffffffffffffffffffffffffff168173ffffffffffffffffffffffffffffffffffffffff167f8be0079c531659141344cd1fd0a4f28419497f9722a3daafe3b4186f6b6457e060405160405180910390a35050565b612e5680620001156000396000f3fe6080604052600436106100c65760003560e01c8063831262661161007f578063b9b5675a11610059578063b9b5675a14610248578063e790c25d14610285578063f2fde38b146102ae578063fa461e33146102d7576100cd565b806383126266146101b65780638a29e2de146101f45780638da5cb5b1461021d576100cd565b806344004cc1146100d25780634674e0fe146100fb5780634782f7791461012457806356fc7b5a1461014d57806360472e5614610176578063715018a61461019f576100cd565b366100cd57005b600080fd5b3480156100de57600080fd5b506100f960048036038101906100f491906118d3565b610300565b005b34801561010757600080fd5b50610122600480360381019061011d9190611a7f565b61038c565b005b34801561013057600080fd5b5061014b60048036038101906101469190611b06565b610429565b005b34801561015957600080fd5b50610174600480360381019061016f9190611ce6565b6104e5565b005b34801561018257600080fd5b5061019d60048036038101906101989190611a7f565b610581565b005b3480156101ab57600080fd5b506101b461061e565b005b3480156101c257600080fd5b506101dd60048036038101906101d89190611d2f565b610632565b6040516101eb929190611db9565b60405180910390f35b34801561020057600080fd5b5061021b60048036038101906102169190611eda565b6108d5565b005b34801561022957600080fd5b50610232610c2b565b60405161023f9190611f9f565b60405180910390f35b34801561025457600080fd5b5061026f600480360381019061026a9190611fba565b610c54565b60405161027c9190611ff6565b60405180910390f35b34801561029157600080fd5b506102ac60048036038101906102a79190611eda565b610caa565b005b3480156102ba57600080fd5b506102d560048036038101906102d09190611fba565b610ec4565b005b3480156102e357600080fd5b506102fe60048036038101906102f991906120a2565b610f47565b005b6103086111df565b8173ffffffffffffffffffffffffffffffffffffffff1663a9059cbb84836040518363ffffffff1660e01b8152600401610343929190612116565b6020604051808303816000875af1158015610362573d6000803e3d6000fd5b505050506040513d601f19601f820116820180604052508101906103869190612154565b50505050565b6103946111df565b60005b8151811015610425576001600960008484815181106103b9576103b8612181565b5b602002602001015173ffffffffffffffffffffffffffffffffffffffff1673ffffffffffffffffffffffffffffffffffffffff16815260200190815260200160002060006101000a81548160ff021916908315150217905550808061041d906121df565b915050610397565b5050565b6104316111df565b6000808373ffffffffffffffffffffffffffffffffffffffff168360405161045890612258565b60006040518083038185875af1925050503d8060008114610495576040519150601f19603f3d011682016040523d82523d6000602084013e61049a565b606091505b5091509150816104df576040517f08c379a00000000000000000000000000000000000000000000000000000000081526004016104d6906122ca565b60405180910390fd5b50505050565b600960003273ffffffffffffffffffffffffffffffffffffffff1673ffffffffffffffffffffffffffffffffffffffff16815260200190815260200160002060009054906101000a900460ff1661053b57600080fd5b60005b815181101561057d5761056a82828151811061055d5761055c612181565b5b602002602001015161125d565b8080610575906121df565b91505061053e565b5050565b6105896111df565b60005b815181101561061a576000600960008484815181106105ae576105ad612181565b5b602002602001015173ffffffffffffffffffffffffffffffffffffffff1673ffffffffffffffffffffffffffffffffffffffff16815260200190815260200160002060006101000a81548160ff0219169083151502179055508080610612906121df565b91505061058c565b5050565b6106266111df565b610630600061150b565b565b60008060008361066457600260009054906101000a900473ffffffffffffffffffffffffffffffffffffffff16610688565b600360009054906101000a900473ffffffffffffffffffffffffffffffffffffffff165b9050600061069682876115d0565b905073__$ff690753d6b035f08944ffc7578f8c3e1e$__637eef6053898473ffffffffffffffffffffffffffffffffffffffff1663e51e119e8d8b6040518363ffffffff1660e01b81526004016106ee9291906122ea565b602060405180830381865afa15801561070b573d6000803e3d6000fd5b505050506040513d601f19601f8201168201806040525081019061072f9190612328565b600760009054906101000a900473ffffffffffffffffffffffffffffffffffffffff1673ffffffffffffffffffffffffffffffffffffffff1663d277b62d8c6040518263ffffffff1660e01b815260040161078a9190611f9f565b606060405180830381865afa1580156107a7573d6000803e3d6000fd5b505050506040513d601f19601f820116820180604052508101906107cb9190612407565b85600560009054906101000a900473ffffffffffffffffffffffffffffffffffffffff168873ffffffffffffffffffffffffffffffffffffffff1663a7c1abe06040518163ffffffff1660e01b8152600401602060405180830381865afa15801561083a573d6000803e3d6000fd5b505050506040513d601f19601f8201168201806040525081019061085e9190612470565b6040518763ffffffff1660e01b815260040161087f96959493929190612571565b606060405180830381865af415801561089c573d6000803e3d6000fd5b505050506040513d601f19601f820116820180604052508101906108c091906125d3565b50809450819550505050509550959350505050565b60008060019054906101000a900460ff161590508080156109065750600160008054906101000a900460ff1660ff16105b8061093357506109153061172b565b1580156109325750600160008054906101000a900460ff1660ff16145b5b610972576040517f08c379a000000000000000000000000000000000000000000000000000000000815260040161096990612698565b60405180910390fd5b60016000806101000a81548160ff021916908360ff16021790555080156109af576001600060016101000a81548160ff0219169083151502179055505b88600160006101000a81548173ffffffffffffffffffffffffffffffffffffffff021916908373ffffffffffffffffffffffffffffffffffffffff16021790555087600260006101000a81548173ffffffffffffffffffffffffffffffffffffffff021916908373ffffffffffffffffffffffffffffffffffffffff16021790555086600360006101000a81548173ffffffffffffffffffffffffffffffffffffffff021916908373ffffffffffffffffffffffffffffffffffffffff16021790555085600760006101000a81548173ffffffffffffffffffffffffffffffffffffffff021916908373ffffffffffffffffffffffffffffffffffffffff16021790555084600460006101000a81548173ffffffffffffffffffffffffffffffffffffffff021916908373ffffffffffffffffffffffffffffffffffffffff16021790555083600560006101000a81548173ffffffffffffffffffffffffffffffffffffffff021916908373ffffffffffffffffffffffffffffffffffffffff16021790555082600660006101000a81548173ffffffffffffffffffffffffffffffffffffffff021916908373ffffffffffffffffffffffffffffffffffffffff16021790555081600860006101000a81548173ffffffffffffffffffffffffffffffffffffffff021916908373ffffffffffffffffffffffffffffffffffffffff160217905550610bc7610bc261174e565b61150b565b8015610c205760008060016101000a81548160ff0219169083151502179055507f7f26b83ff96e1f2b6a682f133852f6798a09c465da95921460cefb38474024986001604051610c1791906126fd565b60405180910390a15b505050505050505050565b60008060029054906101000a900473ffffffffffffffffffffffffffffffffffffffff16905090565b6000600960008373ffffffffffffffffffffffffffffffffffffffff1673ffffffffffffffffffffffffffffffffffffffff16815260200190815260200160002060009054906101000a900460ff169050919050565b610cb26111df565b87600160006101000a81548173ffffffffffffffffffffffffffffffffffffffff021916908373ffffffffffffffffffffffffffffffffffffffff16021790555086600260006101000a81548173ffffffffffffffffffffffffffffffffffffffff021916908373ffffffffffffffffffffffffffffffffffffffff16021790555085600360006101000a81548173ffffffffffffffffffffffffffffffffffffffff021916908373ffffffffffffffffffffffffffffffffffffffff16021790555084600760006101000a81548173ffffffffffffffffffffffffffffffffffffffff021916908373ffffffffffffffffffffffffffffffffffffffff16021790555083600460006101000a81548173ffffffffffffffffffffffffffffffffffffffff021916908373ffffffffffffffffffffffffffffffffffffffff16021790555082600560006101000a81548173ffffffffffffffffffffffffffffffffffffffff021916908373ffffffffffffffffffffffffffffffffffffffff16021790555081600660006101000a81548173ffffffffffffffffffffffffffffffffffffffff021916908373ffffffffffffffffffffffffffffffffffffffff16021790555080600860006101000a81548173ffffffffffffffffffffffffffffffffffffffff021916908373ffffffffffffffffffffffffffffffffffffffff1602179055505050505050505050565b610ecc6111df565b600073ffffffffffffffffffffffffffffffffffffffff168173ffffffffffffffffffffffffffffffffffffffff1603610f3b576040517f08c379a0000000000000000000000000000000000000000000000000000000008152600401610f329061278a565b60405180910390fd5b610f448161150b565b50565b600960003273ffffffffffffffffffffffffffffffffffffffff1673ffffffffffffffffffffffffffffffffffffffff16815260200190815260200160002060009054906101000a900460ff16610f9d57600080fd5b6000610fa98383611756565b90506000808613610fba5784610fbc565b855b90506000600660009054906101000a900473ffffffffffffffffffffffffffffffffffffffff1690508073ffffffffffffffffffffffffffffffffffffffff1663095ea7b3600460009054906101000a900473ffffffffffffffffffffffffffffffffffffffff1685602001516040518363ffffffff1660e01b8152600401611046929190612116565b6020604051808303816000875af1158015611065573d6000803e3d6000fd5b505050506040513d601f19601f820116820180604052508101906110899190612154565b506000600160009054906101000a900473ffffffffffffffffffffffffffffffffffffffff1673ffffffffffffffffffffffffffffffffffffffff1663169dbfe830866000015185886060015160018a602001516110e791906127aa565b8a608001516040518763ffffffff1660e01b815260040161110d969594939291906127de565b6020604051808303816000875af115801561112c573d6000803e3d6000fd5b505050506040513d601f19601f820116820180604052508101906111509190612154565b9050836060015173ffffffffffffffffffffffffffffffffffffffff1663a9059cbb33856040518363ffffffff1660e01b8152600401611191929190612116565b6020604051808303816000875af11580156111b0573d6000803e3d6000fd5b505050506040513d601f19601f820116820180604052508101906111d49190612154565b505050505050505050565b6111e761174e565b73ffffffffffffffffffffffffffffffffffffffff16611205610c2b565b73ffffffffffffffffffffffffffffffffffffffff161461125b576040517f08c379a00000000000000000000000000000000000000000000000000000000081526004016112529061288b565b60405180910390fd5b565b6000816060015190506000600660009054906101000a900473ffffffffffffffffffffffffffffffffffffffff16905060008273ffffffffffffffffffffffffffffffffffffffff168273ffffffffffffffffffffffffffffffffffffffff161190506000803073ffffffffffffffffffffffffffffffffffffffff166383126266876000015167ffffffffffffffff878a606001518b608001516040518663ffffffff1660e01b81526004016113189594939291906128e6565b6040805180830381865afa158015611334573d6000803e3d6000fd5b505050506040513d601f19601f820116820180604052508101906113589190612939565b91509150818660200181815250508086604001818152505060005b600a811015611502578660a0015173ffffffffffffffffffffffffffffffffffffffff1663128acb0830868a60400151886113c25773fffd8963efd1fc6a506488495d951d5263988d256113c9565b6401000276a45b6113d28d611775565b6040518663ffffffff1660e01b81526004016113f2959493929190612a16565b60408051808303816000875af192505050801561142d57506040513d601f19601f8201168201806040525081019061142a9190612a85565b60015b6114f6573073ffffffffffffffffffffffffffffffffffffffff166383126266886000015160028a602001516114639190612af4565b888b606001518c608001516040518663ffffffff1660e01b815260040161148e959493929190612b25565b6040805180830381865afa9250505080156114c757506040513d601f19601f820116820180604052508101906114c49190612939565b60015b156115025781896020018181525050808960400181815250506001836114ed91906127aa565b925050506114fd565b5050611502565b611373565b50505050505050565b60008060029054906101000a900473ffffffffffffffffffffffffffffffffffffffff16905081600060026101000a81548173ffffffffffffffffffffffffffffffffffffffff021916908373ffffffffffffffffffffffffffffffffffffffff1602179055508173ffffffffffffffffffffffffffffffffffffffff168173ffffffffffffffffffffffffffffffffffffffff167f8be0079c531659141344cd1fd0a4f28419497f9722a3daafe3b4186f6b6457e060405160405180910390a35050565b6115d861179e565b60008373ffffffffffffffffffffffffffffffffffffffff16639cbb4182846040518263ffffffff1660e01b81526004016116139190611f9f565b602060405180830381865afa158015611630573d6000803e3d6000fd5b505050506040513d601f19601f820116820180604052508101906116549190612bb4565b905060008163ffffffff160361169f576040517f08c379a000000000000000000000000000000000000000000000000000000000815260040161169690612c2d565b60405180910390fd5b60008473ffffffffffffffffffffffffffffffffffffffff16633184c3fa836040518263ffffffff1660e01b81526004016116da9190612c5c565b6040805180830381865afa1580156116f6573d6000803e3d6000fd5b505050506040513d601f19601f8201168201806040525081019061171a9190612d03565b905080602001519250505092915050565b6000808273ffffffffffffffffffffffffffffffffffffffff163b119050919050565b600033905090565b61175e6117b1565b828281019061176d9190612d30565b905092915050565b6060816040516020016117889190612e05565b6040516020818303038152906040529050919050565b6040518060200160405280600081525090565b6040518060c00160405280600073ffffffffffffffffffffffffffffffffffffffff1681526020016000815260200160008152602001600073ffffffffffffffffffffffffffffffffffffffff168152602001600015158152602001600073ffffffffffffffffffffffffffffffffffffffff1681525090565b6000604051905090565b600080fd5b600080fd5b600073ffffffffffffffffffffffffffffffffffffffff82169050919050565b600061186a8261183f565b9050919050565b61187a8161185f565b811461188557600080fd5b50565b60008135905061189781611871565b92915050565b6000819050919050565b6118b08161189d565b81146118bb57600080fd5b50565b6000813590506118cd816118a7565b92915050565b6000806000606084860312156118ec576118eb611835565b5b60006118fa86828701611888565b935050602061190b86828701611888565b925050604061191c868287016118be565b9150509250925092565b600080fd5b6000601f19601f8301169050919050565b7f4e487b7100000000000000000000000000000000000000000000000000000000600052604160045260246000fd5b6119748261192b565b810181811067ffffffffffffffff821117156119935761199261193c565b5b80604052505050565b60006119a661182b565b90506119b2828261196b565b919050565b600067ffffffffffffffff8211156119d2576119d161193c565b5b602082029050602081019050919050565b600080fd5b60006119fb6119f6846119b7565b61199c565b90508083825260208201905060208402830185811115611a1e57611a1d6119e3565b5b835b81811015611a475780611a338882611888565b845260208401935050602081019050611a20565b5050509392505050565b600082601f830112611a6657611a65611926565b5b8135611a768482602086016119e8565b91505092915050565b600060208284031215611a9557611a94611835565b5b600082013567ffffffffffffffff811115611ab357611ab261183a565b5b611abf84828501611a51565b91505092915050565b6000611ad38261183f565b9050919050565b611ae381611ac8565b8114611aee57600080fd5b50565b600081359050611b0081611ada565b92915050565b60008060408385031215611b1d57611b1c611835565b5b6000611b2b85828601611af1565b9250506020611b3c858286016118be565b9150509250929050565b600067ffffffffffffffff821115611b6157611b6061193c565b5b602082029050602081019050919050565b600080fd5b60008115159050919050565b611b8c81611b77565b8114611b9757600080fd5b50565b600081359050611ba981611b83565b92915050565b600060c08284031215611bc557611bc4611b72565b5b611bcf60c061199c565b90506000611bdf84828501611888565b6000830152506020611bf3848285016118be565b6020830152506040611c07848285016118be565b6040830152506060611c1b84828501611888565b6060830152506080611c2f84828501611b9a565b60808301525060a0611c4384828501611888565b60a08301525092915050565b6000611c62611c5d84611b46565b61199c565b90508083825260208201905060c08402830185811115611c8557611c846119e3565b5b835b81811015611cae5780611c9a8882611baf565b84526020840193505060c081019050611c87565b5050509392505050565b600082601f830112611ccd57611ccc611926565b5b8135611cdd848260208601611c4f565b91505092915050565b600060208284031215611cfc57611cfb611835565b5b600082013567ffffffffffffffff811115611d1a57611d1961183a565b5b611d2684828501611cb8565b91505092915050565b600080600080600060a08688031215611d4b57611d4a611835565b5b6000611d5988828901611888565b9550506020611d6a888289016118be565b9450506040611d7b88828901611888565b9350506060611d8c88828901611888565b9250506080611d9d88828901611b9a565b9150509295509295909350565b611db38161189d565b82525050565b6000604082019050611dce6000830185611daa565b611ddb6020830184611daa565b9392505050565b6000611ded8261185f565b9050919050565b611dfd81611de2565b8114611e0857600080fd5b50565b600081359050611e1a81611df4565b92915050565b6000611e2b8261185f565b9050919050565b611e3b81611e20565b8114611e4657600080fd5b50565b600081359050611e5881611e32565b92915050565b6000611e698261185f565b9050919050565b611e7981611e5e565b8114611e8457600080fd5b50565b600081359050611e9681611e70565b92915050565b6000611ea78261185f565b9050919050565b611eb781611e9c565b8114611ec257600080fd5b50565b600081359050611ed481611eae565b92915050565b600080600080600080600080610100898b031215611efb57611efa611835565b5b6000611f098b828c01611e0b565b9850506020611f1a8b828c01611e49565b9750506040611f2b8b828c01611e49565b9650506060611f3c8b828c01611e87565b9550506080611f4d8b828c01611888565b94505060a0611f5e8b828c01611888565b93505060c0611f6f8b828c01611888565b92505060e0611f808b828c01611ec5565b9150509295985092959890939650565b611f998161185f565b82525050565b6000602082019050611fb46000830184611f90565b92915050565b600060208284031215611fd057611fcf611835565b5b6000611fde84828501611888565b91505092915050565b611ff081611b77565b82525050565b600060208201905061200b6000830184611fe7565b92915050565b6000819050919050565b61202481612011565b811461202f57600080fd5b50565b6000813590506120418161201b565b92915050565b600080fd5b60008083601f84011261206257612061611926565b5b8235905067ffffffffffffffff81111561207f5761207e612047565b5b60208301915083600182028301111561209b5761209a6119e3565b5b9250929050565b600080600080606085870312156120bc576120bb611835565b5b60006120ca87828801612032565b94505060206120db87828801612032565b935050604085013567ffffffffffffffff8111156120fc576120fb61183a565b5b6121088782880161204c565b925092505092959194509250565b600060408201905061212b6000830185611f90565b6121386020830184611daa565b9392505050565b60008151905061214e81611b83565b92915050565b60006020828403121561216a57612169611835565b5b60006121788482850161213f565b91505092915050565b7f4e487b7100000000000000000000000000000000000000000000000000000000600052603260045260246000fd5b7f4e487b7100000000000000000000000000000000000000000000000000000000600052601160045260246000fd5b60006121ea8261189d565b91507fffffffffffffffffffffffffffffffffffffffffffffffffffffffffffffffff820361221c5761221b6121b0565b5b600182019050919050565b600081905092915050565b50565b6000612242600083612227565b915061224d82612232565b600082019050919050565b600061226382612235565b9150819050919050565b600082825260208201905092915050565b7f4661696c656420746f2073656e64204574686572000000000000000000000000600082015250565b60006122b460148361226d565b91506122bf8261227e565b602082019050919050565b600060208201905081810360008301526122e3816122a7565b9050919050565b60006040820190506122ff6000830185611f90565b61230c6020830184611f90565b9392505050565b600081519050612322816118a7565b92915050565b60006020828403121561233e5761233d611835565b5b600061234c84828501612313565b91505092915050565b60008151905061236481611871565b92915050565b600060ff82169050919050565b6123808161236a565b811461238b57600080fd5b50565b60008151905061239d81612377565b92915050565b6000606082840312156123b9576123b8611b72565b5b6123c3606061199c565b905060006123d384828501612355565b60008301525060206123e78482850161238e565b60208301525060406123fb8482850161213f565b60408301525092915050565b60006060828403121561241d5761241c611835565b5b600061242b848285016123a3565b91505092915050565b60006020828403121561244a57612449611b72565b5b612454602061199c565b9050600061246484828501612313565b60008301525092915050565b60006020828403121561248657612485611835565b5b600061249484828501612434565b91505092915050565b6124a68161189d565b82525050565b6124b58161185f565b82525050565b6124c48161236a565b82525050565b6124d381611b77565b82525050565b6060820160008201516124ef60008501826124ac565b50602082015161250260208501826124bb565b50604082015161251560408501826124ca565b50505050565b6125248161189d565b82525050565b602082016000820151612540600085018261251b565b50505050565b61254f8161185f565b82525050565b60208201600082015161256b600085018261251b565b50505050565b600061010082019050612587600083018961249d565b612594602083018861249d565b6125a160408301876124d9565b6125ae60a083018661252a565b6125bb60c0830185612546565b6125c860e0830184612555565b979650505050505050565b6000806000606084860312156125ec576125eb611835565b5b60006125fa86828701612313565b935050602061260b86828701612313565b925050604061261c86828701612313565b9150509250925092565b7f496e697469616c697a61626c653a20636f6e747261637420697320616c72656160008201527f647920696e697469616c697a6564000000000000000000000000000000000000602082015250565b6000612682602e8361226d565b915061268d82612626565b604082019050919050565b600060208201905081810360008301526126b181612675565b9050919050565b6000819050919050565b6000819050919050565b60006126e76126e26126dd846126b8565b6126c2565b61236a565b9050919050565b6126f7816126cc565b82525050565b600060208201905061271260008301846126ee565b92915050565b7f4f776e61626c653a206e6577206f776e657220697320746865207a65726f206160008201527f6464726573730000000000000000000000000000000000000000000000000000602082015250565b600061277460268361226d565b915061277f82612718565b604082019050919050565b600060208201905081810360008301526127a381612767565b9050919050565b60006127b58261189d565b91506127c08361189d565b92508282019050808211156127d8576127d76121b0565b5b92915050565b600060c0820190506127f36000830189611f90565b6128006020830188611f90565b61280d6040830187611f90565b61281a6060830186611f90565b6128276080830185611daa565b61283460a0830184611fe7565b979650505050505050565b7f4f776e61626c653a2063616c6c6572206973206e6f7420746865206f776e6572600082015250565b600061287560208361226d565b91506128808261283f565b602082019050919050565b600060208201905081810360008301526128a481612868565b9050919050565b6000819050919050565b60006128d06128cb6128c6846128ab565b6126c2565b61189d565b9050919050565b6128e0816128b5565b82525050565b600060a0820190506128fb6000830188611f90565b61290860208301876128d7565b6129156040830186611f90565b6129226060830185611f90565b61292f6080830184611fe7565b9695505050505050565b600080604083850312156129505761294f611835565b5b600061295e85828601612313565b925050602061296f85828601612313565b9150509250929050565b61298281612011565b82525050565b6129918161183f565b82525050565b600081519050919050565b600082825260208201905092915050565b60005b838110156129d15780820151818401526020810190506129b6565b60008484015250505050565b60006129e882612997565b6129f281856129a2565b9350612a028185602086016129b3565b612a0b8161192b565b840191505092915050565b600060a082019050612a2b6000830188611f90565b612a386020830187611fe7565b612a456040830186612979565b612a526060830185612988565b8181036080830152612a6481846129dd565b90509695505050505050565b600081519050612a7f8161201b565b92915050565b60008060408385031215612a9c57612a9b611835565b5b6000612aaa85828601612a70565b9250506020612abb85828601612a70565b9150509250929050565b7f4e487b7100000000000000000000000000000000000000000000000000000000600052601260045260246000fd5b6000612aff8261189d565b9150612b0a8361189d565b925082612b1a57612b19612ac5565b5b828204905092915050565b600060a082019050612b3a6000830188611f90565b612b476020830187611daa565b612b546040830186611f90565b612b616060830185611f90565b612b6e6080830184611fe7565b9695505050505050565b600063ffffffff82169050919050565b612b9181612b78565b8114612b9c57600080fd5b50565b600081519050612bae81612b88565b92915050565b600060208284031215612bca57612bc9611835565b5b6000612bd884828501612b9f565b91505092915050565b7f4e6f74206c697374656420746f6b656e00000000000000000000000000000000600082015250565b6000612c1760108361226d565b9150612c2282612be1565b602082019050919050565b60006020820190508181036000830152612c4681612c0a565b9050919050565b612c5681612b78565b82525050565b6000602082019050612c716000830184612c4d565b92915050565b600060208284031215612c8d57612c8c611b72565b5b612c97602061199c565b90506000612ca784828501612313565b60008301525092915050565b600060408284031215612cc957612cc8611b72565b5b612cd3604061199c565b90506000612ce384828501612355565b6000830152506020612cf784828501612c77565b60208301525092915050565b600060408284031215612d1957612d18611835565b5b6000612d2784828501612cb3565b91505092915050565b600060c08284031215612d4657612d45611835565b5b6000612d5484828501611baf565b91505092915050565b612d668161185f565b82525050565b612d758161189d565b82525050565b612d8481611b77565b82525050565b60c082016000820151612da06000850182612d5d565b506020820151612db36020850182612d6c565b506040820151612dc66040850182612d6c565b506060820151612dd96060850182612d5d565b506080820151612dec6080850182612d7b565b5060a0820151612dff60a0850182612d5d565b50505050565b600060c082019050612e1a6000830184612d8a565b9291505056fea2646970667358221220ffc78e7731f7722303db110a6a5b0ac1b0fe2c7bb9cc2d1a09e5bffa80a36c4364736f6c63430008130033",
  "linkReferences": {
    "contracts/common/aark/CollateralLogic.sol": {
      "CollateralLogic": [
        {
          "length": 20,
          "start": 1967
        }
      ]
    }
  },
  "deployedLinkReferences": {
    "contracts/common/aark/CollateralLogic.sol": {
      "CollateralLogic": [
        {
          "length": 20,
          "start": 1690
        }
      ]
    }
  }
}