{
  "_format": "hh-sol-artifact-1",
  "contractName": "InsuranceManager",
  "sourceName": "contracts/core/managers/InsuranceManager.sol",
  "abi": [
    {
      "inputs": [],
      "stateMutability": "nonpayable",
      "type": "constructor"
    },
    {
      "anonymous": false,
      "inputs": [
        {
          "indexed": false,
          "internalType": "uint8",
          "name": "version",
          "type": "uint8"
        }
      ],
      "name": "Initialized",
      "type": "event"
    },
    {
      "anonymous": false,
      "inputs": [
        {
          "indexed": true,
          "internalType": "bytes32",
          "name": "role",
          "type": "bytes32"
        },
        {
          "indexed": true,
          "internalType": "bytes32",
          "name": "previousAdminRole",
          "type": "bytes32"
        },
        {
          "indexed": true,
          "internalType": "bytes32",
          "name": "newAdminRole",
          "type": "bytes32"
        }
      ],
      "name": "RoleAdminChanged",
      "type": "event"
    },
    {
      "anonymous": false,
      "inputs": [
        {
          "indexed": true,
          "internalType": "bytes32",
          "name": "role",
          "type": "bytes32"
        },
        {
          "indexed": true,
          "internalType": "address",
          "name": "account",
          "type": "address"
        },
        {
          "indexed": true,
          "internalType": "address",
          "name": "sender",
          "type": "address"
        }
      ],
      "name": "RoleGranted",
      "type": "event"
    },
    {
      "anonymous": false,
      "inputs": [
        {
          "indexed": true,
          "internalType": "bytes32",
          "name": "role",
          "type": "bytes32"
        },
        {
          "indexed": true,
          "internalType": "address",
          "name": "account",
          "type": "address"
        },
        {
          "indexed": true,
          "internalType": "address",
          "name": "sender",
          "type": "address"
        }
      ],
      "name": "RoleRevoked",
      "type": "event"
    },
    {
      "anonymous": false,
      "inputs": [
        {
          "indexed": false,
          "internalType": "uint256",
          "name": "WITHDRAW_PENDING_PERIOD",
          "type": "uint256"
        },
        {
          "indexed": false,
          "internalType": "uint256",
          "name": "WITHDRAW_PERIOD",
          "type": "uint256"
        }
      ],
      "name": "UpdateWithdrawalFactors",
      "type": "event"
    },
    {
      "inputs": [],
      "name": "DEFAULT_ADMIN_ROLE",
      "outputs": [
        {
          "internalType": "bytes32",
          "name": "",
          "type": "bytes32"
        }
      ],
      "stateMutability": "view",
      "type": "function"
    },
    {
      "inputs": [],
      "name": "DELEVERAGEUR",
      "outputs": [
        {
          "internalType": "bytes32",
          "name": "",
          "type": "bytes32"
        }
      ],
      "stateMutability": "view",
      "type": "function"
    },
    {
      "inputs": [],
      "name": "DEPTH_FACTOR_MANAGER_ROLE",
      "outputs": [
        {
          "internalType": "bytes32",
          "name": "",
          "type": "bytes32"
        }
      ],
      "stateMutability": "view",
      "type": "function"
    },
    {
      "inputs": [],
      "name": "LIMIT_ORDER_KEEPER",
      "outputs": [
        {
          "internalType": "bytes32",
          "name": "",
          "type": "bytes32"
        }
      ],
      "stateMutability": "view",
      "type": "function"
    },
    {
      "inputs": [],
      "name": "LIQUIDATOR",
      "outputs": [
        {
          "internalType": "bytes32",
          "name": "",
          "type": "bytes32"
        }
      ],
      "stateMutability": "view",
      "type": "function"
    },
    {
      "inputs": [],
      "name": "PRICE_KEEPER",
      "outputs": [
        {
          "internalType": "bytes32",
          "name": "",
          "type": "bytes32"
        }
      ],
      "stateMutability": "view",
      "type": "function"
    },
    {
      "inputs": [],
      "name": "USER_TIER_MANAGER_ROLE",
      "outputs": [
        {
          "internalType": "bytes32",
          "name": "",
          "type": "bytes32"
        }
      ],
      "stateMutability": "view",
      "type": "function"
    },
    {
      "inputs": [],
      "name": "WETH",
      "outputs": [
        {
          "internalType": "address",
          "name": "",
          "type": "address"
        }
      ],
      "stateMutability": "view",
      "type": "function"
    },
    {
      "inputs": [],
      "name": "WHITELISTED_USER",
      "outputs": [
        {
          "internalType": "bytes32",
          "name": "",
          "type": "bytes32"
        }
      ],
      "stateMutability": "view",
      "type": "function"
    },
    {
      "inputs": [],
      "name": "WITHDRAW_PENDING_PERIOD",
      "outputs": [
        {
          "internalType": "uint256",
          "name": "",
          "type": "uint256"
        }
      ],
      "stateMutability": "view",
      "type": "function"
    },
    {
      "inputs": [],
      "name": "WITHDRAW_PERIOD",
      "outputs": [
        {
          "internalType": "uint256",
          "name": "",
          "type": "uint256"
        }
      ],
      "stateMutability": "view",
      "type": "function"
    },
    {
      "inputs": [
        {
          "internalType": "uint256",
          "name": "liquidity",
          "type": "uint256"
        }
      ],
      "name": "addLiquidity",
      "outputs": [],
      "stateMutability": "nonpayable",
      "type": "function"
    },
    {
      "inputs": [
        {
          "components": [
            {
              "internalType": "address",
              "name": "WETH",
              "type": "address"
            },
            {
              "internalType": "address",
              "name": "priceOracle",
              "type": "address"
            },
            {
              "internalType": "address",
              "name": "vault",
              "type": "address"
            },
            {
              "internalType": "address",
              "name": "lpManager",
              "type": "address"
            },
            {
              "internalType": "address",
              "name": "futuresManager",
              "type": "address"
            },
            {
              "internalType": "address",
              "name": "masterRouter",
              "type": "address"
            },
            {
              "internalType": "address",
              "name": "insuranceManager",
              "type": "address"
            },
            {
              "internalType": "address",
              "name": "feedVerifier",
              "type": "address"
            }
          ],
          "internalType": "struct DataTypes.AddressCache",
          "name": "validAddresses_",
          "type": "tuple"
        },
        {
          "components": [
            {
              "internalType": "address",
              "name": "tokenAddress",
              "type": "address"
            },
            {
              "internalType": "uint8",
              "name": "decimals",
              "type": "uint8"
            }
          ],
          "internalType": "struct DataTypes.UsdData",
          "name": "usdData_",
          "type": "tuple"
        }
      ],
      "name": "cacheDatas",
      "outputs": [],
      "stateMutability": "nonpayable",
      "type": "function"
    },
    {
      "inputs": [],
      "name": "feedVerifier",
      "outputs": [
        {
          "internalType": "address",
          "name": "",
          "type": "address"
        }
      ],
      "stateMutability": "view",
      "type": "function"
    },
    {
      "inputs": [],
      "name": "futuresManager",
      "outputs": [
        {
          "internalType": "address",
          "name": "",
          "type": "address"
        }
      ],
      "stateMutability": "view",
      "type": "function"
    },
    {
      "inputs": [
        {
          "internalType": "bytes32",
          "name": "role",
          "type": "bytes32"
        }
      ],
      "name": "getRoleAdmin",
      "outputs": [
        {
          "internalType": "bytes32",
          "name": "",
          "type": "bytes32"
        }
      ],
      "stateMutability": "view",
      "type": "function"
    },
    {
      "inputs": [
        {
          "internalType": "bytes32",
          "name": "role",
          "type": "bytes32"
        },
        {
          "internalType": "address",
          "name": "account",
          "type": "address"
        }
      ],
      "name": "grantRole",
      "outputs": [],
      "stateMutability": "nonpayable",
      "type": "function"
    },
    {
      "inputs": [
        {
          "internalType": "bytes32",
          "name": "role",
          "type": "bytes32"
        },
        {
          "internalType": "address",
          "name": "account",
          "type": "address"
        }
      ],
      "name": "hasRole",
      "outputs": [
        {
          "internalType": "bool",
          "name": "",
          "type": "bool"
        }
      ],
      "stateMutability": "view",
      "type": "function"
    },
    {
      "inputs": [
        {
          "internalType": "address",
          "name": "observer_",
          "type": "address"
        }
      ],
      "name": "initialize",
      "outputs": [],
      "stateMutability": "nonpayable",
      "type": "function"
    },
    {
      "inputs": [],
      "name": "insuranceFund",
      "outputs": [
        {
          "internalType": "uint256",
          "name": "shareSupply",
          "type": "uint256"
        },
        {
          "internalType": "uint256",
          "name": "fundValue",
          "type": "uint256"
        }
      ],
      "stateMutability": "view",
      "type": "function"
    },
    {
      "inputs": [],
      "name": "insuranceManager",
      "outputs": [
        {
          "internalType": "address",
          "name": "",
          "type": "address"
        }
      ],
      "stateMutability": "view",
      "type": "function"
    },
    {
      "inputs": [],
      "name": "lastDefaultTimestamp",
      "outputs": [
        {
          "internalType": "uint256",
          "name": "",
          "type": "uint256"
        }
      ],
      "stateMutability": "view",
      "type": "function"
    },
    {
      "inputs": [],
      "name": "lpManager",
      "outputs": [
        {
          "internalType": "address",
          "name": "",
          "type": "address"
        }
      ],
      "stateMutability": "view",
      "type": "function"
    },
    {
      "inputs": [],
      "name": "masterRouter",
      "outputs": [
        {
          "internalType": "address",
          "name": "",
          "type": "address"
        }
      ],
      "stateMutability": "view",
      "type": "function"
    },
    {
      "inputs": [
        {
          "internalType": "bytes[]",
          "name": "data",
          "type": "bytes[]"
        }
      ],
      "name": "multicall",
      "outputs": [
        {
          "internalType": "bytes[]",
          "name": "results",
          "type": "bytes[]"
        }
      ],
      "stateMutability": "nonpayable",
      "type": "function"
    },
    {
      "inputs": [],
      "name": "observer",
      "outputs": [
        {
          "internalType": "address",
          "name": "",
          "type": "address"
        }
      ],
      "stateMutability": "view",
      "type": "function"
    },
    {
      "inputs": [],
      "name": "priceOracle",
      "outputs": [
        {
          "internalType": "address",
          "name": "",
          "type": "address"
        }
      ],
      "stateMutability": "view",
      "type": "function"
    },
    {
      "inputs": [
        {
          "internalType": "uint256",
          "name": "bonusValue",
          "type": "uint256"
        }
      ],
      "name": "receiveLiquidationBonus",
      "outputs": [],
      "stateMutability": "nonpayable",
      "type": "function"
    },
    {
      "inputs": [
        {
          "internalType": "uint256",
          "name": "liquidity",
          "type": "uint256"
        }
      ],
      "name": "removeLiquidity",
      "outputs": [],
      "stateMutability": "nonpayable",
      "type": "function"
    },
    {
      "inputs": [
        {
          "internalType": "bytes32",
          "name": "role",
          "type": "bytes32"
        },
        {
          "internalType": "address",
          "name": "account",
          "type": "address"
        }
      ],
      "name": "renounceRole",
      "outputs": [],
      "stateMutability": "nonpayable",
      "type": "function"
    },
    {
      "inputs": [],
      "name": "requestWithdrawal",
      "outputs": [],
      "stateMutability": "nonpayable",
      "type": "function"
    },
    {
      "inputs": [
        {
          "internalType": "bytes32",
          "name": "role",
          "type": "bytes32"
        },
        {
          "internalType": "address",
          "name": "account",
          "type": "address"
        }
      ],
      "name": "revokeRole",
      "outputs": [],
      "stateMutability": "nonpayable",
      "type": "function"
    },
    {
      "inputs": [
        {
          "internalType": "address",
          "name": "",
          "type": "address"
        }
      ],
      "name": "shares",
      "outputs": [
        {
          "internalType": "uint256",
          "name": "value",
          "type": "uint256"
        },
        {
          "internalType": "uint256",
          "name": "lastDepositTimestamp",
          "type": "uint256"
        },
        {
          "internalType": "uint256",
          "name": "withdrawalRequestTimestamp",
          "type": "uint256"
        }
      ],
      "stateMutability": "view",
      "type": "function"
    },
    {
      "inputs": [
        {
          "internalType": "address",
          "name": "account",
          "type": "address"
        },
        {
          "internalType": "bool",
          "name": "isLp",
          "type": "bool"
        }
      ],
      "name": "subrogation",
      "outputs": [
        {
          "internalType": "bool",
          "name": "_success",
          "type": "bool"
        }
      ],
      "stateMutability": "nonpayable",
      "type": "function"
    },
    {
      "inputs": [
        {
          "internalType": "bytes4",
          "name": "interfaceId",
          "type": "bytes4"
        }
      ],
      "name": "supportsInterface",
      "outputs": [
        {
          "internalType": "bool",
          "name": "",
          "type": "bool"
        }
      ],
      "stateMutability": "view",
      "type": "function"
    },
    {
      "inputs": [
        {
          "internalType": "uint256",
          "name": "WITHDRAW_PENDING_PERIOD_",
          "type": "uint256"
        },
        {
          "internalType": "uint256",
          "name": "WITHDRAW_PERIOD_",
          "type": "uint256"
        }
      ],
      "name": "updateWithdrawalFactors",
      "outputs": [],
      "stateMutability": "nonpayable",
      "type": "function"
    },
    {
      "inputs": [],
      "name": "usdData",
      "outputs": [
        {
          "internalType": "address",
          "name": "tokenAddress",
          "type": "address"
        },
        {
          "internalType": "uint8",
          "name": "decimals",
          "type": "uint8"
        }
      ],
      "stateMutability": "view",
      "type": "function"
    },
    {
      "inputs": [],
      "name": "vault",
      "outputs": [
        {
          "internalType": "address",
          "name": "",
          "type": "address"
        }
      ],
      "stateMutability": "view",
      "type": "function"
    }
  ],
  "bytecode": "0x608060405234801561001057600080fd5b5061001961001e565b6100de565b600054610100900460ff161561008a5760405162461bcd60e51b815260206004820152602760248201527f496e697469616c697a61626c653a20636f6e747261637420697320696e697469604482015266616c697a696e6760c81b606482015260840160405180910390fd5b60005460ff90811610156100dc576000805460ff191660ff9081179091556040519081527f7f26b83ff96e1f2b6a682f133852f6798a09c465da95921460cefb38474024989060200160405180910390a15b565b611bd8806100ed6000396000f3fe608060405234801561001057600080fd5b50600436106102325760003560e01c8063ac9650d811610130578063ce7c2ac2116100b8578063e4dd2dba1161007c578063e4dd2dba14610515578063ea8bd8f714610528578063eb70e49814610531578063f3523fa414610544578063fbfa77cf1461055757600080fd5b8063ce7c2ac21461044a578063d28919d614610494578063d3cc3f56146104a7578063d547741f146104e7578063dbaf2145146104fa57600080fd5b8063b906f15a116100ff578063b906f15a1461040b578063ba5fe6311461041e578063c2c5868a14610426578063c4d66de81461042e578063c4e509f61461044157600080fd5b8063ac9650d8146103a2578063ad5c4648146103c2578063af8e6422146103d5578063b7902303146103e857600080fd5b806359e93967116101be57806391d148541161018257806391d148541461035957806393467b651461036c5780639c8f9f231461037f5780639d8f63b214610392578063a217fddf1461039a57600080fd5b806359e939671461031b5780635e9658d2146103235780638aad9964146103365780638c2296cd146103495780638eb059471461035157600080fd5b80632f2ff15d116102055780632f2ff15d146102d157806336568abe146102e457806343a0bf86146102f757806346b887961461030057806351c6590a1461030857600080fd5b806301ffc9a714610237578063116ce1e01461025f578063248a9ca3146102745780632630c12f146102a6575b600080fd5b61024a610245366004611667565b61056a565b60405190151581526020015b60405180910390f35b61027261026d366004611691565b6105a1565b005b6102986102823660046116b3565b6000908152600160208190526040909120015490565b604051908152602001610256565b6036546102b9906001600160a01b031681565b6040516001600160a01b039091168152602001610256565b6102726102df3660046116e3565b6105f4565b6102726102f23660046116e3565b61061f565b61029860725481565b6102986106a2565b6102726103163660046116b3565b6106d5565b610298610814565b603a546102b9906001600160a01b031681565b6102726103443660046116b3565b610834565b6102986108cb565b6102986108ef565b61024a6103673660046116e3565b610917565b603c546102b9906001600160a01b031681565b61027261038d3660046116b3565b610942565b610298610b13565b610298600081565b6103b56103b036600461170f565b610b33565b60405161025691906117d4565b6035546102b9906001600160a01b031681565b6038546102b9906001600160a01b031681565b6073546074546103f6919082565b60408051928352602083019190915201610256565b6039546102b9906001600160a01b031681565b610298610c28565b610298610c4e565b61027261043c366004611836565b610c73565b61029860705481565b610479610458366004611836565b60756020526000908152604090208054600182015460029092015490919083565b60408051938452602084019290925290820152606001610256565b61024a6104a2366004611851565b610e06565b603d546104c6906001600160a01b03811690600160a01b900460ff1682565b604080516001600160a01b03909316835260ff909116602083015201610256565b6102726104f53660046116e3565b610f70565b61027233600090815260756020526040902042600290910155565b610272610523366004611950565b610f96565b61029860715481565b6034546102b9906001600160a01b031681565b603b546102b9906001600160a01b031681565b6037546102b9906001600160a01b031681565b60006001600160e01b03198216637965db0b60e01b148061059b57506301ffc9a760e01b6001600160e01b03198316145b92915050565b60006105ac816110df565b6070839055607182905560408051848152602081018490527ff888be08703ba712de70a8062073445e485f189e2497d52acbb0c354a0795be3910160405180910390a1505050565b60008281526001602081905260409091200154610610816110df565b61061a83836110ec565b505050565b6001600160a01b03811633146106945760405162461bcd60e51b815260206004820152602f60248201527f416363657373436f6e74726f6c3a2063616e206f6e6c792072656e6f756e636560448201526e103937b632b9903337b91039b2b63360891b60648201526084015b60405180910390fd5b61069e8282611157565b5050565b604051692624a8aaa4a220aa27a960b11b6020820152602a015b6040516020818303038152906040528051906020012081565b604080518082018252603d546001600160a01b03808216808452600160a01b90920460ff166020840152603754935163b12c8ef160e01b815260048101929092523360248301526044820185905291929091169063b12c8ef190606401600060405180830381600087803b15801561074c57600080fd5b505af1158015610760573d6000803e3d6000fd5b505033600090815260756020526040902060725460018201549193501115905061078957600081555b60208201516040516248a43560e41b815260736004820152602481018390526044810185905260ff90911660648201526001608482015273__$e39d53a06a10b720157050fb1ea952246b$__9063048a43509060a40160006040518083038186803b1580156107f757600080fd5b505af415801561080b573d6000803e3d6000fd5b50505050505050565b6040516b282924a1a2afa5a2a2a822a960a11b6020820152602c016106bc565b6039546001600160a01b031633148061085757506038546001600160a01b031633145b6108ae5760405162461bcd60e51b815260206004820152602260248201527f4f6e6c79206d616e616765722063616e2063616c6c207468652066756e63746960448201526137b760f11b606482015260840161068b565b80607360010160008282546108c39190611a31565b909155505050565b6040516f2ba424aa22a624a9aa22a22faaa9a2a960811b60208201526030016106bc565b604051732222a82a242fa320a1aa27a92fa6a0a720a3a2a960611b60208201526034016106bc565b60009182526001602090815260408084206001600160a01b0393909316845291905290205460ff1690565b604080518082018252603d546001600160a01b0381168252600160a01b900460ff166020808301919091523360009081526075909152919091206072546001820154101561099257600090555050565b600060705482600201546109a69190611a31565b905042811080156109c257506071546109bf9082611a31565b42105b610a1a5760405162461bcd60e51b8152602060048201526024808201527f4e6f7420616c6c6f7765642074696d6520746f2072656d6f7665206c697175696044820152636469747960e01b606482015260840161068b565b60208301516040516248a43560e41b815260736004820152602481018490526044810186905260ff90911660648201526000608482015273__$e39d53a06a10b720157050fb1ea952246b$__9063048a43509060a40160006040518083038186803b158015610a8857600080fd5b505af4158015610a9c573d6000803e3d6000fd5b505060375485516040516308fbef2d60e41b81526001600160a01b0391821660048201523360248201526044810189905291169250638fbef2d09150606401600060405180830381600087803b158015610af557600080fd5b505af1158015610b09573d6000803e3d6000fd5b5050505050505050565b6040516b2222a622ab22a920a3a2aaa960a11b6020820152602c016106bc565b60608167ffffffffffffffff811115610b4e57610b4e61188d565b604051908082528060200260200182016040528015610b8157816020015b6060815260200190600190039081610b6c5790505b50905060005b82811015610c2157610bf130858584818110610ba557610ba5611a44565b9050602002810190610bb79190611a5a565b8080601f0160208091040260200160405190810160405280939291908181526020018383808284376000920191909152506111be92505050565b828281518110610c0357610c03611a44565b60200260200101819052508080610c1990611aa8565b915050610b87565b5092915050565b604051712624a6a4aa2fa7a92222a92fa5a2a2a822a960711b60208201526032016106bc565b604051702aa9a2a92faa24a2a92fa6a0a720a3a2a960791b60208201526031016106bc565b600054610100900460ff1615808015610c935750600054600160ff909116105b80610cad5750303b158015610cad575060005460ff166001145b610d105760405162461bcd60e51b815260206004820152602e60248201527f496e697469616c697a61626c653a20636f6e747261637420697320616c72656160448201526d191e481a5b9a5d1a585b1a5e995960921b606482015260840161068b565b6000805460ff191660011790558015610d33576000805461ff0019166101001790555b6001600160a01b038216610d895760405162461bcd60e51b815260206004820152601b60248201527f4f627365727665722073686f756c642062652070726f76696465640000000000604482015260640161068b565b610d946000336111ea565b603480546001600160a01b0319166001600160a01b03841617905562093a80607155621baf80607055801561069e576000805461ff0019169055604051600181527f7f26b83ff96e1f2b6a682f133852f6798a09c465da95921460cefb38474024989060200160405180910390a15050565b60008115610eb1576039546074546040516308f2938b60e21b81526001600160a01b03868116600483015260248201929092529116906323ca4e2c906044016020604051808303816000875af1925050508015610e80575060408051601f3d908101601f19168201909252610e7d91810190611ac1565b60015b610e8c57506000610f4f565b600191508060736001016000828254610ea59190611ada565b90915550610f4f915050565b6038546074546040516308f2938b60e21b81526001600160a01b03868116600483015260248201929092529116906323ca4e2c906044016020604051808303816000875af1925050508015610f23575060408051601f3d908101601f19168201909252610f2091810190611ac1565b60015b610f2f57506000610f4f565b600191508060736001016000828254610f489190611ada565b9091555050505b808015610f5c5750607454155b1561059b5742607255600060735592915050565b60008281526001602081905260409091200154610f8c816110df565b61061a8383611157565b6034546001600160a01b031633146110035760405162461bcd60e51b815260206004820152602a60248201527f416464726573732063616e206265206f6e6c7920696e6a65637465642066726f604482015269369027b139b2b93b32b960b11b606482015260840161068b565b8151603580546001600160a01b039283166001600160a01b0319918216179091556020808501516036805491851691841691909117905560408501516037805491851691841691909117905560808501516038805491851691841691909117905560608501516039805491851691841691909117905560a0850151603a805491851691841691909117905560c0850151603b805491851691841691909117905560e090940151603c8054918416919092161790558151603d8054939094015160ff16600160a01b026001600160a81b0319909316911617179055565b6110e981336111f4565b50565b6110f68282610917565b61069e5760008281526001602081815260408084206001600160a01b0386168086529252808420805460ff19169093179092559051339285917f2f8788117e7eff1d82e926ec794901d17c78024a50270940304540a733656f0d9190a45050565b6111618282610917565b1561069e5760008281526001602090815260408083206001600160a01b0385168085529252808320805460ff1916905551339285917ff6391f5c32d9c69d2a47ea670b442974b53935d1edc7fd64eb21e047a839171b9190a45050565b60606111e38383604051806060016040528060278152602001611b7c60279139611241565b9392505050565b61069e82826110ec565b6111fe8282610917565b61069e5761120b8261131e565b60405160200161121b9190611aed565b60408051601f198184030181529082905262461bcd60e51b825261068b91600401611b4c565b60606001600160a01b0384163b6112a95760405162461bcd60e51b815260206004820152602660248201527f416464726573733a2064656c65676174652063616c6c20746f206e6f6e2d636f6044820152651b9d1c9858dd60d21b606482015260840161068b565b600080856001600160a01b0316856040516112c49190611b5f565b600060405180830381855af49150503d80600081146112ff576040519150601f19603f3d011682016040523d82523d6000602084013e611304565b606091505b509150915061131482828661162e565b9695505050505050565b60608161134657505060408051808201909152600581526420a226a4a760d91b602082015290565b6040516b282924a1a2afa5a2a2a822a960a11b6020820152602c016040516020818303038152906040528051906020012082036113a557505060408051808201909152600c81526b282924a1a2afa5a2a2a822a960a11b602082015290565b604051732222a82a242fa320a1aa27a92fa6a0a720a3a2a960611b60208201526034016040516020818303038152906040528051906020012082036114145750506040805180820190915260148152732222a82a242fa320a1aa27a92fa6a0a720a3a2a960611b602082015290565b604051702aa9a2a92faa24a2a92fa6a0a720a3a2a960791b602082015260310160405160208183030381529060405280519060200120820361147d5750506040805180820190915260118152702aa9a2a92faa24a2a92fa6a0a720a3a2a960791b602082015290565b6040516f2ba424aa22a624a9aa22a22faaa9a2a960811b60208201526030016040516020818303038152906040528051906020012082036114e457505060408051808201909152601081526f2ba424aa22a624a9aa22a22faaa9a2a960811b602082015290565b6040516b2222a622ab22a920a3a2aaa960a11b6020820152602c0160405160208183030381529060405280519060200120820361154357505060408051808201909152600c81526b2222a622ab22a920a3a2aaa960a11b602082015290565b604051692624a8aaa4a220aa27a960b11b6020820152602a0160405160208183030381529060405280519060200120820361159e57505060408051808201909152600a8152692624a8aaa4a220aa27a960b11b602082015290565b604051712624a6a4aa2fa7a92222a92fa5a2a2a822a960711b60208201526032016040516020818303038152906040528051906020012082036116095750506040805180820190915260128152712624a6a4aa2fa7a92222a92fa5a2a2a822a960711b602082015290565b50506040805180820190915260048152634e4f4e4560e01b602082015290565b919050565b6060831561163d5750816111e3565b82511561164d5782518084602001fd5b8160405162461bcd60e51b815260040161068b9190611b4c565b60006020828403121561167957600080fd5b81356001600160e01b0319811681146111e357600080fd5b600080604083850312156116a457600080fd5b50508035926020909101359150565b6000602082840312156116c557600080fd5b5035919050565b80356001600160a01b038116811461162957600080fd5b600080604083850312156116f657600080fd5b82359150611706602084016116cc565b90509250929050565b6000806020838503121561172257600080fd5b823567ffffffffffffffff8082111561173a57600080fd5b818501915085601f83011261174e57600080fd5b81358181111561175d57600080fd5b8660208260051b850101111561177257600080fd5b60209290920196919550909350505050565b60005b8381101561179f578181015183820152602001611787565b50506000910152565b600081518084526117c0816020860160208601611784565b601f01601f19169290920160200192915050565b6000602080830181845280855180835260408601915060408160051b870101925083870160005b8281101561182957603f198886030184526118178583516117a8565b945092850192908501906001016117fb565b5092979650505050505050565b60006020828403121561184857600080fd5b6111e3826116cc565b6000806040838503121561186457600080fd5b61186d836116cc565b91506020830135801515811461188257600080fd5b809150509250929050565b634e487b7160e01b600052604160045260246000fd5b604051610100810167ffffffffffffffff811182821017156118d557634e487b7160e01b600052604160045260246000fd5b60405290565b6000604082840312156118ed57600080fd5b6040516040810181811067ffffffffffffffff8211171561191e57634e487b7160e01b600052604160045260246000fd5b60405290508061192d836116cc565b8152602083013560ff8116811461194357600080fd5b6020919091015292915050565b60008082840361014081121561196557600080fd5b6101008082121561197557600080fd5b61197d6118a3565b9150611988856116cc565b8252611996602086016116cc565b60208301526119a7604086016116cc565b60408301526119b8606086016116cc565b60608301526119c9608086016116cc565b60808301526119da60a086016116cc565b60a08301526119eb60c086016116cc565b60c08301526119fc60e086016116cc565b60e0830152819350611a10868287016118db565b925050509250929050565b634e487b7160e01b600052601160045260246000fd5b8082018082111561059b5761059b611a1b565b634e487b7160e01b600052603260045260246000fd5b6000808335601e19843603018112611a7157600080fd5b83018035915067ffffffffffffffff821115611a8c57600080fd5b602001915036819003821315611aa157600080fd5b9250929050565b600060018201611aba57611aba611a1b565b5060010190565b600060208284031215611ad357600080fd5b5051919050565b8181038181111561059b5761059b611a1b565b7f416363657373436f6e74726f6c3a206163636f756e74206973206d697373696e815261033960f51b602082015260008251611b30816022850160208701611784565b6420726f6c6560d81b6022939091019283015250602701919050565b6020815260006111e360208301846117a8565b60008251611b71818460208701611784565b919091019291505056fe416464726573733a206c6f772d6c6576656c2064656c65676174652063616c6c206661696c6564a264697066735822122044bcb85fc8bb34cfbb7274535df79a7d6600fe3e06b9224c9a8127c936f5054764736f6c63430008130033",
  "linkReferences": {
    "contracts/libraries/logics/InsuranceLogic.sol": {
      "InsuranceLogic": [
        {
          "length": 20,
          "start": 2223
        },
        {
          "length": 20,
          "start": 2880
        }
      ]
    }
  },
  "deployedLinkReferences": {
    "contracts/libraries/logics/InsuranceLogic.sol": {
      "InsuranceLogic": [
        {
          "length": 20,
          "start": 1986
        },
        {
          "length": 20,
          "start": 2643
        }
      ]
    }
  }
}