{
  "_format": "hh-sol-artifact-1",
  "contractName": "LpManager",
  "sourceName": "contracts/core/managers/LpManager.sol",
  "abi": [
    {
      "inputs": [],
      "stateMutability": "nonpayable",
      "type": "constructor"
    },
    {
      "anonymous": false,
      "inputs": [
        {
          "indexed": false,
          "internalType": "address",
          "name": "payor",
          "type": "address"
        },
        {
          "indexed": false,
          "internalType": "address",
          "name": "recipient",
          "type": "address"
        },
        {
          "indexed": true,
          "internalType": "address",
          "name": "user",
          "type": "address"
        },
        {
          "indexed": false,
          "internalType": "address",
          "name": "repayTokenAddress",
          "type": "address"
        },
        {
          "indexed": false,
          "internalType": "address",
          "name": "receiveTokenAddress",
          "type": "address"
        },
        {
          "indexed": false,
          "internalType": "uint256",
          "name": "repayQty",
          "type": "uint256"
        },
        {
          "indexed": false,
          "internalType": "uint256",
          "name": "receiveQty",
          "type": "uint256"
        }
      ],
      "name": "CollateralLiquidation",
      "type": "event"
    },
    {
      "anonymous": false,
      "inputs": [
        {
          "indexed": false,
          "internalType": "uint8",
          "name": "version",
          "type": "uint8"
        }
      ],
      "name": "Initialized",
      "type": "event"
    },
    {
      "anonymous": false,
      "inputs": [
        {
          "indexed": false,
          "internalType": "address",
          "name": "tokenAddress",
          "type": "address"
        },
        {
          "indexed": false,
          "internalType": "uint8",
          "name": "decimals",
          "type": "uint8"
        }
      ],
      "name": "ListUSD",
      "type": "event"
    },
    {
      "anonymous": false,
      "inputs": [
        {
          "indexed": true,
          "internalType": "uint256",
          "name": "txCount",
          "type": "uint256"
        },
        {
          "indexed": true,
          "internalType": "address",
          "name": "user",
          "type": "address"
        },
        {
          "indexed": false,
          "internalType": "uint256",
          "name": "price",
          "type": "uint256"
        },
        {
          "indexed": false,
          "internalType": "uint256",
          "name": "qty",
          "type": "uint256"
        },
        {
          "indexed": false,
          "internalType": "uint256",
          "name": "fee",
          "type": "uint256"
        },
        {
          "indexed": false,
          "internalType": "bool",
          "name": "isBuy",
          "type": "bool"
        }
      ],
      "name": "OrderSettlement",
      "type": "event"
    },
    {
      "anonymous": false,
      "inputs": [
        {
          "indexed": true,
          "internalType": "uint256",
          "name": "txCount",
          "type": "uint256"
        },
        {
          "indexed": true,
          "internalType": "address",
          "name": "user",
          "type": "address"
        },
        {
          "indexed": true,
          "internalType": "address",
          "name": "liquidator",
          "type": "address"
        },
        {
          "indexed": false,
          "internalType": "uint256",
          "name": "insuranceBonus",
          "type": "uint256"
        },
        {
          "indexed": false,
          "internalType": "uint256",
          "name": "liquidatorBonus",
          "type": "uint256"
        }
      ],
      "name": "PayLiquidationBonus",
      "type": "event"
    },
    {
      "anonymous": false,
      "inputs": [
        {
          "indexed": false,
          "internalType": "address",
          "name": "user",
          "type": "address"
        },
        {
          "indexed": false,
          "internalType": "uint256",
          "name": "qty",
          "type": "uint256"
        },
        {
          "indexed": false,
          "internalType": "uint256",
          "name": "price",
          "type": "uint256"
        }
      ],
      "name": "PositionLiquidation",
      "type": "event"
    },
    {
      "anonymous": false,
      "inputs": [
        {
          "indexed": true,
          "internalType": "bytes32",
          "name": "role",
          "type": "bytes32"
        },
        {
          "indexed": true,
          "internalType": "bytes32",
          "name": "previousAdminRole",
          "type": "bytes32"
        },
        {
          "indexed": true,
          "internalType": "bytes32",
          "name": "newAdminRole",
          "type": "bytes32"
        }
      ],
      "name": "RoleAdminChanged",
      "type": "event"
    },
    {
      "anonymous": false,
      "inputs": [
        {
          "indexed": true,
          "internalType": "bytes32",
          "name": "role",
          "type": "bytes32"
        },
        {
          "indexed": true,
          "internalType": "address",
          "name": "account",
          "type": "address"
        },
        {
          "indexed": true,
          "internalType": "address",
          "name": "sender",
          "type": "address"
        }
      ],
      "name": "RoleGranted",
      "type": "event"
    },
    {
      "anonymous": false,
      "inputs": [
        {
          "indexed": true,
          "internalType": "bytes32",
          "name": "role",
          "type": "bytes32"
        },
        {
          "indexed": true,
          "internalType": "address",
          "name": "account",
          "type": "address"
        },
        {
          "indexed": true,
          "internalType": "address",
          "name": "sender",
          "type": "address"
        }
      ],
      "name": "RoleRevoked",
      "type": "event"
    },
    {
      "anonymous": false,
      "inputs": [
        {
          "indexed": false,
          "internalType": "uint8",
          "name": "tier",
          "type": "uint8"
        },
        {
          "indexed": false,
          "internalType": "uint32",
          "name": "rate",
          "type": "uint32"
        }
      ],
      "name": "SetFeeRate",
      "type": "event"
    },
    {
      "anonymous": false,
      "inputs": [
        {
          "indexed": false,
          "internalType": "uint8",
          "name": "tier",
          "type": "uint8"
        },
        {
          "indexed": false,
          "internalType": "uint32",
          "name": "maxLeverage_",
          "type": "uint32"
        }
      ],
      "name": "SetMaxLeverage",
      "type": "event"
    },
    {
      "anonymous": false,
      "inputs": [
        {
          "indexed": false,
          "internalType": "address",
          "name": "tokenAddress",
          "type": "address"
        },
        {
          "indexed": false,
          "internalType": "uint256",
          "name": "parLiqThreshold",
          "type": "uint256"
        },
        {
          "indexed": false,
          "internalType": "uint32",
          "name": "initialWeight",
          "type": "uint32"
        },
        {
          "indexed": false,
          "internalType": "uint32",
          "name": "totalWeight",
          "type": "uint32"
        },
        {
          "indexed": false,
          "internalType": "uint8",
          "name": "decimals",
          "type": "uint8"
        },
        {
          "indexed": false,
          "internalType": "uint32",
          "name": "liquidationBonusRatio",
          "type": "uint32"
        }
      ],
      "name": "SetReserveConfig",
      "type": "event"
    },
    {
      "anonymous": false,
      "inputs": [
        {
          "indexed": false,
          "internalType": "address",
          "name": "tokenAddress",
          "type": "address"
        },
        {
          "indexed": false,
          "internalType": "bool",
          "name": "frozen",
          "type": "bool"
        },
        {
          "indexed": false,
          "internalType": "bool",
          "name": "allowance",
          "type": "bool"
        }
      ],
      "name": "SetReserveStatus",
      "type": "event"
    },
    {
      "anonymous": false,
      "inputs": [
        {
          "indexed": true,
          "internalType": "uint256",
          "name": "txCount",
          "type": "uint256"
        },
        {
          "indexed": true,
          "internalType": "address",
          "name": "user",
          "type": "address"
        },
        {
          "indexed": false,
          "internalType": "uint256",
          "name": "value",
          "type": "uint256"
        }
      ],
      "name": "Subrogation",
      "type": "event"
    },
    {
      "anonymous": false,
      "inputs": [
        {
          "indexed": true,
          "internalType": "uint256",
          "name": "txCount",
          "type": "uint256"
        },
        {
          "indexed": true,
          "internalType": "address",
          "name": "sender",
          "type": "address"
        },
        {
          "indexed": true,
          "internalType": "address",
          "name": "recipient",
          "type": "address"
        },
        {
          "indexed": false,
          "internalType": "address",
          "name": "tokenAddress",
          "type": "address"
        },
        {
          "indexed": false,
          "internalType": "uint256",
          "name": "amount",
          "type": "uint256"
        },
        {
          "indexed": false,
          "internalType": "bool",
          "name": "isDeposit",
          "type": "bool"
        }
      ],
      "name": "TransferCollateral",
      "type": "event"
    },
    {
      "inputs": [],
      "name": "DEFAULT_ADMIN_ROLE",
      "outputs": [
        {
          "internalType": "bytes32",
          "name": "",
          "type": "bytes32"
        }
      ],
      "stateMutability": "view",
      "type": "function"
    },
    {
      "inputs": [],
      "name": "DELEVERAGEUR",
      "outputs": [
        {
          "internalType": "bytes32",
          "name": "",
          "type": "bytes32"
        }
      ],
      "stateMutability": "view",
      "type": "function"
    },
    {
      "inputs": [],
      "name": "DEPTH_FACTOR_MANAGER_ROLE",
      "outputs": [
        {
          "internalType": "bytes32",
          "name": "",
          "type": "bytes32"
        }
      ],
      "stateMutability": "view",
      "type": "function"
    },
    {
      "inputs": [],
      "name": "LIMIT_ORDER_KEEPER",
      "outputs": [
        {
          "internalType": "bytes32",
          "name": "",
          "type": "bytes32"
        }
      ],
      "stateMutability": "view",
      "type": "function"
    },
    {
      "inputs": [],
      "name": "LIQUIDATOR",
      "outputs": [
        {
          "internalType": "bytes32",
          "name": "",
          "type": "bytes32"
        }
      ],
      "stateMutability": "view",
      "type": "function"
    },
    {
      "inputs": [],
      "name": "PRICE_KEEPER",
      "outputs": [
        {
          "internalType": "bytes32",
          "name": "",
          "type": "bytes32"
        }
      ],
      "stateMutability": "view",
      "type": "function"
    },
    {
      "inputs": [],
      "name": "USER_TIER_MANAGER_ROLE",
      "outputs": [
        {
          "internalType": "bytes32",
          "name": "",
          "type": "bytes32"
        }
      ],
      "stateMutability": "view",
      "type": "function"
    },
    {
      "inputs": [],
      "name": "WETH",
      "outputs": [
        {
          "internalType": "address",
          "name": "",
          "type": "address"
        }
      ],
      "stateMutability": "view",
      "type": "function"
    },
    {
      "inputs": [],
      "name": "WHITELISTED_USER",
      "outputs": [
        {
          "internalType": "bytes32",
          "name": "",
          "type": "bytes32"
        }
      ],
      "stateMutability": "view",
      "type": "function"
    },
    {
      "inputs": [
        {
          "internalType": "address",
          "name": "",
          "type": "address"
        }
      ],
      "name": "accounts",
      "outputs": [
        {
          "internalType": "int256",
          "name": "paidValue",
          "type": "int256"
        },
        {
          "components": [
            {
              "internalType": "uint256",
              "name": "data",
              "type": "uint256"
            }
          ],
          "internalType": "struct DataTypes.UserStatusMap",
          "name": "userStatusMap",
          "type": "tuple"
        },
        {
          "components": [
            {
              "internalType": "uint256",
              "name": "data",
              "type": "uint256"
            }
          ],
          "internalType": "struct DataTypes.UserConfigMap",
          "name": "userConfigMap",
          "type": "tuple"
        }
      ],
      "stateMutability": "view",
      "type": "function"
    },
    {
      "inputs": [
        {
          "internalType": "address",
          "name": "sender",
          "type": "address"
        },
        {
          "internalType": "address",
          "name": "user",
          "type": "address"
        },
        {
          "internalType": "address",
          "name": "tokenAddress",
          "type": "address"
        },
        {
          "internalType": "uint256",
          "name": "amount",
          "type": "uint256"
        }
      ],
      "name": "addCollateral",
      "outputs": [],
      "stateMutability": "nonpayable",
      "type": "function"
    },
    {
      "inputs": [
        {
          "components": [
            {
              "internalType": "address",
              "name": "WETH",
              "type": "address"
            },
            {
              "internalType": "address",
              "name": "priceOracle",
              "type": "address"
            },
            {
              "internalType": "address",
              "name": "vault",
              "type": "address"
            },
            {
              "internalType": "address",
              "name": "lpManager",
              "type": "address"
            },
            {
              "internalType": "address",
              "name": "futuresManager",
              "type": "address"
            },
            {
              "internalType": "address",
              "name": "masterRouter",
              "type": "address"
            },
            {
              "internalType": "address",
              "name": "insuranceManager",
              "type": "address"
            },
            {
              "internalType": "address",
              "name": "feedVerifier",
              "type": "address"
            }
          ],
          "internalType": "struct DataTypes.AddressCache",
          "name": "validAddresses_",
          "type": "tuple"
        },
        {
          "components": [
            {
              "internalType": "address",
              "name": "tokenAddress",
              "type": "address"
            },
            {
              "internalType": "uint8",
              "name": "decimals",
              "type": "uint8"
            }
          ],
          "internalType": "struct DataTypes.UsdData",
          "name": "usdData_",
          "type": "tuple"
        }
      ],
      "name": "cacheDatas",
      "outputs": [],
      "stateMutability": "nonpayable",
      "type": "function"
    },
    {
      "inputs": [
        {
          "internalType": "address",
          "name": "",
          "type": "address"
        },
        {
          "internalType": "address",
          "name": "",
          "type": "address"
        }
      ],
      "name": "collaterals",
      "outputs": [
        {
          "internalType": "uint256",
          "name": "",
          "type": "uint256"
        }
      ],
      "stateMutability": "view",
      "type": "function"
    },
    {
      "inputs": [],
      "name": "endReserveId",
      "outputs": [
        {
          "internalType": "uint32",
          "name": "",
          "type": "uint32"
        }
      ],
      "stateMutability": "view",
      "type": "function"
    },
    {
      "inputs": [],
      "name": "entireReserveSummary",
      "outputs": [
        {
          "internalType": "uint256",
          "name": "data",
          "type": "uint256"
        }
      ],
      "stateMutability": "view",
      "type": "function"
    },
    {
      "inputs": [],
      "name": "entryValue",
      "outputs": [
        {
          "internalType": "int256",
          "name": "d",
          "type": "int256"
        }
      ],
      "stateMutability": "view",
      "type": "function"
    },
    {
      "inputs": [],
      "name": "feedVerifier",
      "outputs": [
        {
          "internalType": "address",
          "name": "",
          "type": "address"
        }
      ],
      "stateMutability": "view",
      "type": "function"
    },
    {
      "inputs": [],
      "name": "futuresManager",
      "outputs": [
        {
          "internalType": "address",
          "name": "",
          "type": "address"
        }
      ],
      "stateMutability": "view",
      "type": "function"
    },
    {
      "inputs": [
        {
          "internalType": "address",
          "name": "user",
          "type": "address"
        },
        {
          "internalType": "address",
          "name": "tokenAddress",
          "type": "address"
        }
      ],
      "name": "getBalance",
      "outputs": [
        {
          "internalType": "int256",
          "name": "_value",
          "type": "int256"
        }
      ],
      "stateMutability": "view",
      "type": "function"
    },
    {
      "inputs": [],
      "name": "getLpPoolValue",
      "outputs": [
        {
          "internalType": "int256",
          "name": "_poolValue",
          "type": "int256"
        },
        {
          "internalType": "uint256",
          "name": "_netOI",
          "type": "uint256"
        }
      ],
      "stateMutability": "view",
      "type": "function"
    },
    {
      "inputs": [],
      "name": "getLpPositionPrice",
      "outputs": [
        {
          "internalType": "uint256",
          "name": "_price",
          "type": "uint256"
        }
      ],
      "stateMutability": "view",
      "type": "function"
    },
    {
      "inputs": [
        {
          "internalType": "bytes32",
          "name": "role",
          "type": "bytes32"
        }
      ],
      "name": "getRoleAdmin",
      "outputs": [
        {
          "internalType": "bytes32",
          "name": "",
          "type": "bytes32"
        }
      ],
      "stateMutability": "view",
      "type": "function"
    },
    {
      "inputs": [],
      "name": "globalConfig",
      "outputs": [
        {
          "internalType": "uint256",
          "name": "data",
          "type": "uint256"
        }
      ],
      "stateMutability": "view",
      "type": "function"
    },
    {
      "inputs": [
        {
          "internalType": "bytes32",
          "name": "role",
          "type": "bytes32"
        },
        {
          "internalType": "address",
          "name": "account",
          "type": "address"
        }
      ],
      "name": "grantRole",
      "outputs": [],
      "stateMutability": "nonpayable",
      "type": "function"
    },
    {
      "inputs": [
        {
          "internalType": "bytes32",
          "name": "role",
          "type": "bytes32"
        },
        {
          "internalType": "address",
          "name": "account",
          "type": "address"
        }
      ],
      "name": "hasRole",
      "outputs": [
        {
          "internalType": "bool",
          "name": "",
          "type": "bool"
        }
      ],
      "stateMutability": "view",
      "type": "function"
    },
    {
      "inputs": [
        {
          "internalType": "address",
          "name": "observer_",
          "type": "address"
        }
      ],
      "name": "initialize",
      "outputs": [],
      "stateMutability": "nonpayable",
      "type": "function"
    },
    {
      "inputs": [],
      "name": "insuranceManager",
      "outputs": [
        {
          "internalType": "address",
          "name": "",
          "type": "address"
        }
      ],
      "stateMutability": "view",
      "type": "function"
    },
    {
      "inputs": [
        {
          "internalType": "address",
          "name": "payor",
          "type": "address"
        },
        {
          "internalType": "address",
          "name": "recipient",
          "type": "address"
        },
        {
          "internalType": "address",
          "name": "user",
          "type": "address"
        },
        {
          "internalType": "address",
          "name": "receiveTokenAddress",
          "type": "address"
        },
        {
          "internalType": "uint256",
          "name": "repayQty",
          "type": "uint256"
        }
      ],
      "name": "liquidateCollateral",
      "outputs": [],
      "stateMutability": "nonpayable",
      "type": "function"
    },
    {
      "inputs": [
        {
          "internalType": "address",
          "name": "user",
          "type": "address"
        },
        {
          "internalType": "address",
          "name": "liquidator",
          "type": "address"
        }
      ],
      "name": "liquidatePosition",
      "outputs": [],
      "stateMutability": "nonpayable",
      "type": "function"
    },
    {
      "inputs": [],
      "name": "liquidationConfig",
      "outputs": [
        {
          "internalType": "uint256",
          "name": "data",
          "type": "uint256"
        }
      ],
      "stateMutability": "view",
      "type": "function"
    },
    {
      "inputs": [],
      "name": "lpManager",
      "outputs": [
        {
          "internalType": "address",
          "name": "",
          "type": "address"
        }
      ],
      "stateMutability": "view",
      "type": "function"
    },
    {
      "inputs": [],
      "name": "masterRouter",
      "outputs": [
        {
          "internalType": "address",
          "name": "",
          "type": "address"
        }
      ],
      "stateMutability": "view",
      "type": "function"
    },
    {
      "inputs": [],
      "name": "observer",
      "outputs": [
        {
          "internalType": "address",
          "name": "",
          "type": "address"
        }
      ],
      "stateMutability": "view",
      "type": "function"
    },
    {
      "inputs": [],
      "name": "openInterest",
      "outputs": [
        {
          "internalType": "uint256",
          "name": "d",
          "type": "uint256"
        }
      ],
      "stateMutability": "view",
      "type": "function"
    },
    {
      "inputs": [
        {
          "internalType": "address",
          "name": "",
          "type": "address"
        }
      ],
      "name": "positions",
      "outputs": [
        {
          "internalType": "uint256",
          "name": "qty",
          "type": "uint256"
        }
      ],
      "stateMutability": "view",
      "type": "function"
    },
    {
      "inputs": [],
      "name": "priceOracle",
      "outputs": [
        {
          "internalType": "address",
          "name": "",
          "type": "address"
        }
      ],
      "stateMutability": "view",
      "type": "function"
    },
    {
      "inputs": [
        {
          "internalType": "address",
          "name": "user",
          "type": "address"
        },
        {
          "internalType": "address",
          "name": "recipient",
          "type": "address"
        },
        {
          "internalType": "address",
          "name": "tokenAddress",
          "type": "address"
        },
        {
          "internalType": "uint256",
          "name": "amount",
          "type": "uint256"
        }
      ],
      "name": "removeCollateral",
      "outputs": [],
      "stateMutability": "nonpayable",
      "type": "function"
    },
    {
      "inputs": [
        {
          "internalType": "bytes32",
          "name": "role",
          "type": "bytes32"
        },
        {
          "internalType": "address",
          "name": "account",
          "type": "address"
        }
      ],
      "name": "renounceRole",
      "outputs": [],
      "stateMutability": "nonpayable",
      "type": "function"
    },
    {
      "inputs": [
        {
          "internalType": "uint32",
          "name": "",
          "type": "uint32"
        }
      ],
      "name": "reserveConfigs",
      "outputs": [
        {
          "internalType": "address",
          "name": "tokenAddress",
          "type": "address"
        },
        {
          "components": [
            {
              "internalType": "uint256",
              "name": "data",
              "type": "uint256"
            }
          ],
          "internalType": "struct DataTypes.ReserveConfigMap",
          "name": "data",
          "type": "tuple"
        }
      ],
      "stateMutability": "view",
      "type": "function"
    },
    {
      "inputs": [
        {
          "internalType": "address",
          "name": "",
          "type": "address"
        }
      ],
      "name": "reserveIdMap",
      "outputs": [
        {
          "internalType": "uint32",
          "name": "",
          "type": "uint32"
        }
      ],
      "stateMutability": "view",
      "type": "function"
    },
    {
      "inputs": [
        {
          "internalType": "bytes32",
          "name": "role",
          "type": "bytes32"
        },
        {
          "internalType": "address",
          "name": "account",
          "type": "address"
        }
      ],
      "name": "revokeRole",
      "outputs": [],
      "stateMutability": "nonpayable",
      "type": "function"
    },
    {
      "inputs": [
        {
          "internalType": "uint8",
          "name": "tier",
          "type": "uint8"
        },
        {
          "internalType": "uint32",
          "name": "rate",
          "type": "uint32"
        }
      ],
      "name": "setFeeRate",
      "outputs": [],
      "stateMutability": "nonpayable",
      "type": "function"
    },
    {
      "inputs": [
        {
          "internalType": "uint8",
          "name": "tier",
          "type": "uint8"
        },
        {
          "internalType": "uint32",
          "name": "maxLeverage_",
          "type": "uint32"
        }
      ],
      "name": "setMaxLeverage",
      "outputs": [],
      "stateMutability": "nonpayable",
      "type": "function"
    },
    {
      "inputs": [
        {
          "internalType": "uint32",
          "name": "assetId",
          "type": "uint32"
        },
        {
          "internalType": "address",
          "name": "tokenAddress",
          "type": "address"
        },
        {
          "internalType": "uint256",
          "name": "parLiqThreshold",
          "type": "uint256"
        },
        {
          "internalType": "uint32",
          "name": "initialWeight",
          "type": "uint32"
        },
        {
          "internalType": "uint32",
          "name": "totalWeight",
          "type": "uint32"
        },
        {
          "internalType": "uint32",
          "name": "liquidationBonusRatio",
          "type": "uint32"
        },
        {
          "internalType": "uint8",
          "name": "decimals",
          "type": "uint8"
        }
      ],
      "name": "setReserveConfig",
      "outputs": [],
      "stateMutability": "nonpayable",
      "type": "function"
    },
    {
      "inputs": [
        {
          "internalType": "address",
          "name": "tokenAddress",
          "type": "address"
        },
        {
          "internalType": "bool",
          "name": "frozen",
          "type": "bool"
        },
        {
          "internalType": "bool",
          "name": "allowance",
          "type": "bool"
        }
      ],
      "name": "setReserveStatus",
      "outputs": [],
      "stateMutability": "nonpayable",
      "type": "function"
    },
    {
      "inputs": [
        {
          "internalType": "address",
          "name": "user",
          "type": "address"
        },
        {
          "internalType": "uint8",
          "name": "tier",
          "type": "uint8"
        }
      ],
      "name": "setUserTier",
      "outputs": [],
      "stateMutability": "nonpayable",
      "type": "function"
    },
    {
      "inputs": [
        {
          "components": [
            {
              "internalType": "address",
              "name": "user",
              "type": "address"
            },
            {
              "internalType": "uint256",
              "name": "qty",
              "type": "uint256"
            },
            {
              "internalType": "uint256",
              "name": "price",
              "type": "uint256"
            },
            {
              "internalType": "bool",
              "name": "isBuy",
              "type": "bool"
            }
          ],
          "internalType": "struct DataTypes.LpOrder",
          "name": "requestObject",
          "type": "tuple"
        }
      ],
      "name": "settleOrder",
      "outputs": [],
      "stateMutability": "nonpayable",
      "type": "function"
    },
    {
      "inputs": [
        {
          "internalType": "address",
          "name": "user",
          "type": "address"
        },
        {
          "internalType": "uint256",
          "name": "maxValue",
          "type": "uint256"
        }
      ],
      "name": "subrogation",
      "outputs": [
        {
          "internalType": "uint256",
          "name": "_value",
          "type": "uint256"
        }
      ],
      "stateMutability": "nonpayable",
      "type": "function"
    },
    {
      "inputs": [
        {
          "internalType": "bytes4",
          "name": "interfaceId",
          "type": "bytes4"
        }
      ],
      "name": "supportsInterface",
      "outputs": [
        {
          "internalType": "bool",
          "name": "",
          "type": "bool"
        }
      ],
      "stateMutability": "view",
      "type": "function"
    },
    {
      "inputs": [
        {
          "internalType": "uint8",
          "name": "",
          "type": "uint8"
        }
      ],
      "name": "tierConfigs",
      "outputs": [
        {
          "internalType": "uint256",
          "name": "data",
          "type": "uint256"
        }
      ],
      "stateMutability": "view",
      "type": "function"
    },
    {
      "inputs": [],
      "name": "txCount",
      "outputs": [
        {
          "internalType": "uint256",
          "name": "",
          "type": "uint256"
        }
      ],
      "stateMutability": "view",
      "type": "function"
    },
    {
      "inputs": [],
      "name": "usdData",
      "outputs": [
        {
          "internalType": "address",
          "name": "tokenAddress",
          "type": "address"
        },
        {
          "internalType": "uint8",
          "name": "decimals",
          "type": "uint8"
        }
      ],
      "stateMutability": "view",
      "type": "function"
    },
    {
      "inputs": [],
      "name": "vault",
      "outputs": [
        {
          "internalType": "address",
          "name": "",
          "type": "address"
        }
      ],
      "stateMutability": "view",
      "type": "function"
    }
  ],
  "bytecode": "0x60806040523480156200001157600080fd5b50600180556200002062000026565b620000e8565b600054610100900460ff1615620000935760405162461bcd60e51b815260206004820152602760248201527f496e697469616c697a61626c653a20636f6e747261637420697320696e697469604482015266616c697a696e6760c81b606482015260840160405180910390fd5b60005460ff9081161015620000e6576000805460ff191660ff9081179091556040519081527f7f26b83ff96e1f2b6a682f133852f6798a09c465da95921460cefb38474024989060200160405180910390a15b565b6141ba80620000f86000396000f3fe608060405234801561001057600080fd5b50600436106103275760003560e01c806391d14854116101b8578063c2c5868a11610104578063e4dd2dba116100a2578063f3523fa41161007c578063f3523fa4146107b4578063f5240f22146107c7578063fa5a2e62146107da578063fbfa77cf146107e457600080fd5b8063e4dd2dba14610763578063e51e119e14610776578063eb70e498146107a157600080fd5b8063d3cc3f56116100de578063d3cc3f56146106ea578063d4fac45d1461072a578063d547741f1461073d578063de04dbf91461075057600080fd5b8063c2c5868a146106bc578063c4d66de8146106c4578063d1814f45146106d757600080fd5b8063a217fddf11610171578063ad5c46481161014b578063ad5c46481461067b578063af8e64221461068e578063b906f15a146106a1578063ba5fe631146106b457600080fd5b8063a217fddf14610656578063a7c1abe01461065e578063ad3876bc1461066857600080fd5b806391d14854146105ce57806393467b65146105e15780639cbb4182146105f45780639d8f63b21461061b5780639da9db2a14610623578063a04725c61461064357600080fd5b806355f57510116102775780637151379011610230578063830aa7451161020a578063830aa745146105985780638383a375146105ab5780638c2296cd146105be5780638eb05947146105c657600080fd5b8063715137901461057257806378d9a46e14610585578063809433111461058d57600080fd5b806355f57510146104a7578063586e848f146104c757806359e93967146104da5780635bdec63a146104e25780635e5c06e2146104ff5780635e9658d21461055f57600080fd5b8063248a9ca3116102e45780633184c3fa116102be5780633184c3fa1461042557806336568abe146104835780633c5406871461049657806346b887961461049f57600080fd5b8063248a9ca3146103c45780632630c12f146103e75780632f2ff15d1461041257600080fd5b806301ffc9a71461032c5780630468674b1461035457806306b426eb1461037a578063092674841461038f5780631c580ad5146103a757806323ca4e2c146103b1575b600080fd5b61033f61033a36600461379e565b6107f7565b60405190151581526020015b60405180910390f35b610113546103659063ffffffff1681565b60405163ffffffff909116815260200161034b565b61038d6103883660046137ed565b61082e565b005b60da546103999081565b60405190815260200161034b565b60dc546103999081565b6103996103bf366004613840565b61089c565b6103996103d236600461386c565b60009081526002602052604090206001015490565b606a546103fa906001600160a01b031681565b6040516001600160a01b03909116815260200161034b565b61038d610420366004613885565b6109a2565b6104656104333660046138b5565b61011160209081526000918252604091829020805483519283019093526001015481526001600160a01b039091169082565b604080516001600160a01b039093168352905160208301520161034b565b61038d610491366004613885565b6109cc565b61039960a75481565b610399610a4a565b6103996104b53660046138d0565b60dd6020526000908152604090205481565b61038d6104d53660046138ed565b610a7d565b610399610cf3565b6104ea610d13565b6040805192835260208301919091520161034b565b61054461050d3660046138d0565b60a5602090815260009182526040918290208054835180840185526001830154815284519384019094526002909101548252919083565b6040805193845291516020840152519082015260600161034b565b606e546103fa906001600160a01b031681565b61038d610580366004613929565b610da9565b610399610ee0565b610110546103999081565b61038d6105a6366004613974565b610f92565b61038d6105b9366004613974565b610ff9565b6103996110f1565b610399611115565b61033f6105dc366004613885565b61113d565b6070546103fa906001600160a01b031681565b6103656106023660046138d0565b6101126020526000908152604090205463ffffffff1681565b610399611168565b6103996106313660046139c5565b60356020526000908152604090205481565b61038d6106513660046139e0565b611188565b610399600081565b60a6546103999081565b61038d610676366004613a75565b6111ef565b6069546103fa906001600160a01b031681565b606c546103fa906001600160a01b031681565b606d546103fa906001600160a01b031681565b61039961125d565b610399611283565b61038d6106d23660046138d0565b6112a8565b61038d6106e5366004613acc565b61148b565b607154610709906001600160a01b03811690600160a01b900460ff1682565b604080516001600160a01b03909316835260ff90911660208301520161034b565b6103996107383660046138ed565b6117e3565b61038d61074b366004613885565b61189a565b61038d61075e366004613b30565b6118bf565b61038d610771366004613c1f565b611af2565b6103996107843660046138ed565b60a460209081526000928352604080842090915290825290205481565b6068546103fa906001600160a01b031681565b606f546103fa906001600160a01b031681565b61038d6107d53660046137ed565b611c3b565b60db546103999081565b606b546103fa906001600160a01b031681565b60006001600160e01b03198216637965db0b60e01b148061082857506301ffc9a760e01b6001600160e01b03198316145b92915050565b600061083981611ca0565b60ff831660009081526035602052604090206108559083611cad565b6040805160ff8516815263ffffffff841660208201527fc28272203b77936f9b647b66a39cc7ed1e7ff3856e43143838e9fc258631822b91015b60405180910390a1505050565b606f546000906001600160a01b031633146108f65760405162461bcd60e51b81526020600482015260156024820152742737ba1024b739bab930b731b29026b0b730b3b2b960591b60448201526064015b60405180910390fd5b6001600160a01b038316600090815260dd602052604090205415801561093557506001600160a01b038316600090815260a56020526040902060010154155b6109915760405162461bcd60e51b815260206004820152602760248201527f52656d61696e696e6720706f736974696f6e206f7220636f6c6c61746572616c6044820152662065786973747360c81b60648201526084016108ed565b61099b8383611cd6565b9392505050565b6000828152600260205260409020600101546109bd81611ca0565b6109c78383611dcb565b505050565b6001600160a01b0381163314610a3c5760405162461bcd60e51b815260206004820152602f60248201527f416363657373436f6e74726f6c3a2063616e206f6e6c792072656e6f756e636560448201526e103937b632b9903337b91039b2b63360891b60648201526084016108ed565b610a468282611e51565b5050565b604051692624a8aaa4a220aa27a960b11b6020820152602a015b6040516020818303038152906040528051906020012081565b606e546001600160a01b03163314610aa75760405162461bcd60e51b81526004016108ed90613cec565b600260015403610ac95760405162461bcd60e51b81526004016108ed90613d10565b6002600155610ad6613717565b604080516020810190915260dc548152610aee610ee0565b808352610afe9085906000611eb8565b506040850152610100840181905260e08401829052610b1c91613d5d565b60c0830152612710610b308251613fff1690565b63ffffffff168360400151610b459190613d85565b610b4f9190613db2565b61012083015260c082015160001380610b7057508161012001518260c00151105b610baf5760405162461bcd60e51b815260206004820152601060248201526f4e6f74206c6971756964617461626c6560801b60448201526064016108ed565b81516001600160a01b038516600090815260dd6020526040908190205490516306cbcb5360e11b81526004810192909252602482015260a65460448201528151606482015273__$7c0e78c8a78f7ef37c6895a772dc188c1f$__90630d9796a69060840160c060405180830381865af4158015610c30573d6000803e3d6000fd5b505050506040513d601f19601f82011682018060405250810190610c549190613dc6565b60a08501526080840152606083018181526001600160a01b03861690915251610c7c90612044565b610c90848484608001518560a001516124d9565b60608083015160208082015160409283015183516001600160a01b038a16815292830191909152918101919091527fda56fcf6922177cd97edba27b61cfb3940439a300606e7f46c7e08e00e06face910160405180910390a15050600180555050565b6040516b282924a1a2afa5a2a2a822a960a11b6020820152602c01610a64565b6000806000606c60009054906101000a90046001600160a01b03166001600160a01b0316636f2a14c56040518163ffffffff1660e01b81526004016040805180830381865afa158015610d6a573d6000803e3d6000fd5b505050506040513d601f19601f82011682018060405250810190610d8e9190613e40565b60da54909350909150610da2908290613e64565b9250509091565b6000610db481611ca0565b6001600160a01b0384166000908152610112602052604081205463ffffffff1690819003610e175760405162461bcd60e51b815260206004820152601060248201526f2737ba103634b9ba32b2103a37b5b2b760811b60448201526064016108ed565b63ffffffff808216600090815261011160209081526040918290208251918201909252600190910154815290610e51908290879061260516565b610e5b8185612633565b63ffffffff8083166000818152610111602052604090208351600190910155610e8d9161011091908890889061266016565b604080516001600160a01b038816815286151560208201528515158183015290517fdbc165f13daf43505f955aa92c6a9003aae118536218ae294e81c156c0f39e539181900360600190a1505050505050565b600080610eeb610d13565b5090506000811215610f4b5760405162461bcd60e51b8152602060048201526024808201527f4c697175696469747920706f6f6c2073697a65206d75737420626520706f73696044820152637469766560e01b60648201526084016108ed565b610f8c8115610f5a5781610f66565b610f666012600a613f6f565b60db5415610f765760db54610f81565b610f81600a80613f6f565b6012600a60086126c6565b91505090565b606e546001600160a01b03163314610fbc5760405162461bcd60e51b81526004016108ed90613cec565b600260015403610fde5760405162461bcd60e51b81526004016108ed90613d10565b6002600155610fef84848484612744565b5050600180555050565b606e546001600160a01b031633146110235760405162461bcd60e51b81526004016108ed90613cec565b6002600154036110455760405162461bcd60e51b81526004016108ed90613d10565b60026001556000611054610ee0565b90506000604051806101200160405280876001600160a01b03168152602001866001600160a01b03168152602001856001600160a01b03168152602001848152602001600081526020016000815260200160008152602001600081526020016000151581525090506110c886836001611eb8565b60e085015260c084015260a083015260808201526110e581612966565b50506001805550505050565b6040516f2ba424aa22a624a9aa22a22faaa9a2a960811b6020820152603001610a64565b604051732222a82a242fa320a1aa27a92fa6a0a720a3a2a960611b6020820152603401610a64565b60009182526002602090815260408084206001600160a01b0393909316845291905290205460ff1690565b6040516b2222a622ab22a920a3a2aaa960a11b6020820152602c01610a64565b604051702aa9a2a92faa24a2a92fa6a0a720a3a2a960791b6020820152603101604051602081830303815290604052805190602001206111c781611ca0565b6001600160a01b038316600090815260a5602052604090206109c79060020160ff8416612deb565b606e546001600160a01b031633146112195760405162461bcd60e51b81526004016108ed90613cec565b60026001540361123b5760405162461bcd60e51b81526004016108ed90613d10565b6002600155611248610ee0565b604082015261125681612044565b5060018055565b604051712624a6a4aa2fa7a92222a92fa5a2a2a822a960711b6020820152603201610a64565b604051702aa9a2a92faa24a2a92fa6a0a720a3a2a960791b6020820152603101610a64565b600054600290610100900460ff161580156112ca575060005460ff8083169116105b61132d5760405162461bcd60e51b815260206004820152602e60248201527f496e697469616c697a61626c653a20636f6e747261637420697320616c72656160448201526d191e481a5b9a5d1a585b1a5e995960921b60648201526084016108ed565b6000805461ffff191660ff8316176101001790556001600160a01b0382166113975760405162461bcd60e51b815260206004820152601b60248201527f4f627365727665722073686f756c642062652070726f7669646564000000000060448201526064016108ed565b6113a2600033612e04565b604051732222a82a242fa320a1aa27a92fa6a0a720a3a2a960611b60208201526113e9906034015b604051602081830303815290604052805190602001206000801b612e0e565b604051702aa9a2a92faa24a2a92fa6a0a720a3a2a960791b6020820152611412906031016113ca565b606880546001600160a01b0319166001600160a01b038416179055611435612e59565b610113805463ffffffff191660011790556000805461ff001916905560405160ff821681527f7f26b83ff96e1f2b6a682f133852f6798a09c465da95921460cefb38474024989060200160405180910390a15050565b606e546001600160a01b031633146114b55760405162461bcd60e51b81526004016108ed90613cec565b6002600154036114d75760405162461bcd60e51b81526004016108ed90613d10565b60026001819055506115186040518060c001604052806000815260200160008152602001600081526020016000815260200160008152602001600081525090565b611520610ee0565b81526040805161012081018252600080825260208201819052918101829052606081018290526080810182905260a0810182905260c0810182905260e0810182905261010081019190915261157b8583600001516000611eb8565b60e085015260c084015260a083018190526080830182905261159c91613d5d565b60a083018190526000136115e55760405162461bcd60e51b815260206004820152601060248201526f4e6f74206c6971756964617461626c6560801b60448201526064016108ed565b6040805180820182526071546001600160a01b038082168352600160a01b90910460ff16602080840191909152888216600090815260a482528481209289168152919052919091205473__$378c95d44cb2594dde2af71528d78e22ea$__90637eef6053908690846116568a612ebe565b606a5460405160e087901b6001600160e01b03191681526004810195909552602485019390935281516001600160a01b03908116604486015260209092015160ff1660648501525160848401521660a482015260a65460c482015260e401606060405180830381865af41580156116d1573d6000803e3d6000fd5b505050506040513d601f19601f820116820180604052508101906116f59190613f7e565b60808601526060850152604084018190528151611715918a918991612744565b6060808401516001610100850152908301526001600160a01b03808616604084015280881660208401528616825261174c82612966565b61175e866000856080015160006124d9565b805160408085015160608087015183516001600160a01b038e811682528d811660208301529586169481019490945289851691840191909152608083019190915260a0820152908716907f5809a4167729fb026029dd145b2088c68bdbcfc1d525c16451662ad057482d649060c00160405180910390a2505060018055505050505050565b6071546000906001600160a01b0380841691160361186e576001600160a01b038316600090815260dd602052604081205461181c610ee0565b6118269190613d85565b6001600160a01b038516600090815260a5602052604090205490915061186690611851908390613d5d565b607154601290600160a01b900460ff16612f5f565b915050610828565b506001600160a01b03918216600090815260a46020908152604080832093909416825291909152205490565b6000828152600260205260409020600101546118b581611ca0565b6109c78383611e51565b60006118ca81611ca0565b6001600160a01b03871660009081526101126020908152604080832054815192830190915291815263ffffffff909116908115611949578163ffffffff168a63ffffffff161461191957600080fd5b5063ffffffff8916600090815261011160209081526040918290208251918201909252600190910154815261195d565b6119538185612fb5565b61195d818b612fe9565b6119678188613010565b6119718187613041565b61197b8186613076565b61198581896130af565b60405180604001604052808a6001600160a01b031681526020018281525061011160008c63ffffffff1663ffffffff16815260200190815260200160002060008201518160000160006101000a8154816001600160a01b0302191690836001600160a01b031602179055506020820151816001016000820151816000015550509050508163ffffffff16600003611a7f576001600160a01b038916600090815261011260205260409020805463ffffffff191663ffffffff8c16179055611a63611a508b6001613fac565b6101135463ffffffff91821691166130dd565b610113805463ffffffff191663ffffffff929092169190911790555b604080516001600160a01b038b168152602081018a905263ffffffff89811682840152888116606083015260ff87166080830152871660a082015290517fad752ae8e1d7817ca5a0b179ad20b4b145903136b497b7f918ab376dcffc7b699181900360c00190a150505050505050505050565b6068546001600160a01b03163314611b5f5760405162461bcd60e51b815260206004820152602a60248201527f416464726573732063616e206265206f6e6c7920696e6a65637465642066726f604482015269369027b139b2b93b32b960b11b60648201526084016108ed565b8151606980546001600160a01b039283166001600160a01b031991821617909155602080850151606a80549185169184169190911790556040850151606b80549185169184169190911790556080850151606c80549185169184169190911790556060850151606d805491851691841691909117905560a0850151606e805491851691841691909117905560c0850151606f805491851691841691909117905560e0909401516070805491841691909216179055815160718054939094015160ff16600160a01b026001600160a81b0319909316911617179055565b6000611c4681611ca0565b60ff83166000908152603560205260409020611c6290836130f4565b6040805160ff8516815263ffffffff841660208201527f59705e7bf2088df191c8590334a4687719087358238d888a4b7024338aa4e242910161088f565b611caa8133613127565b50565b613fff8163ffffffff161115611cc257600080fd5b8154613fff191663ffffffff909116179055565b6001600160a01b038216600090815260a56020526040812054818112611d3e5760405162461bcd60e51b815260206004820152601d60248201527f556e61626c6520746f20737562726f676174652075736572206465627400000060448201526064016108ed565b611d5283611d4d836000613e64565b613174565b9150611d5e8282613d5d565b6001600160a01b038516600081815260a56020526040908190209290925560a75491519091907ff897ada4be0369b47bffc013da385b63b0ab01872fdffd24d49cdc90cb4a7f3190611db39086815260200190565b60405180910390a35060a78054600101905592915050565b611dd5828261113d565b610a465760008281526002602090815260408083206001600160a01b03851684529091529020805460ff19166001179055611e0d3390565b6001600160a01b0316816001600160a01b0316837f2f8788117e7eff1d82e926ec794901d17c78024a50270940304540a733656f0d60405160405180910390a45050565b611e5b828261113d565b15610a465760008281526002602090815260408083206001600160a01b0385168085529252808320805460ff1916905551339285917ff6391f5c32d9c69d2a47ea670b442974b53935d1edc7fd64eb21e047a839171b9190a45050565b6001600160a01b03838116600090815260a46020818152604080842060a5909252808420606a5461011354925163c6e8ac2360e01b8152600481019490945261011160248501526001909101546044840152610110546064840152909416608482015263ffffffff9093169083015282151560c48301529081908190819073__$378c95d44cb2594dde2af71528d78e22ea$__9063c6e8ac239060e401602060405180830381865af4158015611f72573d6000803e3d6000fd5b505050506040513d601f19601f82011682018060405250810190611f969190613fc9565b6001600160a01b038816600090815260dd6020526040902054909350611fbd908790613d85565b6001600160a01b038816600090815260a56020526040902054909250611fe4908390613d5d565b9350841561203b576001600160a01b038716600090815260a560209081526040808320815192830190915260020154908190526120239060ff16613183565b9150612037905063ffffffff821684613db2565b9150505b93509350935093565b8060200151600081116120695760405162461bcd60e51b81526004016108ed90613fe2565b6120c460405180610120016040528060008152602001600081526020016000815260200160008152602001600081526020016000815260200160008152602001600063ffffffff168152602001600063ffffffff1681525090565b82516001600160a01b0316600090815260a560209081526040918290208251918201909252600290910154908190526120ff9060ff16613183565b63ffffffff90811661010084015290811660e0830190815284516001600160a01b03908116600090815260a5602090815260409182902093518251633d88308760e11b81526004810195909552885190931660248501528701516044840152860151606483015260608601511515608483015290911660a482015273__$7c0e78c8a78f7ef37c6895a772dc188c1f$__90637b10610e9060c4016040805180830381865af41580156121b5573d6000803e3d6000fd5b505050506040513d601f19601f820116820180604052508101906121d99190613e40565b602083810182905260408085018490528051808301825260a6549081905260608801518251630490284760e51b815260da600482015260248101969096526044860194909452613fff1660648501529115156084840152905173__$7c0e78c8a78f7ef37c6895a772dc188c1f$__9263920508e09260a48083019391928290030181865af415801561226f573d6000803e3d6000fd5b505050506040513d601f19601f820116820180604052508101906122939190613fc9565b60608201819052606b546040516367c8996560e01b815260048101929092526001600160a01b0316906367c8996590602401600060405180830381600087803b1580156122df57600080fd5b505af11580156122f3573d6000803e3d6000fd5b505084516001600160a01b0316600090815260dd6020908152604091829020908701516060880151925163048c87e360e01b8152600481019290925260db60248301526044820152901515606482015273__$7c0e78c8a78f7ef37c6895a772dc188c1f$__925063048c87e3915060840160006040518083038186803b15801561237c57600080fd5b505af4158015612390573d6000803e3d6000fd5b50505050826060015115612455576123b2836000015184604001516001611eb8565b60c0850181905260a0850182905260808501839052838552610100850151604051630ab0acff60e01b8152600481019590955260248501939093526044840191909152606483015263ffffffff16608482015273__$5150062d6c7c55f0b20d6dbc654d586162$__90630ab0acff9060a40160006040518083038186803b15801561243c57600080fd5b505af4158015612450573d6000803e3d6000fd5b505050505b82600001516001600160a01b031660a7547fc1cb973161ae4fb9f0be91f367bb7d115651e6ad1b3fe66b339b45427a174b4485604001518660200151856020015188606001516040516124c39493929190938452602084019290925260408301521515606082015260800190565b60405180910390a3505060a78054600101905550565b6124e38183614009565b6001600160a01b038516600090815260a560205260408120805490919061250b908490613e64565b92505081905550826001600160a01b0316846001600160a01b031660a7547f2e2744886c39daa1cf61d1a27ddf9d9506478ac01ca1ddb468b8bfa654db80f98585604051612563929190918252602082015260400190565b60405180910390a460a780546001019055606f546040516322ab665960e21b8152600481018490526001600160a01b0390911690638aad996490602401600060405180830381600087803b1580156125ba57600080fd5b505af11580156125ce573d6000803e3d6000fd5b505050506001600160a01b038316600090815260a56020526040812080548392906125fa908490613d5d565b909155505050505050565b603881612613576000612616565b60015b8351670100000000000000191660ff9190911690911b1790915250565b603781612641576000612644565b60015b83516680000000000000191660ff9190911690911b1790915250565b60008161266e576000612671565b60015b61267c90600261401c565b8361268857600061268b565b60015b6126959190614038565b60ff1690506126a5846002613d85565b81901b6126b3856002613d85565b8654600390911b19161790945550505050565b6000806126d38385614009565b90508481111561270e57856126e88683614051565b6126f390600a614064565b6126fd9089614070565b61270791906140a0565b915061273a565b6127188186614051565b61272390600a614064565b61272d87896140a0565b61273791906140a0565b91505b5095945050505050565b80600081116127655760405162461bcd60e51b81526004016108ed90613fe2565b606b5460405163b12c8ef160e01b81526001600160a01b0385811660048301528781166024830152604482018590529091169063b12c8ef190606401600060405180830381600087803b1580156127bb57600080fd5b505af11580156127cf573d6000803e3d6000fd5b50506071546001600160a01b038087169116039150612837905057607154612804908390600160a01b900460ff166012612f5f565b6001600160a01b038516600090815260a560205260408120805490919061282c908490613d5d565b909155506128ff9050565b600061284284612ebe565b805190915060371c6003166001146128945760405162461bcd60e51b81526020600482015260156024820152742737ba1030b63637bbb2b21037b910333937bd32b760591b60448201526064016108ed565b6001600160a01b03808616600090815260a460209081526040808320938816835292905290812080548592906128cb908490614009565b909155505080516128fd9060ff166001600160a01b038716600090815260a560205260409020600190810191906131b6565b505b60a754604080516001600160a01b0386811682526020820186905260018284015291518783169392891692917fa3d5016e9d9560e78fb48269f3fa16a3b7588c9485a73dad91f9686221a62c42919081900360600190a4505060a780546001019055505050565b80606001516000811161298b5760405162461bcd60e51b81526004016108ed90613fe2565b6040805160a0810182526000608082018181528252602082018190528183018190526060820152908301516071546001600160a01b03918216911603612a895760608301516071546129e99190600160a01b900460ff166012612f5f565b602080830182905284516001600160a01b0316600090815260a5909152604081208054909190612a1a908490613e64565b90915550506020810151608084018051612a35908390613e64565b905250608083015160001315612a845760405162461bcd60e51b8152602060048201526014602482015273496e73756666696369656e742062616c616e636560601b60448201526064016108ed565b612c12565b612a968360400151612ebe565b815282516001600160a01b03908116600090815260a4602090815260408083208188015190941683529290528190205490820181905260608401511115612b165760405162461bcd60e51b8152602060048201526014602482015273496e73756666696369656e742062616c616e636560601b60448201526064016108ed565b826060015181604001818151612b2c9190614051565b90525060408181015184516001600160a01b03908116600090815260a460209081528482208886015184168352905292832091909155825151606a54612b7692169060ff16613207565b9050836101000151612bd7578151516127109060081c613fff166060860151845151612bae9190859060321c601f16600860126132a6565b612bb89190613d85565b612bc29190613db2565b8460a001818151612bd39190614051565b9052505b8160400151600003612c1057815151612c109060ff1685516001600160a01b0316600090815260a56020526040812060010191906131b6565b505b826101000151612cf85782516001600160a01b0316600090815260a56020908152604091829020825191820190925260029091015490819052612c579060ff16613183565b63ffffffff1660608301819052608085015160a086015160c087015160e0880151604051630ab0acff60e01b81526004810194909452602484019290925260448301526064820152608481019190915273__$5150062d6c7c55f0b20d6dbc654d586162$__9150630ab0acff9060a40160006040518083038186803b158015612cdf57600080fd5b505af4158015612cf3573d6000803e3d6000fd5b505050505b606b546040848101516020860151606087015192516308fbef2d60e41b81526001600160a01b0392831660048201529082166024820152604481019290925290911690638fbef2d090606401600060405180830381600087803b158015612d5e57600080fd5b505af1158015612d72573d6000803e3d6000fd5b505050602080850151855160a7546040808901516060808b015183516001600160a01b03938416815297880152600092870192909252938416955091909216927fa3d5016e9d9560e78fb48269f3fa16a3b7588c9485a73dad91f9686221a62c42910160405180910390a4505060a78054600101905550565b60ff811115612df957600080fd5b815460ff1916179055565b610a468282611dcb565b600082815260026020526040808220600101805490849055905190918391839186917fbd79b86ffe0ab8e8776151514217cd7cacd52c909f66475c3af44e129f0b00ff9190a4505050565b604080516020810190915260008152604080516020810190915260008152612e8281600a61330e565b612e8d816064613331565b612e9a816298968061334c565b805160dc55612eab82612710613331565b612eb78261138861330e565b505160a655565b6040805160208101909152600081526001600160a01b0382166000908152610112602052604081205463ffffffff1690819003612f305760405162461bcd60e51b815260206004820152601060248201526f2737ba103634b9ba32b2103a37b5b2b760811b60448201526064016108ed565b63ffffffff16600090815261011160209081526040918290208251918201909252600190910154815292915050565b6000818310612f8e57612f87612f758484613377565b612f8090600a614064565b8590613383565b905061099b565b612fad612f9b8385613377565b612fa690600a614064565b859061338f565b949350505050565b601f8160ff161115612fc657600080fd5b815160329190911b6703fc00000000000016667c00000000000019909116179052565b60ff8163ffffffff161115612ffd57600080fd5b815160ff191663ffffffff909116179052565b613fff8163ffffffff16111561302557600080fd5b815160089190911b64ffffffff0016623fff0019909116179052565b613fff8163ffffffff16111561305657600080fd5b815160169190911b663fffffffc0000016640fffc0000019909116179052565b613fff8163ffffffff16111561308b57600080fd5b815160249190911b680ffffffff000000000166603fff00000000019909116179052565b641fffffffff8111156130c157600080fd5b81516b3ffffffffe00000000000000191660399190911b179052565b6000818310156130ed578161099b565b5090919050565b613fff8163ffffffff16111561310957600080fd5b8154600e9190911b653fffffffc00016630fffc00019909116179055565b613131828261113d565b610a465761313e8261339b565b60405160200161314e91906140f2565b60408051601f198184030181529082905262461bcd60e51b82526108ed91600401614151565b60008183106130ed578161099b565b60ff166000908152603560209081526040918290208251918201909252905490819052613fff600e82901c811692911690565b6131c1826002613d85565b6131cc906001614009565b816131d85760006131db565b60015b60ff16901b6131eb836002613d85565b6131f6906001614009565b8454600190911b1916179092555050565b60405163f91d443f60e01b81526004810182905260009081906001600160a01b0385169063f91d443f90602401602060405180830381865afa158015613251573d6000803e3d6000fd5b505050506040513d601f19601f820116820180604052508101906132759190613fc9565b90506000613282856136ab565b905080613293836305f5e100613d85565b61329d9190613db2565b95945050505050565b6000806132b38486614009565b90508281106132e5576132c68382614051565b6132d190600a614064565b6132db8789613d85565b6127079190613db2565b6132ef8184614051565b6132fa90600a614064565b6133048789613d85565b6127379190613d85565b613fff81111561331d57600080fd5b8151630fffc0001916600e9190911b179052565b613fff81111561334057600080fd5b8151613fff1916179052565b641fffffffff81111561335e57600080fd5b81516801fffffffff00000001916601c9190911b179052565b600061099b8284614051565b600061099b82846140a0565b600061099b8284614070565b6060816133c357505060408051808201909152600581526420a226a4a760d91b602082015290565b6040516b282924a1a2afa5a2a2a822a960a11b6020820152602c0160405160208183030381529060405280519060200120820361342257505060408051808201909152600c81526b282924a1a2afa5a2a2a822a960a11b602082015290565b604051732222a82a242fa320a1aa27a92fa6a0a720a3a2a960611b60208201526034016040516020818303038152906040528051906020012082036134915750506040805180820190915260148152732222a82a242fa320a1aa27a92fa6a0a720a3a2a960611b602082015290565b604051702aa9a2a92faa24a2a92fa6a0a720a3a2a960791b60208201526031016040516020818303038152906040528051906020012082036134fa5750506040805180820190915260118152702aa9a2a92faa24a2a92fa6a0a720a3a2a960791b602082015290565b6040516f2ba424aa22a624a9aa22a22faaa9a2a960811b602082015260300160405160208183030381529060405280519060200120820361356157505060408051808201909152601081526f2ba424aa22a624a9aa22a22faaa9a2a960811b602082015290565b6040516b2222a622ab22a920a3a2aaa960a11b6020820152602c016040516020818303038152906040528051906020012082036135c057505060408051808201909152600c81526b2222a622ab22a920a3a2aaa960a11b602082015290565b604051692624a8aaa4a220aa27a960b11b6020820152602a0160405160208183030381529060405280519060200120820361361b57505060408051808201909152600a8152692624a8aaa4a220aa27a960b11b602082015290565b604051712624a6a4aa2fa7a92222a92fa5a2a2a822a960711b60208201526032016040516020818303038152906040528051906020012082036136865750506040805180820190915260128152712624a6a4aa2fa7a92222a92fa5a2a2a822a960711b602082015290565b50506040805180820190915260048152634e4f4e4560e01b602082015290565b919050565b60405163f91d443f60e01b8152600060048201819052906001600160a01b0383169063f91d443f90602401602060405180830381865afa1580156136f3573d6000803e3d6000fd5b505050506040513d601f19601f820116820180604052508101906108289190613fc9565b60405180610140016040528060008152602001600081526020016000815260200161376e604051806080016040528060006001600160a01b0316815260200160008152602001600081526020016000151581525090565b81526020016000815260200160008152602001600081526020016000815260200160008152602001600081525090565b6000602082840312156137b057600080fd5b81356001600160e01b03198116811461099b57600080fd5b803560ff811681146136a657600080fd5b803563ffffffff811681146136a657600080fd5b6000806040838503121561380057600080fd5b613809836137c8565b9150613817602084016137d9565b90509250929050565b6001600160a01b0381168114611caa57600080fd5b80356136a681613820565b6000806040838503121561385357600080fd5b823561385e81613820565b946020939093013593505050565b60006020828403121561387e57600080fd5b5035919050565b6000806040838503121561389857600080fd5b8235915060208301356138aa81613820565b809150509250929050565b6000602082840312156138c757600080fd5b61099b826137d9565b6000602082840312156138e257600080fd5b813561099b81613820565b6000806040838503121561390057600080fd5b823561390b81613820565b915060208301356138aa81613820565b8015158114611caa57600080fd5b60008060006060848603121561393e57600080fd5b833561394981613820565b925060208401356139598161391b565b915060408401356139698161391b565b809150509250925092565b6000806000806080858703121561398a57600080fd5b843561399581613820565b935060208501356139a581613820565b925060408501356139b581613820565b9396929550929360600135925050565b6000602082840312156139d757600080fd5b61099b826137c8565b600080604083850312156139f357600080fd5b82356139fe81613820565b9150613817602084016137c8565b6040516080810167ffffffffffffffff81118282101715613a3d57634e487b7160e01b600052604160045260246000fd5b60405290565b604051610100810167ffffffffffffffff81118282101715613a3d57634e487b7160e01b600052604160045260246000fd5b600060808284031215613a8757600080fd5b613a8f613a0c565b8235613a9a81613820565b8082525060208301356020820152604083013560408201526060830135613ac08161391b565b60608201529392505050565b600080600080600060a08688031215613ae457600080fd5b8535613aef81613820565b94506020860135613aff81613820565b93506040860135613b0f81613820565b92506060860135613b1f81613820565b949793965091946080013592915050565b600080600080600080600060e0888a031215613b4b57600080fd5b613b54886137d9565b96506020880135613b6481613820565b955060408801359450613b79606089016137d9565b9350613b87608089016137d9565b9250613b9560a089016137d9565b9150613ba360c089016137c8565b905092959891949750929550565b600060408284031215613bc357600080fd5b6040516040810181811067ffffffffffffffff82111715613bf457634e487b7160e01b600052604160045260246000fd5b6040529050808235613c0581613820565b8152613c13602084016137c8565b60208201525092915050565b600080828403610140811215613c3457600080fd5b61010080821215613c4457600080fd5b613c4c613a43565b91508435613c5981613820565b8252613c6760208601613835565b6020830152613c7860408601613835565b6040830152613c8960608601613835565b6060830152613c9a60808601613835565b6080830152613cab60a08601613835565b60a0830152613cbc60c08601613835565b60c0830152613ccd60e08601613835565b60e0830152819350613ce186828701613bb1565b925050509250929050565b6020808252600a90820152692737ba102937baba32b960b11b604082015260600190565b6020808252601f908201527f5265656e7472616e637947756172643a207265656e7472616e742063616c6c00604082015260600190565b634e487b7160e01b600052601160045260246000fd5b8082018281126000831280158216821582161715613d7d57613d7d613d47565b505092915050565b808202811582820484141761082857610828613d47565b634e487b7160e01b600052601260045260246000fd5b600082613dc157613dc1613d9c565b500490565b600080600083850360c0811215613ddc57600080fd5b6080811215613dea57600080fd5b50613df3613a0c565b8451613dfe81613820565b8082525060208501516020820152604085015160408201526060850151613e248161391b565b6060820152608085015160a09095015190969495509392505050565b60008060408385031215613e5357600080fd5b505080516020909101519092909150565b8181036000831280158383131683831282161715613e8457613e84613d47565b5092915050565b600181815b80851115613ec6578160001904821115613eac57613eac613d47565b80851615613eb957918102915b93841c9390800290613e90565b509250929050565b600082613edd57506001610828565b81613eea57506000610828565b8160018114613f005760028114613f0a57613f26565b6001915050610828565b60ff841115613f1b57613f1b613d47565b50506001821b610828565b5060208310610133831016604e8410600b8410161715613f49575081810a610828565b613f538383613e8b565b8060001904821115613f6757613f67613d47565b029392505050565b600061099b60ff841683613ece565b600080600060608486031215613f9357600080fd5b8351925060208401519150604084015190509250925092565b63ffffffff818116838216019080821115613e8457613e84613d47565b600060208284031215613fdb57600080fd5b5051919050565b6020808252600d908201526c5a65726f207175616e7469747960981b604082015260600190565b8082018082111561082857610828613d47565b60ff8181168382160290811690818114613e8457613e84613d47565b60ff818116838216019081111561082857610828613d47565b8181038181111561082857610828613d47565b600061099b8383613ece565b80820260008212600160ff1b8414161561408c5761408c613d47565b818105831482151761082857610828613d47565b6000826140af576140af613d9c565b600160ff1b8214600019841416156140c9576140c9613d47565b500590565b60005b838110156140e95781810151838201526020016140d1565b50506000910152565b7f416363657373436f6e74726f6c3a206163636f756e74206973206d697373696e815261033960f51b6020820152600082516141358160228501602087016140ce565b6420726f6c6560d81b6022939091019283015250602701919050565b60208152600082518060208401526141708160408501602087016140ce565b601f01601f1916919091016040019291505056fea2646970667358221220f87520a0f9f51a5f13ddda88026bc199611a306e82fa20095f8c07b16bf843ac64736f6c63430008130033",
  "linkReferences": {
    "contracts/libraries/logics/CollateralLogic.sol": {
      "CollateralLogic": [
        {
          "length": 20,
          "start": 5928
        },
        {
          "length": 20,
          "start": 8240
        }
      ]
    },
    "contracts/libraries/logics/LpLogic.sol": {
      "LpLogic": [
        {
          "length": 20,
          "start": 3310
        },
        {
          "length": 20,
          "start": 8820
        },
        {
          "length": 20,
          "start": 9004
        },
        {
          "length": 20,
          "start": 9277
        }
      ]
    },
    "contracts/libraries/logics/ValidationLogic.sol": {
      "ValidationLogic": [
        {
          "length": 20,
          "start": 9471
        },
        {
          "length": 20,
          "start": 11681
        }
      ]
    }
  },
  "deployedLinkReferences": {
    "contracts/libraries/logics/CollateralLogic.sol": {
      "CollateralLogic": [
        {
          "length": 20,
          "start": 5680
        },
        {
          "length": 20,
          "start": 7992
        }
      ]
    },
    "contracts/libraries/logics/LpLogic.sol": {
      "LpLogic": [
        {
          "length": 20,
          "start": 3062
        },
        {
          "length": 20,
          "start": 8572
        },
        {
          "length": 20,
          "start": 8756
        },
        {
          "length": 20,
          "start": 9029
        }
      ]
    },
    "contracts/libraries/logics/ValidationLogic.sol": {
      "ValidationLogic": [
        {
          "length": 20,
          "start": 9223
        },
        {
          "length": 20,
          "start": 11433
        }
      ]
    }
  }
}