{
  "_format": "hh-sol-artifact-1",
  "contractName": "MasterRouter",
  "sourceName": "contracts/core/router/MasterRouter.sol",
  "abi": [
    {
      "inputs": [],
      "stateMutability": "nonpayable",
      "type": "constructor"
    },
    {
      "anonymous": false,
      "inputs": [
        {
          "indexed": false,
          "internalType": "uint256",
          "name": "orderId",
          "type": "uint256"
        }
      ],
      "name": "Deleverage",
      "type": "event"
    },
    {
      "anonymous": false,
      "inputs": [
        {
          "indexed": false,
          "internalType": "uint256",
          "name": "orderId",
          "type": "uint256"
        },
        {
          "indexed": false,
          "internalType": "enum DataTypes.OrderStatus",
          "name": "status",
          "type": "uint8"
        }
      ],
      "name": "FuturesOrderStatus",
      "type": "event"
    },
    {
      "anonymous": false,
      "inputs": [
        {
          "indexed": false,
          "internalType": "uint8",
          "name": "version",
          "type": "uint8"
        }
      ],
      "name": "Initialized",
      "type": "event"
    },
    {
      "anonymous": false,
      "inputs": [
        {
          "indexed": true,
          "internalType": "uint256",
          "name": "makerOrderId",
          "type": "uint256"
        },
        {
          "indexed": false,
          "internalType": "uint256",
          "name": "filled",
          "type": "uint256"
        },
        {
          "indexed": false,
          "internalType": "enum DataTypes.OrderStatus",
          "name": "status",
          "type": "uint8"
        }
      ],
      "name": "LimitOrderUpdate",
      "type": "event"
    },
    {
      "anonymous": false,
      "inputs": [
        {
          "indexed": true,
          "internalType": "address",
          "name": "user",
          "type": "address"
        },
        {
          "indexed": true,
          "internalType": "uint256",
          "name": "orderId",
          "type": "uint256"
        },
        {
          "indexed": false,
          "internalType": "uint256",
          "name": "qty",
          "type": "uint256"
        },
        {
          "indexed": false,
          "internalType": "uint256",
          "name": "price",
          "type": "uint256"
        },
        {
          "indexed": false,
          "internalType": "uint256",
          "name": "unixTimestamp",
          "type": "uint256"
        },
        {
          "indexed": false,
          "internalType": "uint256",
          "name": "slippageTolerance",
          "type": "uint256"
        },
        {
          "indexed": false,
          "internalType": "uint32",
          "name": "marketId",
          "type": "uint32"
        },
        {
          "indexed": false,
          "internalType": "bool",
          "name": "isLong",
          "type": "bool"
        },
        {
          "indexed": true,
          "internalType": "bool",
          "name": "isLimitOrder",
          "type": "bool"
        }
      ],
      "name": "RequestFuturesOrder",
      "type": "event"
    },
    {
      "anonymous": false,
      "inputs": [
        {
          "indexed": true,
          "internalType": "bytes32",
          "name": "role",
          "type": "bytes32"
        },
        {
          "indexed": true,
          "internalType": "bytes32",
          "name": "previousAdminRole",
          "type": "bytes32"
        },
        {
          "indexed": true,
          "internalType": "bytes32",
          "name": "newAdminRole",
          "type": "bytes32"
        }
      ],
      "name": "RoleAdminChanged",
      "type": "event"
    },
    {
      "anonymous": false,
      "inputs": [
        {
          "indexed": true,
          "internalType": "bytes32",
          "name": "role",
          "type": "bytes32"
        },
        {
          "indexed": true,
          "internalType": "address",
          "name": "account",
          "type": "address"
        },
        {
          "indexed": true,
          "internalType": "address",
          "name": "sender",
          "type": "address"
        }
      ],
      "name": "RoleGranted",
      "type": "event"
    },
    {
      "anonymous": false,
      "inputs": [
        {
          "indexed": true,
          "internalType": "bytes32",
          "name": "role",
          "type": "bytes32"
        },
        {
          "indexed": true,
          "internalType": "address",
          "name": "account",
          "type": "address"
        },
        {
          "indexed": true,
          "internalType": "address",
          "name": "sender",
          "type": "address"
        }
      ],
      "name": "RoleRevoked",
      "type": "event"
    },
    {
      "anonymous": false,
      "inputs": [
        {
          "indexed": false,
          "internalType": "uint256",
          "name": "BASE_FEE_",
          "type": "uint256"
        }
      ],
      "name": "SetBaseFee",
      "type": "event"
    },
    {
      "anonymous": false,
      "inputs": [
        {
          "indexed": true,
          "internalType": "address",
          "name": "offChainFeeder",
          "type": "address"
        },
        {
          "indexed": false,
          "internalType": "uint256",
          "name": "indexPrice",
          "type": "uint256"
        },
        {
          "indexed": true,
          "internalType": "uint32",
          "name": "marketId",
          "type": "uint32"
        }
      ],
      "name": "SettleOrders",
      "type": "event"
    },
    {
      "inputs": [],
      "name": "BASE_FEE",
      "outputs": [
        {
          "internalType": "uint256",
          "name": "",
          "type": "uint256"
        }
      ],
      "stateMutability": "view",
      "type": "function"
    },
    {
      "inputs": [],
      "name": "DEFAULT_ADMIN_ROLE",
      "outputs": [
        {
          "internalType": "bytes32",
          "name": "",
          "type": "bytes32"
        }
      ],
      "stateMutability": "view",
      "type": "function"
    },
    {
      "inputs": [],
      "name": "DELEVERAGEUR",
      "outputs": [
        {
          "internalType": "bytes32",
          "name": "",
          "type": "bytes32"
        }
      ],
      "stateMutability": "view",
      "type": "function"
    },
    {
      "inputs": [],
      "name": "DEPTH_FACTOR_MANAGER_ROLE",
      "outputs": [
        {
          "internalType": "bytes32",
          "name": "",
          "type": "bytes32"
        }
      ],
      "stateMutability": "view",
      "type": "function"
    },
    {
      "inputs": [],
      "name": "LIMIT_ORDER_EXPIRATION_SECOND",
      "outputs": [
        {
          "internalType": "uint32",
          "name": "",
          "type": "uint32"
        }
      ],
      "stateMutability": "view",
      "type": "function"
    },
    {
      "inputs": [],
      "name": "LIMIT_ORDER_KEEPER",
      "outputs": [
        {
          "internalType": "bytes32",
          "name": "",
          "type": "bytes32"
        }
      ],
      "stateMutability": "view",
      "type": "function"
    },
    {
      "inputs": [],
      "name": "LIQUIDATOR",
      "outputs": [
        {
          "internalType": "bytes32",
          "name": "",
          "type": "bytes32"
        }
      ],
      "stateMutability": "view",
      "type": "function"
    },
    {
      "inputs": [],
      "name": "MARKET_ORDER_EXPIRATION_SECOND",
      "outputs": [
        {
          "internalType": "uint256",
          "name": "",
          "type": "uint256"
        }
      ],
      "stateMutability": "view",
      "type": "function"
    },
    {
      "inputs": [],
      "name": "PRICE_KEEPER",
      "outputs": [
        {
          "internalType": "bytes32",
          "name": "",
          "type": "bytes32"
        }
      ],
      "stateMutability": "view",
      "type": "function"
    },
    {
      "inputs": [],
      "name": "USER_TIER_MANAGER_ROLE",
      "outputs": [
        {
          "internalType": "bytes32",
          "name": "",
          "type": "bytes32"
        }
      ],
      "stateMutability": "view",
      "type": "function"
    },
    {
      "inputs": [],
      "name": "WETH",
      "outputs": [
        {
          "internalType": "address",
          "name": "",
          "type": "address"
        }
      ],
      "stateMutability": "view",
      "type": "function"
    },
    {
      "inputs": [],
      "name": "WHITELISTED_USER",
      "outputs": [
        {
          "internalType": "bytes32",
          "name": "",
          "type": "bytes32"
        }
      ],
      "stateMutability": "view",
      "type": "function"
    },
    {
      "inputs": [
        {
          "internalType": "address",
          "name": "user",
          "type": "address"
        },
        {
          "internalType": "address",
          "name": "tokenAddress",
          "type": "address"
        },
        {
          "internalType": "uint256",
          "name": "amount",
          "type": "uint256"
        },
        {
          "internalType": "bool",
          "name": "isLP",
          "type": "bool"
        }
      ],
      "name": "addCollateral",
      "outputs": [],
      "stateMutability": "payable",
      "type": "function"
    },
    {
      "inputs": [
        {
          "components": [
            {
              "internalType": "address",
              "name": "WETH",
              "type": "address"
            },
            {
              "internalType": "address",
              "name": "priceOracle",
              "type": "address"
            },
            {
              "internalType": "address",
              "name": "vault",
              "type": "address"
            },
            {
              "internalType": "address",
              "name": "lpManager",
              "type": "address"
            },
            {
              "internalType": "address",
              "name": "futuresManager",
              "type": "address"
            },
            {
              "internalType": "address",
              "name": "masterRouter",
              "type": "address"
            },
            {
              "internalType": "address",
              "name": "insuranceManager",
              "type": "address"
            },
            {
              "internalType": "address",
              "name": "feedVerifier",
              "type": "address"
            }
          ],
          "internalType": "struct DataTypes.AddressCache",
          "name": "validAddresses_",
          "type": "tuple"
        },
        {
          "components": [
            {
              "internalType": "address",
              "name": "tokenAddress",
              "type": "address"
            },
            {
              "internalType": "uint8",
              "name": "decimals",
              "type": "uint8"
            }
          ],
          "internalType": "struct DataTypes.UsdData",
          "name": "usdData_",
          "type": "tuple"
        }
      ],
      "name": "cacheDatas",
      "outputs": [],
      "stateMutability": "nonpayable",
      "type": "function"
    },
    {
      "inputs": [
        {
          "internalType": "uint256",
          "name": "orderId",
          "type": "uint256"
        }
      ],
      "name": "cancelFuturesLimitOrder",
      "outputs": [],
      "stateMutability": "nonpayable",
      "type": "function"
    },
    {
      "inputs": [
        {
          "internalType": "address",
          "name": "user",
          "type": "address"
        },
        {
          "internalType": "uint256",
          "name": "qty",
          "type": "uint256"
        },
        {
          "internalType": "uint32",
          "name": "marketId",
          "type": "uint32"
        }
      ],
      "name": "deleverage",
      "outputs": [
        {
          "internalType": "bool",
          "name": "_success",
          "type": "bool"
        }
      ],
      "stateMutability": "nonpayable",
      "type": "function"
    },
    {
      "inputs": [],
      "name": "feedVerifier",
      "outputs": [
        {
          "internalType": "address",
          "name": "",
          "type": "address"
        }
      ],
      "stateMutability": "view",
      "type": "function"
    },
    {
      "inputs": [
        {
          "internalType": "uint256",
          "name": "",
          "type": "uint256"
        }
      ],
      "name": "futuresLimitOrders",
      "outputs": [
        {
          "internalType": "address",
          "name": "user",
          "type": "address"
        },
        {
          "internalType": "uint256",
          "name": "orderId",
          "type": "uint256"
        },
        {
          "components": [
            {
              "internalType": "uint256",
              "name": "data",
              "type": "uint256"
            }
          ],
          "internalType": "struct DataTypes.FuturesOrderBody",
          "name": "body",
          "type": "tuple"
        }
      ],
      "stateMutability": "view",
      "type": "function"
    },
    {
      "inputs": [],
      "name": "futuresManager",
      "outputs": [
        {
          "internalType": "address",
          "name": "",
          "type": "address"
        }
      ],
      "stateMutability": "view",
      "type": "function"
    },
    {
      "inputs": [
        {
          "internalType": "uint32",
          "name": "",
          "type": "uint32"
        },
        {
          "internalType": "uint256",
          "name": "",
          "type": "uint256"
        }
      ],
      "name": "futuresMarketOrders",
      "outputs": [
        {
          "internalType": "address",
          "name": "user",
          "type": "address"
        },
        {
          "internalType": "uint256",
          "name": "orderId",
          "type": "uint256"
        },
        {
          "components": [
            {
              "internalType": "uint256",
              "name": "data",
              "type": "uint256"
            }
          ],
          "internalType": "struct DataTypes.FuturesOrderBody",
          "name": "body",
          "type": "tuple"
        }
      ],
      "stateMutability": "view",
      "type": "function"
    },
    {
      "inputs": [
        {
          "internalType": "uint32",
          "name": "marketId",
          "type": "uint32"
        },
        {
          "internalType": "uint32",
          "name": "maxSettlementCount",
          "type": "uint32"
        }
      ],
      "name": "getCounter",
      "outputs": [
        {
          "internalType": "bool",
          "name": "_isPending",
          "type": "bool"
        },
        {
          "components": [
            {
              "internalType": "uint32",
              "name": "orderCount",
              "type": "uint32"
            },
            {
              "internalType": "uint32",
              "name": "settlementCount",
              "type": "uint32"
            },
            {
              "internalType": "uint32",
              "name": "maxCount",
              "type": "uint32"
            }
          ],
          "internalType": "struct DataTypes.RouterCounter",
          "name": "_routerCounter",
          "type": "tuple"
        }
      ],
      "stateMutability": "view",
      "type": "function"
    },
    {
      "inputs": [
        {
          "internalType": "bytes32",
          "name": "role",
          "type": "bytes32"
        }
      ],
      "name": "getRoleAdmin",
      "outputs": [
        {
          "internalType": "bytes32",
          "name": "",
          "type": "bytes32"
        }
      ],
      "stateMutability": "view",
      "type": "function"
    },
    {
      "inputs": [
        {
          "internalType": "bytes32",
          "name": "role",
          "type": "bytes32"
        },
        {
          "internalType": "address",
          "name": "account",
          "type": "address"
        }
      ],
      "name": "grantRole",
      "outputs": [],
      "stateMutability": "nonpayable",
      "type": "function"
    },
    {
      "inputs": [
        {
          "internalType": "bytes32",
          "name": "role",
          "type": "bytes32"
        },
        {
          "internalType": "address",
          "name": "account",
          "type": "address"
        }
      ],
      "name": "hasRole",
      "outputs": [
        {
          "internalType": "bool",
          "name": "",
          "type": "bool"
        }
      ],
      "stateMutability": "view",
      "type": "function"
    },
    {
      "inputs": [
        {
          "internalType": "address",
          "name": "observer_",
          "type": "address"
        }
      ],
      "name": "initialize",
      "outputs": [],
      "stateMutability": "nonpayable",
      "type": "function"
    },
    {
      "inputs": [],
      "name": "insuranceManager",
      "outputs": [
        {
          "internalType": "address",
          "name": "",
          "type": "address"
        }
      ],
      "stateMutability": "view",
      "type": "function"
    },
    {
      "inputs": [],
      "name": "lastOrderBlock",
      "outputs": [
        {
          "internalType": "uint256",
          "name": "",
          "type": "uint256"
        }
      ],
      "stateMutability": "view",
      "type": "function"
    },
    {
      "inputs": [
        {
          "internalType": "address",
          "name": "recipient",
          "type": "address"
        },
        {
          "internalType": "address",
          "name": "user",
          "type": "address"
        },
        {
          "internalType": "address",
          "name": "receiveTokenAddress",
          "type": "address"
        },
        {
          "internalType": "uint256",
          "name": "repayQty",
          "type": "uint256"
        },
        {
          "internalType": "bool",
          "name": "isLP",
          "type": "bool"
        }
      ],
      "name": "liquidateCollateral",
      "outputs": [
        {
          "internalType": "bool",
          "name": "_success",
          "type": "bool"
        }
      ],
      "stateMutability": "nonpayable",
      "type": "function"
    },
    {
      "inputs": [
        {
          "internalType": "address",
          "name": "user",
          "type": "address"
        },
        {
          "internalType": "uint32",
          "name": "marketId",
          "type": "uint32"
        }
      ],
      "name": "liquidateFuturesPosition",
      "outputs": [
        {
          "internalType": "bool",
          "name": "_success",
          "type": "bool"
        }
      ],
      "stateMutability": "nonpayable",
      "type": "function"
    },
    {
      "inputs": [
        {
          "internalType": "address",
          "name": "user",
          "type": "address"
        }
      ],
      "name": "liquidateLpPosition",
      "outputs": [
        {
          "internalType": "bool",
          "name": "_success",
          "type": "bool"
        }
      ],
      "stateMutability": "nonpayable",
      "type": "function"
    },
    {
      "inputs": [],
      "name": "lpManager",
      "outputs": [
        {
          "internalType": "address",
          "name": "",
          "type": "address"
        }
      ],
      "stateMutability": "view",
      "type": "function"
    },
    {
      "inputs": [],
      "name": "masterRouter",
      "outputs": [
        {
          "internalType": "address",
          "name": "",
          "type": "address"
        }
      ],
      "stateMutability": "view",
      "type": "function"
    },
    {
      "inputs": [
        {
          "internalType": "bytes[]",
          "name": "data",
          "type": "bytes[]"
        }
      ],
      "name": "multicall",
      "outputs": [
        {
          "internalType": "bytes[]",
          "name": "results",
          "type": "bytes[]"
        }
      ],
      "stateMutability": "nonpayable",
      "type": "function"
    },
    {
      "inputs": [],
      "name": "observer",
      "outputs": [
        {
          "internalType": "address",
          "name": "",
          "type": "address"
        }
      ],
      "stateMutability": "view",
      "type": "function"
    },
    {
      "inputs": [],
      "name": "oldestPendingTimestamp",
      "outputs": [
        {
          "internalType": "uint256",
          "name": "",
          "type": "uint256"
        }
      ],
      "stateMutability": "view",
      "type": "function"
    },
    {
      "inputs": [
        {
          "internalType": "uint256",
          "name": "qty",
          "type": "uint256"
        },
        {
          "internalType": "uint256",
          "name": "price",
          "type": "uint256"
        },
        {
          "internalType": "uint32",
          "name": "marketId",
          "type": "uint32"
        },
        {
          "internalType": "bool",
          "name": "isLong",
          "type": "bool"
        }
      ],
      "name": "openFuturesLimitOrder",
      "outputs": [],
      "stateMutability": "payable",
      "type": "function"
    },
    {
      "inputs": [
        {
          "internalType": "uint256",
          "name": "qty",
          "type": "uint256"
        },
        {
          "internalType": "bool",
          "name": "isBuy",
          "type": "bool"
        }
      ],
      "name": "orderLp",
      "outputs": [],
      "stateMutability": "nonpayable",
      "type": "function"
    },
    {
      "inputs": [],
      "name": "priceOracle",
      "outputs": [
        {
          "internalType": "address",
          "name": "",
          "type": "address"
        }
      ],
      "stateMutability": "view",
      "type": "function"
    },
    {
      "inputs": [
        {
          "internalType": "address",
          "name": "recipient",
          "type": "address"
        },
        {
          "internalType": "address",
          "name": "tokenAddress",
          "type": "address"
        },
        {
          "internalType": "uint256",
          "name": "amount",
          "type": "uint256"
        },
        {
          "internalType": "bool",
          "name": "isLP",
          "type": "bool"
        }
      ],
      "name": "removeCollateral",
      "outputs": [],
      "stateMutability": "nonpayable",
      "type": "function"
    },
    {
      "inputs": [
        {
          "internalType": "bytes32",
          "name": "role",
          "type": "bytes32"
        },
        {
          "internalType": "address",
          "name": "account",
          "type": "address"
        }
      ],
      "name": "renounceRole",
      "outputs": [],
      "stateMutability": "nonpayable",
      "type": "function"
    },
    {
      "inputs": [
        {
          "internalType": "uint256",
          "name": "qty",
          "type": "uint256"
        },
        {
          "internalType": "uint256",
          "name": "slippageTolerance",
          "type": "uint256"
        },
        {
          "internalType": "uint32",
          "name": "marketId",
          "type": "uint32"
        },
        {
          "internalType": "bool",
          "name": "isLong",
          "type": "bool"
        }
      ],
      "name": "requestFuturesMarketOrder",
      "outputs": [],
      "stateMutability": "payable",
      "type": "function"
    },
    {
      "inputs": [
        {
          "internalType": "bytes32",
          "name": "role",
          "type": "bytes32"
        },
        {
          "internalType": "address",
          "name": "account",
          "type": "address"
        }
      ],
      "name": "revokeRole",
      "outputs": [],
      "stateMutability": "nonpayable",
      "type": "function"
    },
    {
      "inputs": [
        {
          "internalType": "uint32",
          "name": "",
          "type": "uint32"
        }
      ],
      "name": "routerCounters",
      "outputs": [
        {
          "internalType": "uint32",
          "name": "orderCount",
          "type": "uint32"
        },
        {
          "internalType": "uint32",
          "name": "settlementCount",
          "type": "uint32"
        },
        {
          "internalType": "uint32",
          "name": "maxCount",
          "type": "uint32"
        }
      ],
      "stateMutability": "view",
      "type": "function"
    },
    {
      "inputs": [
        {
          "internalType": "uint256",
          "name": "BASE_FEE_",
          "type": "uint256"
        }
      ],
      "name": "setBaseFee",
      "outputs": [],
      "stateMutability": "nonpayable",
      "type": "function"
    },
    {
      "inputs": [
        {
          "internalType": "uint256",
          "name": "makerOrderId",
          "type": "uint256"
        },
        {
          "internalType": "uint256",
          "name": "qty",
          "type": "uint256"
        }
      ],
      "name": "settleFuturesLimitOrder",
      "outputs": [],
      "stateMutability": "nonpayable",
      "type": "function"
    },
    {
      "inputs": [
        {
          "internalType": "uint32",
          "name": "marketId",
          "type": "uint32"
        },
        {
          "internalType": "uint256",
          "name": "indexPrice",
          "type": "uint256"
        },
        {
          "components": [
            {
              "internalType": "uint32",
              "name": "orderCount",
              "type": "uint32"
            },
            {
              "internalType": "uint32",
              "name": "settlementCount",
              "type": "uint32"
            },
            {
              "internalType": "uint32",
              "name": "maxCount",
              "type": "uint32"
            }
          ],
          "internalType": "struct DataTypes.RouterCounter",
          "name": "routerCounter",
          "type": "tuple"
        },
        {
          "internalType": "address",
          "name": "keeper",
          "type": "address"
        }
      ],
      "name": "settleOrders",
      "outputs": [],
      "stateMutability": "nonpayable",
      "type": "function"
    },
    {
      "inputs": [
        {
          "internalType": "bytes4",
          "name": "interfaceId",
          "type": "bytes4"
        }
      ],
      "name": "supportsInterface",
      "outputs": [
        {
          "internalType": "bool",
          "name": "",
          "type": "bool"
        }
      ],
      "stateMutability": "view",
      "type": "function"
    },
    {
      "inputs": [],
      "name": "totalOrderCount",
      "outputs": [
        {
          "internalType": "uint256",
          "name": "",
          "type": "uint256"
        }
      ],
      "stateMutability": "view",
      "type": "function"
    },
    {
      "inputs": [],
      "name": "usdData",
      "outputs": [
        {
          "internalType": "address",
          "name": "tokenAddress",
          "type": "address"
        },
        {
          "internalType": "uint8",
          "name": "decimals",
          "type": "uint8"
        }
      ],
      "stateMutability": "view",
      "type": "function"
    },
    {
      "inputs": [],
      "name": "vault",
      "outputs": [
        {
          "internalType": "address",
          "name": "",
          "type": "address"
        }
      ],
      "stateMutability": "view",
      "type": "function"
    },
    {
      "inputs": [],
      "name": "withdrawRemainingBaseFees",
      "outputs": [],
      "stateMutability": "payable",
      "type": "function"
    }
  ],
  "bytecode": "0x60806040523480156200001157600080fd5b50600180556200002062000026565b620000e8565b600054610100900460ff1615620000935760405162461bcd60e51b815260206004820152602760248201527f496e697469616c697a61626c653a20636f6e747261637420697320696e697469604482015266616c697a696e6760c81b606482015260840160405180910390fd5b60005460ff9081161015620000e6576000805460ff191660ff9081179091556040519081527f7f26b83ff96e1f2b6a682f133852f6798a09c465da95921460cefb38474024989060200160405180910390a15b565b613c8080620000f86000396000f3fe6080604052600436106102e45760003560e01c8063920e21bd11610190578063ba5fe631116100dc578063d547741f11610095578063eb70e4981161006f578063eb70e498146109c9578063f3523fa4146109e9578063fb154d5d14610a09578063fbfa77cf14610a1157600080fd5b8063d547741f14610973578063e4dd2dba14610993578063e8748488146109b357600080fd5b8063ba5fe63114610858578063c14ffdb91461086d578063c2c5868a146108de578063c4d66de8146108f3578063d09be38614610913578063d3cc3f561461092657600080fd5b8063ad5c464811610149578063b0f5b86811610123578063b0f5b868146107d8578063b479bb51146107f8578063b6e3320914610818578063b906f15a1461083857600080fd5b8063ad5c464814610746578063ae20396a14610766578063af8e6422146107b857600080fd5b8063920e21bd1461069c57806393467b65146106bc5780639920513a146106dc5780639d8f63b2146106ef578063a217fddf14610704578063ac9650d81461071957600080fd5b8063468606981161024f5780637c0f6916116102085780638d07dbf6116101e25780638d07dbf6146106315780638eabd4fe146106475780638eb059471461066757806391d148541461067c57600080fd5b80637c0f6916146105a657806387a72fce146105fc5780638c2296cd1461061c57600080fd5b8063468606981461049d57806346b88796146104bd578063528668c4146104d257806359e93967146105515780635e9658d2146105665780636490cd551461058657600080fd5b80632958f221116102a15780632958f221146103ea5780632d5fe2fb146103ff5780632f2ff15d1461041557806336568abe146104355780633a28f92f146104555780633d18651e1461048757600080fd5b806301ffc9a7146102e95780630918cf151461031e578063130828bc1461034257806323c2183714610362578063248a9ca3146103825780632630c12f146103b2575b600080fd5b3480156102f557600080fd5b50610309610304366004613350565b610a31565b60405190151581526020015b60405180910390f35b34801561032a57600080fd5b5061033460a55481565b604051908152602001610315565b34801561034e57600080fd5b5061030961035d36600461339f565b610a68565b34801561036e57600080fd5b5061030961037d366004613415565b610b4d565b34801561038e57600080fd5b5061033461039d366004613448565b60009081526002602052604090206001015490565b3480156103be57600080fd5b506037546103d2906001600160a01b031681565b6040516001600160a01b039091168152602001610315565b6103fd6103f8366004613461565b610c1f565b005b34801561040b57600080fd5b5061033460a45481565b34801561042157600080fd5b506103fd6104303660046134a9565b610dde565b34801561044157600080fd5b506103fd6104503660046134a9565b610e08565b34801561046157600080fd5b5060a7546104729063ffffffff1681565b60405163ffffffff9091168152602001610315565b34801561049357600080fd5b5061033460a35481565b3480156104a957600080fd5b506103fd6104b8366004613448565b610e86565b3480156104c957600080fd5b50610334610ee2565b3480156104de57600080fd5b5061052b6104ed3660046134cc565b60a960209081526000928352604080842082529183529181902080546001820154835194850190935260029091015483526001600160a01b03169183565b604080516001600160a01b03909416845260208401929092525190820152606001610315565b34801561055d57600080fd5b50610334610f15565b34801561057257600080fd5b50603b546103d2906001600160a01b031681565b34801561059257600080fd5b506103fd6105a1366004613448565b610f35565b3480156105b257600080fd5b506105c66105c13660046134f6565b610ffb565b604080519215158352815163ffffffff908116602080860191909152830151811684830152910151166060820152608001610315565b34801561060857600080fd5b50610309610617366004613512565b61109d565b34801561062857600080fd5b506103346111a3565b34801561063d57600080fd5b5061033460a85481565b34801561065357600080fd5b506103fd61066236600461354e565b6111c7565b34801561067357600080fd5b5061033461127e565b34801561068857600080fd5b506103096106973660046134a9565b6112a6565b3480156106a857600080fd5b506103096106b7366004613592565b6112d1565b3480156106c857600080fd5b50603d546103d2906001600160a01b031681565b6103fd6106ea366004613461565b611382565b3480156106fb57600080fd5b506103346114e9565b34801561071057600080fd5b50610334600081565b34801561072557600080fd5b506107396107343660046135ad565b611509565b6040516103159190613672565b34801561075257600080fd5b506036546103d2906001600160a01b031681565b34801561077257600080fd5b5061052b610781366004613448565b60aa6020908152600091825260409182902080546001820154845193840190945260029091015482526001600160a01b0316919083565b3480156107c457600080fd5b506039546103d2906001600160a01b031681565b3480156107e457600080fd5b506103fd6107f33660046136d4565b6115f7565b34801561080457600080fd5b506103fd610813366004613744565b611672565b34801561082457600080fd5b506103fd6108333660046137ff565b61182c565b34801561084457600080fd5b50603a546103d2906001600160a01b031681565b34801561086457600080fd5b506103346118c3565b34801561087957600080fd5b506108b761088836600461382f565b60ac6020526000908152604090205463ffffffff808216916401000000008104821691600160401b9091041683565b6040805163ffffffff94851681529284166020840152921691810191909152606001610315565b3480156108ea57600080fd5b506103346118e9565b3480156108ff57600080fd5b506103fd61090e366004613592565b61190e565b6103fd61092136600461354e565b611b87565b34801561093257600080fd5b50603e54610952906001600160a01b03811690600160a01b900460ff1682565b604080516001600160a01b03909316835260ff909116602083015201610315565b34801561097f57600080fd5b506103fd61098e3660046134a9565b611dac565b34801561099f57600080fd5b506103fd6109ae3660046138bf565b611dd1565b3480156109bf57600080fd5b5061033460a65481565b3480156109d557600080fd5b506035546103d2906001600160a01b031681565b3480156109f557600080fd5b50603c546103d2906001600160a01b031681565b6103fd611f1a565b348015610a1d57600080fd5b506038546103d2906001600160a01b031681565b60006001600160e01b03198216637965db0b60e01b1480610a6257506301ffc9a760e01b6001600160e01b03198316145b92915050565b6000600260015403610a955760405162461bcd60e51b8152600401610a8c9061398a565b60405180910390fd5b600260015581610ab0576039546001600160a01b0316610abd565b603a546001600160a01b03165b60405163d1814f4560e01b81523360048201526001600160a01b0388811660248301528781166044830152868116606483015260848201869052919091169063d1814f459060a401600060405180830381600087803b158015610b1f57600080fd5b505af1925050508015610b30575060015b610b3c57506000610b40565b5060015b6001805595945050505050565b604051692624a8aaa4a220aa27a960b11b6020820152600090602a0160405160208183030381529060405280519060200120610b8881611f5d565b60395460a85460405163d5a1c35760e01b81526001600160a01b038781166004830152336024830152604482019290925263ffffffff8616606482015291169063d5a1c35790608401600060405180830381600087803b158015610beb57600080fd5b505af1925050508015610bfc575060015b610c095760009150610c18565b60a88054600190810190915591505b5092915050565b63ffffffff808316600090815260ac60209081526040918290208251606081018452905480851682526401000000008104851692820192909252600160401b90910490921690820152610c73338285611f6a565b84600003610cb65760405162461bcd60e51b815260206004820152601060248201526f16995c9bc81c5d1e481c995c5d595cdd60821b6044820152606401610a8c565b604080516020810190915260008152610ccf8187612141565b610cd98186612168565b610cec8163ffffffff8087169061219616565b610cf681846121b8565b610d0081426121e2565b60408051606080820183523380835260a88054602080860191825285870188815263ffffffff8c8116600081815260a985528a81208d519093168152918452898220985189546001600160a01b039091166001600160a01b031990911617895593516001890155905151600290970196909655915486518d815292830186905242838801529382018b9052608082015287151560a082015293519293919290917ff3e5a936d6fe7d033ba96aa7ad0809c8682032093751035f3ae9587202aa09c9919081900360c00190a4610dd633838661220a565b505050505050565b600082815260026020526040902060010154610df981611f5d565b610e0383836122d5565b505050565b6001600160a01b0381163314610e785760405162461bcd60e51b815260206004820152602f60248201527f416363657373436f6e74726f6c3a2063616e206f6e6c792072656e6f756e636560448201526e103937b632b9903337b91039b2b63360891b6064820152608401610a8c565b610e82828261235b565b5050565b6000610e9181611f5d565b662386f26fc10000821115610ea557600080fd5b60a38290556040518281527f48088f7344150254476b72fd1071b7258bae6f047a065f4e1ea1506f505e49c1906020015b60405180910390a15050565b604051692624a8aaa4a220aa27a960b11b6020820152602a015b6040516020818303038152906040528051906020012081565b6040516b282924a1a2afa5a2a2a822a960a11b6020820152602c01610efc565b600081815260aa60205260409020546001600160a01b03163314610fa75760405162461bcd60e51b8152602060048201526024808201527f556e61626c6520746f2063616e63656c2066757475726573206c696d6974206f604482015263393232b960e11b6064820152608401610a8c565b600081815260aa602052604080822080546001600160a01b031916815560018101839055600290810183905590518392600080516020613c0483398151915292610ff0926139e3565b60405180910390a250565b60408051606080820183526000808352602080840182905292840181905263ffffffff868116825260ac84528482208551938401865254808216845264010000000081048216948401859052600160401b900416938201939093529061107c90611066908590613a0d565b63ffffffff16826000015163ffffffff166123c2565b63ffffffff9081166040830181905260208301519091161094909350915050565b6040516b2222a622ab22a920a3a2aaa960a11b6020820152600090602c01604051602081830303815290604052805190602001206110da81611f5d565b60a8546039546040516363a5c99f60e11b81526001600160a01b038881166004830152602482018890526044820184905263ffffffff871660648301529091169063c74b933e90608401600060405180830381600087803b15801561113e57600080fd5b505af192505050801561114f575060015b61115c576000925061119a565b6040518181527faac1b82de0550284e5b159ea74eb35ebe96b16213dd6994b5b807a18b890bda29060200160405180910390a1600180820160a85592505b50509392505050565b6040516f2ba424aa22a624a9aa22a22faaa9a2a960811b6020820152603001610efc565b6002600154036111e95760405162461bcd60e51b8152600401610a8c9061398a565b600260015580611204576039546001600160a01b0316611211565b603a546001600160a01b03165b6001600160a01b0316638383a375338686866040518563ffffffff1660e01b81526004016112429493929190613a2a565b600060405180830381600087803b15801561125c57600080fd5b505af1158015611270573d6000803e3d6000fd5b505060018055505050505050565b604051732222a82a242fa320a1aa27a92fa6a0a720a3a2a960611b6020820152603401610efc565b60009182526002602090815260408084206001600160a01b0393909316845291905290205460ff1690565b604051692624a8aaa4a220aa27a960b11b6020820152600090602a016040516020818303038152906040528051906020012061130c81611f5d565b603a5460405163586e848f60e01b81526001600160a01b0385811660048301523360248301529091169063586e848f90604401600060405180830381600087803b15801561135957600080fd5b505af192505050801561136a575060015b611377576000915061137c565b600191505b50919050565b836000036113c55760405162461bcd60e51b815260206004820152601060248201526f16995c9bc81c5d1e481c995c5d595cdd60821b6044820152606401610a8c565b6040805160208101909152600081526113de8186612141565b6113e881856123da565b6113fb8163ffffffff8086169061219616565b61140581836121b8565b61140f81426121e2565b61141a81600161240c565b60408051606080820183523380835260a880546020808601828152868801898152600093845260aa835292889020965187546001600160a01b0319166001600160a01b0390911617875551600180880191909155915151600290960195909555905485518b81529485018a9052429585019590955291830188905263ffffffff8716608084015285151560a08401529092917ff3e5a936d6fe7d033ba96aa7ad0809c8682032093751035f3ae9587202aa09c99060c00160405180910390a4505060a880546001019055505050565b6040516b2222a622ab22a920a3a2aaa960a11b6020820152602c01610efc565b60608167ffffffffffffffff811115611524576115246136f6565b60405190808252806020026020018201604052801561155757816020015b60608152602001906001900390816115425790505b50905060005b82811015610c18576115c73085858481811061157b5761157b613a54565b905060200281019061158d9190613a6a565b8080601f01602080910402602001604051908101604052809392919081815260200183838082843760009201919091525061243692505050565b8282815181106115d9576115d9613a54565b602002602001018190525080806115ef90613ab8565b91505061155d565b604051712624a6a4aa2fa7a92222a92fa5a2a2a822a960711b60208201526032016040516020818303038152906040528051906020012061163781611f5d565b6002600154036116595760405162461bcd60e51b8152600401610a8c9061398a565b600260015561166933848461245b565b50506001805550565b6037546001600160a01b031633146116b95760405162461bcd60e51b815260206004820152600a6024820152694e6f74204f7261636c6560b01b6044820152606401610a8c565b6002600154036116db5760405162461bcd60e51b8152600401610a8c9061398a565b600260015560a354602083015160408401510363ffffffff16025b826040015163ffffffff16836020015163ffffffff16101561173d57611727836020015163ffffffff1685876127e3565b60208301805160010163ffffffff1690526116f6565b826020015163ffffffff16836000015163ffffffff16036117855763ffffffff8516600090815260ac6020526040902080546bffffffffffffffffffffffff191690556117c1565b60208381015163ffffffff878116600090815260ac9093526040909220805467ffffffff00000000191664010000000093909216929092021790555b6117cb81476123c2565b90506117d78282612a1e565b8463ffffffff16826001600160a01b03167fa73c473c8a501c98ddfa112c160df63f53acac28775de5bcb36c678f94611f7b8660405161181991815260200190565b60405180910390a3505060018055505050565b603a5460408051608081018252338152602081018581526000828401908152851515606084019081529351632b4e1daf60e21b815292516001600160a01b0390811660048501529151602484015251604483015291511515606482015291169063ad3876bc90608401600060405180830381600087803b1580156118af57600080fd5b505af1158015610dd6573d6000803e3d6000fd5b604051712624a6a4aa2fa7a92222a92fa5a2a2a822a960711b6020820152603201610efc565b604051702aa9a2a92faa24a2a92fa6a0a720a3a2a960791b6020820152603101610efc565b600054610100900460ff161580801561192e5750600054600160ff909116105b806119485750303b158015611948575060005460ff166001145b6119ab5760405162461bcd60e51b815260206004820152602e60248201527f496e697469616c697a61626c653a20636f6e747261637420697320616c72656160448201526d191e481a5b9a5d1a585b1a5e995960921b6064820152608401610a8c565b6000805460ff1916600117905580156119ce576000805461ff0019166101001790555b6001600160a01b038216611a245760405162461bcd60e51b815260206004820152601b60248201527f4f627365727665722073686f756c642062652070726f766964656400000000006044820152606401610a8c565b611a2f600033612b37565b6040516b282924a1a2afa5a2a2a822a960a11b6020820152611a6e90602c015b604051602081830303815290604052805190602001206000801b612b41565b6040516f2ba424aa22a624a9aa22a22faaa9a2a960811b6020820152611a9690603001611a4f565b6040516b2222a622ab22a920a3a2aaa960a11b6020820152611aba90602c01611a4f565b604051692624a8aaa4a220aa27a960b11b6020820152611adc90602a01611a4f565b604051712624a6a4aa2fa7a92222a92fa5a2a2a822a960711b6020820152611b0690603201611a4f565b603c60a6556602d79883d2000060a355603580546001600160a01b0384166001600160a01b031990911617905560a7805463ffffffff191662093a801790558015610e82576000805461ff0019169055604051600181527f7f26b83ff96e1f2b6a682f133852f6798a09c465da95921460cefb384740249890602001610ed6565b600260015403611ba95760405162461bcd60e51b8152600401610a8c9061398a565b600260015534151582151503611bf15760405162461bcd60e51b815260206004820152600d60248201526c125b9d985b1a59081a5b9c1d5d609a1b6044820152606401610a8c565b3415611d4e576036546001600160a01b03848116911614611c545760405162461bcd60e51b815260206004820152601d60248201527f4f6e6c792057455448206465706f73697461626c6520766961204554480000006044820152606401610a8c565b826001600160a01b031663d0e30db0346040518263ffffffff1660e01b81526004016000604051808303818588803b158015611c8f57600080fd5b505af1158015611ca3573d6000803e3d6000fd5b5050603854611cc393506001600160a01b03878116935016905034612b8c565b80611cd9576039546001600160a01b0316611ce6565b603a546001600160a01b03165b6001600160a01b031663830aa745308686346040518563ffffffff1660e01b8152600401611d179493929190613a2a565b600060405180830381600087803b158015611d3157600080fd5b505af1158015611d45573d6000803e3d6000fd5b50505050611da2565b80611d64576039546001600160a01b0316611d71565b603a546001600160a01b03165b6001600160a01b031663830aa745338686866040518563ffffffff1660e01b81526004016112429493929190613a2a565b5050600180555050565b600082815260026020526040902060010154611dc781611f5d565b610e03838361235b565b6035546001600160a01b03163314611e3e5760405162461bcd60e51b815260206004820152602a60248201527f416464726573732063616e206265206f6e6c7920696e6a65637465642066726f604482015269369027b139b2b93b32b960b11b6064820152608401610a8c565b8151603680546001600160a01b039283166001600160a01b031991821617909155602080850151603780549185169184169190911790556040850151603880549185169184169190911790556080850151603980549185169184169190911790556060850151603a805491851691841691909117905560a0850151603b805491851691841691909117905560c0850151603c805491851691841691909117905560e090940151603d8054918416919092161790558151603e8054939094015160ff16600160a01b026001600160a81b0319909316911617179055565b6000611f2581611f5d565b600260015403611f475760405162461bcd60e51b8152600401610a8c9061398a565b6002600155611f563347612a1e565b5060018055565b611f678133612cc3565b50565b4360a45414158015611f8f5750816020015163ffffffff16826000015163ffffffff16115b8015611fa0575060a65460a5540142115b15611ff95760405162461bcd60e51b8152602060048201526024808201527f507265636564696e67207265717565737473206e6f74207965742070726f63656044820152631959195960e21b6064820152608401610a8c565b6064826020015183600001510363ffffffff16111561205a5760405162461bcd60e51b815260206004820181905260248201527f4d61782070656e64696e67206f7264657220636f756e742065786365656465646044820152606401610a8c565b6001600160a01b038316600090815260ab6020908152604080832063ffffffff8516845290915290205460ff16156120de5760405162461bcd60e51b815260206004820152602160248201527f52617465206c696d697420657863656564656420617420746865206d61726b656044820152601d60fa1b6064820152608401610a8c565b60a354341015610e035760405162461bcd60e51b815260206004820152602860248201527f4e65656420746f2073656e6420626173652066656520666f72207468652073656044820152671d1d1b195b595b9d60c21b6064820152608401610a8c565b6701ffffffffffffff81111561215657600080fd5b81516701ffffffffffffff1916179052565b663fffffffffffff81111561217c57600080fd5b8151663fffffffffffff606f1b1916606f9190911b179052565b60ff8111156121a457600080fd5b815160ff60a51b191660a59190911b179052565b60ad816121c65760006121c9565b60015b8351600160ad1b191660ff9190911690911b1790915250565b63ffffffff8111156121f357600080fd5b815163ffffffff60af1b191660af9190911b179052565b4360a4556020820151825163ffffffff918216911603612229574260a5555b63ffffffff808216600090815260ac602052604081208054909261224d9116613ad1565b91906101000a81548163ffffffff021916908363ffffffff16021790555060a86000815461227a90613ab8565b909155506001600160a01b038316600090815260ab6020908152604080832063ffffffff85168452909152812080549091906122b89060ff16613af4565b91906101000a81548160ff021916908360ff160217905550505050565b6122df82826112a6565b610e825760008281526002602090815260408083206001600160a01b03851684529091529020805460ff191660011790556123173390565b6001600160a01b0316816001600160a01b0316837f2f8788117e7eff1d82e926ec794901d17c78024a50270940304540a733656f0d60405160405180910390a45050565b61236582826112a6565b15610e825760008281526002602090815260408083206001600160a01b0385168085529252808320805460ff1916905551339285917ff6391f5c32d9c69d2a47ea670b442974b53935d1edc7fd64eb21e047a839171b9190a45050565b60008183106123d157816123d3565b825b9392505050565b663fffffffffffff8111156123ee57600080fd5b81516d7ffffffffffffe00000000000000191660399190911b179052565b60ae8161241a57600061241d565b60015b8351600160ae1b191660ff9190911690911b1790915250565b60606123d38383604051806060016040528060278152602001613c2460279139612d10565b600082815260aa6020908152604091829020825160608101845281546001600160a01b039081168252600183015482850152845193840185526002909201548352928301919091528151166124e95760405162461bcd60e51b81526020600482015260146024820152734f7264657220646f65736e27742065786973747360601b6044820152606401610a8c565b60a754604082015151429163ffffffff9081169160af1c1601101561256057600083815260aa602052604080822080546001600160a01b031916815560018101839055600201829055518491600080516020613c048339815191529161255291906004906139e3565b60405180910390a250505050565b80516001600160a01b038086169116036125bc5760405162461bcd60e51b815260206004820152601760248201527f43726f73732074726164696e6720756e616c6c6f7765640000000000000000006044820152606401610a8c565b60006125d48260400151516701ffffffffffffff1690565b90506125e081846123c2565b60408301519093506125f29084612141565b6000612608836040015151600160ad1b16151590565b6039549091506001600160a01b031663b0a57bb482612627578661262b565b60a8545b836126385760a85461263a565b875b84612646578651612648565b895b85612653578a612656565b87515b6040808a015190516001600160e01b031960e088901b168152600481019590955260248501939093526001600160a01b03918216604485015216606483015251608482015260a401600060405180830381600087803b1580156126b857600080fd5b505af19250505080156126c9575060015b61272757600085815260aa602052604080822080546001600160a01b031916815560018101839055600201829055518691600080516020613c048339815191529161271791906003906139e3565b60405180910390a2505050505050565b60a8805460010190559083900390600082900361279757600085815260aa602052604080822080546001600160a01b03191681556001808201849055600290910192909255518691600080516020613c048339815191529161278a9188916139e3565b60405180910390a2610dd6565b60408301516127a69083612141565b604080840151600087815260aa602052828120915160029092019190915590518691600080516020613c04833981519152916127179188916139e3565b63ffffffff818116600090815260a960209081526040808320878452825291829020825160608101845281546001600160a01b0316815260018201548184015283519283018452600290910154825291820181905260a6549051919261284c9260af1c16613b13565b4210612895577f9f5b287fd31d2c71ffca55f9503ceda5f9cd212329cdcbb948702a3af7cdbbb7816020015160036040516128889291906139e3565b60405180910390a1612983565b60395460408051634b22086f60e11b815283516001600160a01b03908116600483015260208501516024830152918401515160448201526064810186905291169063964410de90608401600060405180830381600087803b1580156128f957600080fd5b505af192505050801561290a575060015b612944577f9f5b287fd31d2c71ffca55f9503ceda5f9cd212329cdcbb948702a3af7cdbbb7816020015160036040516128889291906139e3565b7f9f5b287fd31d2c71ffca55f9503ceda5f9cd212329cdcbb948702a3af7cdbbb78160200151600160405161297a9291906139e3565b60405180910390a15b80516001600160a01b0316600090815260ab6020908152604080832063ffffffff8616845290915281208054600192906129c190849060ff16613b26565b825460ff9182166101009390930a9283029190920219909116179055505063ffffffff16600090815260a96020908152604080832094835293905291822080546001600160a01b0319168155600181018390556002019190915550565b80471015612a6e5760405162461bcd60e51b815260206004820152601d60248201527f416464726573733a20696e73756666696369656e742062616c616e63650000006044820152606401610a8c565b6000826001600160a01b03168260405160006040518083038185875af1925050503d8060008114612abb576040519150601f19603f3d011682016040523d82523d6000602084013e612ac0565b606091505b5050905080610e035760405162461bcd60e51b815260206004820152603a60248201527f416464726573733a20756e61626c6520746f2073656e642076616c75652c207260448201527f6563697069656e74206d617920686176652072657665727465640000000000006064820152608401610a8c565b610e8282826122d5565b600082815260026020526040808220600101805490849055905190918391839186917fbd79b86ffe0ab8e8776151514217cd7cacd52c909f66475c3af44e129f0b00ff9190a4505050565b801580612c065750604051636eb1769f60e11b81523060048201526001600160a01b03838116602483015284169063dd62ed3e90604401602060405180830381865afa158015612be0573d6000803e3d6000fd5b505050506040513d601f19601f82011682018060405250810190612c049190613b3f565b155b612c715760405162461bcd60e51b815260206004820152603660248201527f5361666545524332303a20617070726f76652066726f6d206e6f6e2d7a65726f60448201527520746f206e6f6e2d7a65726f20616c6c6f77616e636560501b6064820152608401610a8c565b604080516001600160a01b038416602482015260448082018490528251808303909101815260649091019091526020810180516001600160e01b031663095ea7b360e01b179052610e03908490612ded565b612ccd82826112a6565b610e8257612cda82612ebf565b604051602001612cea9190613b58565b60408051601f198184030181529082905262461bcd60e51b8252610a8c91600401613bb7565b60606001600160a01b0384163b612d785760405162461bcd60e51b815260206004820152602660248201527f416464726573733a2064656c65676174652063616c6c20746f206e6f6e2d636f6044820152651b9d1c9858dd60d21b6064820152608401610a8c565b600080856001600160a01b031685604051612d939190613bca565b600060405180830381855af49150503d8060008114612dce576040519150601f19603f3d011682016040523d82523d6000602084013e612dd3565b606091505b5091509150612de38282866131cf565b9695505050505050565b6000612e42826040518060400160405280602081526020017f5361666545524332303a206c6f772d6c6576656c2063616c6c206661696c6564815250856001600160a01b03166132089092919063ffffffff16565b805190915015610e035780806020019051810190612e609190613be6565b610e035760405162461bcd60e51b815260206004820152602a60248201527f5361666545524332303a204552433230206f7065726174696f6e20646964206e6044820152691bdd081cdd58d8d9595960b21b6064820152608401610a8c565b606081612ee757505060408051808201909152600581526420a226a4a760d91b602082015290565b6040516b282924a1a2afa5a2a2a822a960a11b6020820152602c01604051602081830303815290604052805190602001208203612f4657505060408051808201909152600c81526b282924a1a2afa5a2a2a822a960a11b602082015290565b604051732222a82a242fa320a1aa27a92fa6a0a720a3a2a960611b6020820152603401604051602081830303815290604052805190602001208203612fb55750506040805180820190915260148152732222a82a242fa320a1aa27a92fa6a0a720a3a2a960611b602082015290565b604051702aa9a2a92faa24a2a92fa6a0a720a3a2a960791b602082015260310160405160208183030381529060405280519060200120820361301e5750506040805180820190915260118152702aa9a2a92faa24a2a92fa6a0a720a3a2a960791b602082015290565b6040516f2ba424aa22a624a9aa22a22faaa9a2a960811b602082015260300160405160208183030381529060405280519060200120820361308557505060408051808201909152601081526f2ba424aa22a624a9aa22a22faaa9a2a960811b602082015290565b6040516b2222a622ab22a920a3a2aaa960a11b6020820152602c016040516020818303038152906040528051906020012082036130e457505060408051808201909152600c81526b2222a622ab22a920a3a2aaa960a11b602082015290565b604051692624a8aaa4a220aa27a960b11b6020820152602a0160405160208183030381529060405280519060200120820361313f57505060408051808201909152600a8152692624a8aaa4a220aa27a960b11b602082015290565b604051712624a6a4aa2fa7a92222a92fa5a2a2a822a960711b60208201526032016040516020818303038152906040528051906020012082036131aa5750506040805180820190915260128152712624a6a4aa2fa7a92222a92fa5a2a2a822a960711b602082015290565b50506040805180820190915260048152634e4f4e4560e01b602082015290565b919050565b606083156131de5750816123d3565b8251156131ee5782518084602001fd5b8160405162461bcd60e51b8152600401610a8c9190613bb7565b6060613217848460008561321f565b949350505050565b6060824710156132805760405162461bcd60e51b815260206004820152602660248201527f416464726573733a20696e73756666696369656e742062616c616e636520666f6044820152651c8818d85b1b60d21b6064820152608401610a8c565b6001600160a01b0385163b6132d75760405162461bcd60e51b815260206004820152601d60248201527f416464726573733a2063616c6c20746f206e6f6e2d636f6e74726163740000006044820152606401610a8c565b600080866001600160a01b031685876040516132f39190613bca565b60006040518083038185875af1925050503d8060008114613330576040519150601f19603f3d011682016040523d82523d6000602084013e613335565b606091505b50915091506133458282866131cf565b979650505050505050565b60006020828403121561336257600080fd5b81356001600160e01b0319811681146123d357600080fd5b80356001600160a01b03811681146131ca57600080fd5b8015158114611f6757600080fd5b600080600080600060a086880312156133b757600080fd5b6133c08661337a565b94506133ce6020870161337a565b93506133dc6040870161337a565b92506060860135915060808601356133f381613391565b809150509295509295909350565b803563ffffffff811681146131ca57600080fd5b6000806040838503121561342857600080fd5b6134318361337a565b915061343f60208401613401565b90509250929050565b60006020828403121561345a57600080fd5b5035919050565b6000806000806080858703121561347757600080fd5b843593506020850135925061348e60408601613401565b9150606085013561349e81613391565b939692955090935050565b600080604083850312156134bc57600080fd5b8235915061343f6020840161337a565b600080604083850312156134df57600080fd5b6134e883613401565b946020939093013593505050565b6000806040838503121561350957600080fd5b61343183613401565b60008060006060848603121561352757600080fd5b6135308461337a565b92506020840135915061354560408501613401565b90509250925092565b6000806000806080858703121561356457600080fd5b61356d8561337a565b935061357b6020860161337a565b925060408501359150606085013561349e81613391565b6000602082840312156135a457600080fd5b6123d38261337a565b600080602083850312156135c057600080fd5b823567ffffffffffffffff808211156135d857600080fd5b818501915085601f8301126135ec57600080fd5b8135818111156135fb57600080fd5b8660208260051b850101111561361057600080fd5b60209290920196919550909350505050565b60005b8381101561363d578181015183820152602001613625565b50506000910152565b6000815180845261365e816020860160208601613622565b601f01601f19169290920160200192915050565b6000602080830181845280855180835260408601915060408160051b870101925083870160005b828110156136c757603f198886030184526136b5858351613646565b94509285019290850190600101613699565b5092979650505050505050565b600080604083850312156136e757600080fd5b50508035926020909101359150565b634e487b7160e01b600052604160045260246000fd5b604051610100810167ffffffffffffffff8111828210171561373e57634e487b7160e01b600052604160045260246000fd5b60405290565b60008060008084860360c081121561375b57600080fd5b61376486613401565b9450602086013593506060603f198201121561377f57600080fd5b506040516060810181811067ffffffffffffffff821117156137b157634e487b7160e01b600052604160045260246000fd5b80604052506137c260408701613401565b81526137d060608701613401565b60208201526137e160808701613401565b604082015291506137f460a0860161337a565b905092959194509250565b6000806040838503121561381257600080fd5b82359150602083013561382481613391565b809150509250929050565b60006020828403121561384157600080fd5b6123d382613401565b60006040828403121561385c57600080fd5b6040516040810181811067ffffffffffffffff8211171561388d57634e487b7160e01b600052604160045260246000fd5b60405290508061389c8361337a565b8152602083013560ff811681146138b257600080fd5b6020919091015292915050565b6000808284036101408112156138d457600080fd5b610100808212156138e457600080fd5b6138ec61370c565b91506138f78561337a565b82526139056020860161337a565b60208301526139166040860161337a565b60408301526139276060860161337a565b60608301526139386080860161337a565b608083015261394960a0860161337a565b60a083015261395a60c0860161337a565b60c083015261396b60e0860161337a565b60e083015281935061397f8682870161384a565b925050509250929050565b6020808252601f908201527f5265656e7472616e637947756172643a207265656e7472616e742063616c6c00604082015260600190565b600581106139df57634e487b7160e01b600052602160045260246000fd5b9052565b828152604081016123d360208301846139c1565b634e487b7160e01b600052601160045260246000fd5b63ffffffff818116838216019080821115610c1857610c186139f7565b6001600160a01b039485168152928416602084015292166040820152606081019190915260800190565b634e487b7160e01b600052603260045260246000fd5b6000808335601e19843603018112613a8157600080fd5b83018035915067ffffffffffffffff821115613a9c57600080fd5b602001915036819003821315613ab157600080fd5b9250929050565b600060018201613aca57613aca6139f7565b5060010190565b600063ffffffff808316818103613aea57613aea6139f7565b6001019392505050565b600060ff821660ff8103613b0a57613b0a6139f7565b60010192915050565b80820180821115610a6257610a626139f7565b60ff8281168282160390811115610a6257610a626139f7565b600060208284031215613b5157600080fd5b5051919050565b7f416363657373436f6e74726f6c3a206163636f756e74206973206d697373696e815261033960f51b602082015260008251613b9b816022850160208701613622565b6420726f6c6560d81b6022939091019283015250602701919050565b6020815260006123d36020830184613646565b60008251613bdc818460208701613622565b9190910192915050565b600060208284031215613bf857600080fd5b81516123d38161339156fe4adddf166c9b2e23057fa61b4eb289be17359a0bfbcb06fb3b1597c266dc7335416464726573733a206c6f772d6c6576656c2064656c65676174652063616c6c206661696c6564a2646970667358221220226ef503a79c4e9397ba60bc20a4eff937feda4f9fc8ff8544a226ab41f9817664736f6c63430008130033",
  "linkReferences": {},
  "deployedLinkReferences": {}
}