{
  "_format": "hh-sol-artifact-1",
  "contractName": "OctRouter",
  "sourceName": "contracts/core/router/OctRouter.sol",
  "abi": [
    {
      "inputs": [],
      "stateMutability": "nonpayable",
      "type": "constructor"
    },
    {
      "anonymous": false,
      "inputs": [
        {
          "indexed": false,
          "internalType": "uint8",
          "name": "version",
          "type": "uint8"
        }
      ],
      "name": "Initialized",
      "type": "event"
    },
    {
      "anonymous": false,
      "inputs": [
        {
          "indexed": true,
          "internalType": "address",
          "name": "delegator",
          "type": "address"
        },
        {
          "indexed": false,
          "internalType": "address",
          "name": "delegatee",
          "type": "address"
        },
        {
          "indexed": false,
          "internalType": "uint256",
          "name": "nonce",
          "type": "uint256"
        }
      ],
      "name": "OctRequest",
      "type": "event"
    },
    {
      "inputs": [],
      "name": "DEFAULT_ADMIN_ROLE",
      "outputs": [
        {
          "internalType": "bytes32",
          "name": "",
          "type": "bytes32"
        }
      ],
      "stateMutability": "view",
      "type": "function"
    },
    {
      "inputs": [
        {
          "internalType": "address",
          "name": "user",
          "type": "address"
        },
        {
          "internalType": "uint256",
          "name": "orderId",
          "type": "uint256"
        },
        {
          "internalType": "uint256",
          "name": "nonce",
          "type": "uint256"
        },
        {
          "internalType": "bytes",
          "name": "signature",
          "type": "bytes"
        }
      ],
      "name": "cancel1CTLimitOrder",
      "outputs": [],
      "stateMutability": "nonpayable",
      "type": "function"
    },
    {
      "inputs": [],
      "name": "contractId",
      "outputs": [
        {
          "internalType": "bytes32",
          "name": "",
          "type": "bytes32"
        }
      ],
      "stateMutability": "pure",
      "type": "function"
    },
    {
      "inputs": [
        {
          "internalType": "address",
          "name": "delegator",
          "type": "address"
        },
        {
          "internalType": "address",
          "name": "delegatee",
          "type": "address"
        },
        {
          "internalType": "uint256",
          "name": "nonce",
          "type": "uint256"
        },
        {
          "internalType": "bytes",
          "name": "signature",
          "type": "bytes"
        }
      ],
      "name": "delegate",
      "outputs": [],
      "stateMutability": "nonpayable",
      "type": "function"
    },
    {
      "inputs": [
        {
          "internalType": "uint256",
          "name": "",
          "type": "uint256"
        },
        {
          "internalType": "address",
          "name": "",
          "type": "address"
        }
      ],
      "name": "delegatees",
      "outputs": [
        {
          "internalType": "address",
          "name": "",
          "type": "address"
        }
      ],
      "stateMutability": "view",
      "type": "function"
    },
    {
      "inputs": [
        {
          "internalType": "address",
          "name": "account",
          "type": "address"
        },
        {
          "internalType": "uint256",
          "name": "nonce",
          "type": "uint256"
        },
        {
          "internalType": "bytes",
          "name": "signature",
          "type": "bytes"
        }
      ],
      "name": "disableNonce",
      "outputs": [],
      "stateMutability": "nonpayable",
      "type": "function"
    },
    {
      "inputs": [
        {
          "internalType": "uint256",
          "name": "nonce",
          "type": "uint256"
        }
      ],
      "name": "disableNonceDirectly",
      "outputs": [],
      "stateMutability": "nonpayable",
      "type": "function"
    },
    {
      "inputs": [
        {
          "internalType": "address",
          "name": "user",
          "type": "address"
        }
      ],
      "name": "getDelegatee",
      "outputs": [
        {
          "internalType": "address",
          "name": "",
          "type": "address"
        }
      ],
      "stateMutability": "view",
      "type": "function"
    },
    {
      "inputs": [
        {
          "internalType": "address",
          "name": "user",
          "type": "address"
        },
        {
          "internalType": "uint256",
          "name": "epoch",
          "type": "uint256"
        }
      ],
      "name": "getDelegateeOfEpoch",
      "outputs": [
        {
          "internalType": "address",
          "name": "",
          "type": "address"
        }
      ],
      "stateMutability": "view",
      "type": "function"
    },
    {
      "inputs": [
        {
          "internalType": "address",
          "name": "observer_",
          "type": "address"
        }
      ],
      "name": "initialize",
      "outputs": [],
      "stateMutability": "nonpayable",
      "type": "function"
    },
    {
      "inputs": [
        {
          "internalType": "bytes[]",
          "name": "data",
          "type": "bytes[]"
        }
      ],
      "name": "multicall",
      "outputs": [
        {
          "internalType": "bytes[]",
          "name": "results",
          "type": "bytes[]"
        }
      ],
      "stateMutability": "nonpayable",
      "type": "function"
    },
    {
      "inputs": [
        {
          "internalType": "address",
          "name": "",
          "type": "address"
        },
        {
          "internalType": "uint256",
          "name": "",
          "type": "uint256"
        }
      ],
      "name": "nonceUsage",
      "outputs": [
        {
          "internalType": "bool",
          "name": "",
          "type": "bool"
        }
      ],
      "stateMutability": "view",
      "type": "function"
    },
    {
      "inputs": [],
      "name": "observer",
      "outputs": [
        {
          "internalType": "address",
          "name": "",
          "type": "address"
        }
      ],
      "stateMutability": "view",
      "type": "function"
    },
    {
      "inputs": [
        {
          "components": [
            {
              "components": [
                {
                  "internalType": "address",
                  "name": "user",
                  "type": "address"
                },
                {
                  "internalType": "uint256",
                  "name": "orderId",
                  "type": "uint256"
                },
                {
                  "components": [
                    {
                      "internalType": "uint256",
                      "name": "data",
                      "type": "uint256"
                    }
                  ],
                  "internalType": "struct DataTypes.FuturesOrderBody",
                  "name": "body",
                  "type": "tuple"
                }
              ],
              "internalType": "struct DataTypes.FuturesOrder",
              "name": "orderObject",
              "type": "tuple"
            },
            {
              "internalType": "uint256",
              "name": "nonce",
              "type": "uint256"
            },
            {
              "internalType": "bytes",
              "name": "signature",
              "type": "bytes"
            }
          ],
          "internalType": "struct DataTypes.OctOrder",
          "name": "octOrder",
          "type": "tuple"
        }
      ],
      "name": "open1CTLimitOrder",
      "outputs": [],
      "stateMutability": "nonpayable",
      "type": "function"
    },
    {
      "inputs": [
        {
          "internalType": "address",
          "name": "guest",
          "type": "address"
        },
        {
          "internalType": "address",
          "name": "host",
          "type": "address"
        },
        {
          "internalType": "bytes",
          "name": "signature",
          "type": "bytes"
        }
      ],
      "name": "setReferralHost",
      "outputs": [],
      "stateMutability": "nonpayable",
      "type": "function"
    },
    {
      "inputs": [
        {
          "components": [
            {
              "components": [
                {
                  "internalType": "address",
                  "name": "user",
                  "type": "address"
                },
                {
                  "internalType": "uint256",
                  "name": "orderId",
                  "type": "uint256"
                },
                {
                  "components": [
                    {
                      "internalType": "uint256",
                      "name": "data",
                      "type": "uint256"
                    }
                  ],
                  "internalType": "struct DataTypes.FuturesOrderBody",
                  "name": "body",
                  "type": "tuple"
                }
              ],
              "internalType": "struct DataTypes.FuturesOrder",
              "name": "orderObject",
              "type": "tuple"
            },
            {
              "internalType": "uint256",
              "name": "nonce",
              "type": "uint256"
            },
            {
              "internalType": "bytes",
              "name": "signature",
              "type": "bytes"
            }
          ],
          "internalType": "struct DataTypes.OctOrder[]",
          "name": "octOrders",
          "type": "tuple[]"
        },
        {
          "components": [
            {
              "internalType": "address",
              "name": "oraclePubkey",
              "type": "address"
            },
            {
              "internalType": "string",
              "name": "assetPairId",
              "type": "string"
            },
            {
              "internalType": "uint256",
              "name": "timestamp",
              "type": "uint256"
            },
            {
              "internalType": "uint256",
              "name": "price",
              "type": "uint256"
            },
            {
              "internalType": "bytes32",
              "name": "r",
              "type": "bytes32"
            },
            {
              "internalType": "bytes32",
              "name": "s",
              "type": "bytes32"
            },
            {
              "internalType": "uint8",
              "name": "v",
              "type": "uint8"
            }
          ],
          "internalType": "struct DataTypes.SignaturedPrice",
          "name": "signaturedPrice",
          "type": "tuple"
        },
        {
          "internalType": "uint32",
          "name": "marketId",
          "type": "uint32"
        }
      ],
      "name": "settle1CTOrders",
      "outputs": [
        {
          "internalType": "bool",
          "name": "_isValid",
          "type": "bool"
        }
      ],
      "stateMutability": "nonpayable",
      "type": "function"
    },
    {
      "inputs": [
        {
          "internalType": "address",
          "name": "user",
          "type": "address"
        },
        {
          "components": [
            {
              "internalType": "uint256",
              "name": "data",
              "type": "uint256"
            }
          ],
          "internalType": "struct DataTypes.FuturesOrderBody",
          "name": "body",
          "type": "tuple"
        },
        {
          "internalType": "uint256",
          "name": "orderPrice",
          "type": "uint256"
        },
        {
          "internalType": "uint256",
          "name": "triggerPrice",
          "type": "uint256"
        },
        {
          "internalType": "uint256",
          "name": "nonce",
          "type": "uint256"
        },
        {
          "internalType": "uint256",
          "name": "epoch",
          "type": "uint256"
        },
        {
          "internalType": "bytes",
          "name": "signature",
          "type": "bytes"
        },
        {
          "components": [
            {
              "internalType": "address",
              "name": "oraclePubkey",
              "type": "address"
            },
            {
              "internalType": "string",
              "name": "assetPairId",
              "type": "string"
            },
            {
              "internalType": "uint256",
              "name": "timestamp",
              "type": "uint256"
            },
            {
              "internalType": "uint256",
              "name": "price",
              "type": "uint256"
            },
            {
              "internalType": "bytes32",
              "name": "r",
              "type": "bytes32"
            },
            {
              "internalType": "bytes32",
              "name": "s",
              "type": "bytes32"
            },
            {
              "internalType": "uint8",
              "name": "v",
              "type": "uint8"
            }
          ],
          "internalType": "struct DataTypes.SignaturedPrice",
          "name": "signaturedPrice",
          "type": "tuple"
        }
      ],
      "name": "triggerLimitOrder",
      "outputs": [
        {
          "internalType": "bool",
          "name": "_isValid",
          "type": "bool"
        }
      ],
      "stateMutability": "nonpayable",
      "type": "function"
    },
    {
      "inputs": [
        {
          "internalType": "address",
          "name": "user",
          "type": "address"
        },
        {
          "components": [
            {
              "internalType": "uint256",
              "name": "data",
              "type": "uint256"
            }
          ],
          "internalType": "struct DataTypes.FuturesOrderBody",
          "name": "body",
          "type": "tuple"
        },
        {
          "internalType": "uint256",
          "name": "orderPrice",
          "type": "uint256"
        },
        {
          "internalType": "uint256",
          "name": "triggerPrice",
          "type": "uint256"
        },
        {
          "internalType": "uint256",
          "name": "nonce",
          "type": "uint256"
        },
        {
          "internalType": "uint256",
          "name": "epoch",
          "type": "uint256"
        },
        {
          "internalType": "bytes",
          "name": "signature",
          "type": "bytes"
        },
        {
          "components": [
            {
              "internalType": "address",
              "name": "oraclePubkey",
              "type": "address"
            },
            {
              "internalType": "string",
              "name": "assetPairId",
              "type": "string"
            },
            {
              "internalType": "uint256",
              "name": "timestamp",
              "type": "uint256"
            },
            {
              "internalType": "uint256",
              "name": "price",
              "type": "uint256"
            },
            {
              "internalType": "bytes32",
              "name": "r",
              "type": "bytes32"
            },
            {
              "internalType": "bytes32",
              "name": "s",
              "type": "bytes32"
            },
            {
              "internalType": "uint8",
              "name": "v",
              "type": "uint8"
            }
          ],
          "internalType": "struct DataTypes.SignaturedPrice",
          "name": "signaturedPrice",
          "type": "tuple"
        }
      ],
      "name": "triggerMarketOrder",
      "outputs": [
        {
          "internalType": "bool",
          "name": "_isValid",
          "type": "bool"
        }
      ],
      "stateMutability": "nonpayable",
      "type": "function"
    }
  ],
  "bytecode": "0x60806040523480156200001157600080fd5b50600180556200002062000026565b620000e7565b600054610100900460ff1615620000935760405162461bcd60e51b815260206004820152602760248201527f496e697469616c697a61626c653a20636f6e747261637420697320696e697469604482015266616c697a696e6760c81b606482015260840160405180910390fd5b60005460ff90811614620000e5576000805460ff191660ff9081179091556040519081527f7f26b83ff96e1f2b6a682f133852f6798a09c465da95921460cefb38474024989060200160405180910390a15b565b612a6c80620000f76000396000f3fe608060405234801561001057600080fd5b50600436106100f65760003560e01c8063a217fddf11610092578063a217fddf146101f3578063a71ce8e7146101fb578063ac9650d81461020e578063b20b99431461022e578063bb85b57514610241578063c4d66de814610275578063c86733db14610288578063eb70e4981461029b578063f3cba790146102ae57600080fd5b80631e05e032146100fb5780631fd74f811461013e57806350e01c73146101515780638291286c146101665780638b73b8cf1461017c5780638c2bb0461461018f57806394b6e359146101a257806399ea7411146101b55780639b4e735f146101c8575b600080fd5b610129610109366004611f44565b600460209081526000928352604080842090915290825290205460ff1681565b60405190151581526020015b60405180910390f35b61012961014c366004611fc9565b6102e2565b61016461015f366004612087565b6103c0565b005b61016e610490565b604051908152602001610135565b61016461018a3660046120eb565b6104c7565b61012961019d366004612172565b610703565b6101646101b03660046121f6565b6107e9565b6101296101c3366004611fc9565b610954565b6101db6101d636600461225f565b610a3f565b6040516001600160a01b039091168152602001610135565b61016e600081565b61016461020936600461227c565b610a7c565b61022161021c3660046122b6565b610c41565b6040516101359190612347565b61016461023c366004612417565b610d36565b61016461024f3660046124da565b33600090815260046020908152604080832093835292905220805460ff19166001179055565b61016461028336600461225f565b610eb6565b6101db610296366004611f44565b61100a565b6002546101db906001600160a01b031681565b6101db6102bc3660046124f3565b60036020908152600092835260408084209091529082529020546001600160a01b031681565b60006040516020016102f390612523565b604051602081830303815290604052805190602001206103133382611032565b60006103288c8c8c8c8c8c8c8c8c60016110c7565b9350905082156103b15761034b61033d6111d3565b6001600160a01b03166111e2565b60405163b3788ba560e01b81526001600160a01b038e811660048301528d356024830152919091169063b3788ba5906044015b600060405180830381600087803b15801561039857600080fd5b505af11580156103ac573d6000803e3d6000fd5b505050505b50509998505050505050505050565b836001600160a01b03166000805160206129f08339815191526103e286610a3f565b60006040516103f2929190612539565b60405180910390a261040684848484611246565b1561048a576104246104166111d3565b6001600160a01b03166112e2565b604051632567cb5160e11b81526001600160a01b03868116600483015285811660248301529190911690634acf96a290604401600060405180830381600087803b15801561047157600080fd5b505af1158015610485573d6000803e3d6000fd5b505050505b50505050565b6040516927a1aa2fa927aaaa22a960b11b6020820152600090602a0160405160208183030381529060405280519060200120905090565b6040516020016104d690612523565b604051602081830303815290604052805190602001206104f63382611032565b846001600160a01b03166000805160206129f083398151915261051887610a3f565b86604051610527929190612539565b60405180910390a26001600160a01b038516600090815260046020908152604080832087845290915290205460ff161561056057600080fd5b60006105d88686604051602001610578929190612539565b60408051601f1981840301815282825280516020918201207f19457468657265756d205369676e6564204d6573736167653a0a33320000000084830152603c8085019190915282518085039091018152605c909301909152815191012090565b9050600061061c8286868080601f01602080910402602001604051908101604052809392919081815260200183838082843760009201919091525061132192505050565b905061062787610a3f565b6001600160a01b0316816001600160a01b03161461064457600080fd5b6001600160a01b03871660009081526004602090815260408083208984529091529020805460ff1916600117905561068b61067d6111d3565b6001600160a01b0316611345565b6001600160a01b031663806de942886702c68af0bb1400006040518363ffffffff1660e01b81526004016106c0929190612539565b6020604051808303816000875af11580156106df573d6000803e3d6000fd5b505050506040513d601f19601f820116820180604052508101906104859190612552565b600060405160200161071490612523565b604051602081830303815290604052805190602001206107343382611032565b60006107408486611385565b9350905082156107df5760408051602081019091526000815261076581898988611424565b60025461077a906001600160a01b03166111e2565b6001600160a01b0316631469b594898985856040518563ffffffff1660e01b81526004016107ab94939291906125d9565b600060405180830381600087803b1580156107c557600080fd5b505af11580156107d9573d6000803e3d6000fd5b50505050505b5050949350505050565b6040516020016107f890612523565b604051602081830303815290604052805190602001206108183382611032565b856001600160a01b03166000805160206129f083398151915261083a88610a3f565b86604051610849929190612539565b60405180910390a261085e8686868686611534565b61086961033d6111d3565b6001600160a01b031663422bd07b87876040518363ffffffff1660e01b8152600401610896929190612539565b600060405180830381600087803b1580156108b057600080fd5b505af11580156108c4573d6000803e3d6000fd5b505050506108d361067d6111d3565b6001600160a01b031663806de942876702c68af0bb1400006040518363ffffffff1660e01b8152600401610908929190612539565b6020604051808303816000875af1158015610927573d6000803e3d6000fd5b505050506040513d601f19601f8201168201806040525081019061094b9190612552565b50505050505050565b600060405160200161096590612523565b604051602081830303815290604052805190602001206109853382611032565b600061099a8c8c8c8c8c8c8c8c8c60006110c7565b9350905082156103b1576109af61033d6111d3565b6001600160a01b031663839d834f60405180606001604052808f6001600160a01b03168152602001600081526020018e8036038101906109ef91906126af565b9052604080516001600160e01b031960e085901b16815282516001600160a01b0316600482015260208301516024820152910151516044820152606481018490526001608482015260a40161037e565b600080610a4f6203f480426126ff565b60009081526003602090815260408083206001600160a01b03968716845290915290205490921692915050565b604051602001610a8b90612523565b60405160208183030381529060405280519060200120610aab3382611032565b610ab8602083018361225f565b6001600160a01b03166000805160206129f0833981519152610ae06101d6602086018661225f565b8460600135604051610af3929190612539565b60405180910390a2610b1c610b10368490038401604085016126af565b51600160ae1b16151590565b15610c3d576000610b2c83611651565b90508015610c3b576000610b43602085018561225f565b9050610b5061033d6111d3565b6040805163b3788ba560e01b81526001600160a01b03848116600483015291870135602482015291169063b3788ba590604401600060405180830381600087803b158015610b9d57600080fd5b505af1158015610bb1573d6000803e3d6000fd5b50505050610bc061067d6111d3565b6001600160a01b031663806de942826702c68af0bb1400006040518363ffffffff1660e01b8152600401610bf5929190612539565b6020604051808303816000875af1158015610c14573d6000803e3d6000fd5b505050506040513d601f19601f82011682018060405250810190610c389190612552565b50505b505b5050565b6060816001600160401b03811115610c5b57610c5b6123a9565b604051908082528060200260200182016040528015610c8e57816020015b6060815260200190600190039081610c795790505b50905060005b82811015610d2e57610cfe30858584818110610cb257610cb2612713565b9050602002810190610cc49190612729565b8080601f0160208091040260200160405190810160405280939291908181526020018383808284376000920191909152506117f292505050565b828281518110610d1057610d10612713565b60200260200101819052508080610d269061276f565b915050610c94565b505b92915050565b604051702222a622a3a0aa24a7a72fa5a2a2a822a960791b602082015260310160405160208183030381529060405280519060200120610d763382611032565b846001600160a01b03166000805160206129f08339815191528585604051610d9f929190612539565b60405180910390a26001600160a01b038516600090815260046020908152604080832086845290915290205460ff1615610dd857600080fd5b604080516001600160a01b03808816602083015286169181019190915260608101849052600090610e0b90608001610578565b90506000610e198285611321565b9050866001600160a01b0316816001600160a01b031614610e3957600080fd5b6001600160a01b03871660009081526004602090815260408083208884529091528120805460ff19166001179055610e746203f480426126ff565b60009081526003602090815260408083206001600160a01b039b8c168452909152902080546001600160a01b0319169790981696909617909655505050505050565b600054600190610100900460ff16158015610ed8575060005460ff8083169116105b610f405760405162461bcd60e51b815260206004820152602e60248201527f496e697469616c697a61626c653a20636f6e747261637420697320616c72656160448201526d191e481a5b9a5d1a585b1a5e995960921b60648201526084015b60405180910390fd5b6000805461ffff191660ff8316176101001790556001600160a01b038216610faa5760405162461bcd60e51b815260206004820152601b60248201527f4f627365727665722073686f756c642062652070726f766964656400000000006044820152606401610f37565b600280546001600160a01b0319166001600160a01b0384161790556000805461ff001916905560405160ff821681527f7f26b83ff96e1f2b6a682f133852f6798a09c465da95921460cefb38474024989060200160405180910390a15050565b60009081526003602090815260408083206001600160a01b0394851684529091529020541690565b600061104d61103f6111d3565b6001600160a01b031661181e565b9050806001600160a01b0316633dee0b32611066610490565b6040516001600160e01b031960e084901b1681526004810191909152602481018590526001600160a01b038616604482015260640160006040518083038186803b1580156110b357600080fd5b505afa15801561094b573d6000803e3d6000fd5b6000806110ef6110e96110df368e90038e018e6126af565b5160a51c60ff1690565b85611385565b909250905080611101575060006111c4565b821515611116610b10368e90038e018e6126af565b151514611125575060006111c4565b6111b46040518061010001604052808e6001600160a01b031681526020018d80360381019061115491906126af565b81526020018481526020018c81526020018b81526020018a815260200189815260200188888080601f016020809104026020016040519081016040528093929190818152602001838380828437600092019190915250505091525061185e565b6111c0575060006111c4565b5060015b9a509a98505050505050505050565b6002546001600160a01b031690565b6000816001600160a01b0316635e9658d26040518163ffffffff1660e01b8152600401602060405180830381865afa158015611222573d6000803e3d6000fd5b505050506040513d601f19601f82011682018060405250810190610d309190612788565b60008061127486866040516020016105789291906001600160a01b0392831681529116602082015260400190565b905060006112b88286868080601f01602080910402602001604051908101604052809392919081815260200183838082843760009201919091525061132192505050565b9050806001600160a01b03166112cd88610a3f565b6001600160a01b031614979650505050505050565b6000816001600160a01b0316626cc35e6040518163ffffffff1660e01b8152600401602060405180830381865afa158015611222573d6000803e3d6000fd5b600080600061133085856119cb565b9150915061133d81611a0d565b509392505050565b6000816001600160a01b031663af8e64226040518163ffffffff1660e01b8152600401602060405180830381865afa158015611222573d6000803e3d6000fd5b600254600090819061139f906001600160a01b0316611b55565b6001600160a01b0316632818c156856000866040518463ffffffff1660e01b81526004016113cf939291906127a5565b6020604051808303816000875af192505050801561140a575060408051601f3d908101601f1916820190925261140791810190612552565b60015b6114165750600061141d565b9150600190505b9250929050565b8160005b8181101561152c573685858381811061144357611443612713565b9050602002810190611455919061284f565b9050611464602082018261225f565b6001600160a01b03166000805160206129f083398151915261148c6101d6602085018561225f565b836060013560405161149f929190612539565b60405180910390a26114bc610b10368390038301604084016126af565b15156001036114cb575061151a565b6114e06110df368390038301604084016126af565b63ffffffff168463ffffffff16146114f8575061151a565b600061150382611651565b905080156115175761151788846001611b95565b50505b806115248161276f565b915050611428565b505050505050565b6001600160a01b038516600090815260046020908152604080832086845290915290205460ff161561156557600080fd5b600061157086610a3f565b90506001600160a01b03811661158557600080fd5b604080516001600160a01b0388166020820152908101869052606081018590526000906115b490608001610578565b905060006115f88286868080601f01602080910402602001604051908101604052809392919081815260200183838082843760009201919091525061132192505050565b9050826001600160a01b0316816001600160a01b03161461161857600080fd5b5050506001600160a01b03909416600090815260046020908152604080832094835293905291909120805460ff19166001179055505050565b600081600482611664602084018461225f565b6001600160a01b03168152602080820192909252604090810160009081206060870135825290925290205460ff16156116a05750600092915050565b60006116b26101d6602084018461225f565b90506001600160a01b0381166116cc575060009392505050565b600061170c6116de602085018561225f565b604080516001600160a01b039092166020830152808601359082015260608088013590820152608001610578565b905060008061175c8361172260808a018a612729565b8080601f0160208091040260200160405190810160405280939291908181526020018383808284376000920191909152506119cb92505050565b909250905060008160048111156117755761177561286f565b1480156117935750836001600160a01b0316826001600160a01b0316145b955085156117e8576001600460006117ae602089018961225f565b6001600160a01b031681526020808201929092526040908101600090812060608c013582529092529020805460ff19169115159190911790555b5050505050919050565b60606118178383604051806060016040528060278152602001612a1060279139611bc5565b9392505050565b6000816001600160a01b031663fdcb60686040518163ffffffff1660e01b8152600401602060405180830381865afa158015611222573d6000803e3d6000fd5b80516001600160a01b0316600090815260046020908152604080832060a0850151845290915281205460ff161561189757506000919050565b60006118ab83600001518460c0015161100a565b90506001600160a01b0381166118c45750600092915050565b600061192984600001518560200151866060015187608001518860a001518960c00151604051602001610578969594939291906001600160a01b039690961686529351602086015260408501929092526060840152608083015260a082015260c00190565b905060008061193c838760e001516119cb565b909250905060008160048111156119555761195561286f565b1480156119735750836001600160a01b0316826001600160a01b0316145b9450848015611986575061198686611c3d565b945084156119c25785516001600160a01b0316600090815260046020908152604080832060a08a015184529091529020805460ff191660011790555b50505050919050565b6000808251604103611a015760208301516040840151606085015160001a6119f587828585611d4b565b9450945050505061141d565b5060009050600261141d565b6000816004811115611a2157611a2161286f565b03611a295750565b6001816004811115611a3d57611a3d61286f565b03611a855760405162461bcd60e51b815260206004820152601860248201527745434453413a20696e76616c6964207369676e617475726560401b6044820152606401610f37565b6002816004811115611a9957611a9961286f565b03611ae65760405162461bcd60e51b815260206004820152601f60248201527f45434453413a20696e76616c6964207369676e6174757265206c656e677468006044820152606401610f37565b6003816004811115611afa57611afa61286f565b03611b525760405162461bcd60e51b815260206004820152602260248201527f45434453413a20696e76616c6964207369676e6174757265202773272076616c604482015261756560f01b6064820152608401610f37565b50565b6000816001600160a01b0316632630c12f6040518163ffffffff1660e01b8152600401602060405180830381865afa158015611222573d6000803e3d6000fd5b8181611ba2576000611ba5565b60015b60ff16901b826001901b1984600001511617836000018181525050505050565b6060600080856001600160a01b031685604051611be29190612885565b600060405180830381855af49150503d8060008114611c1d576040519150601f19603f3d011682016040523d82523d6000602084013e611c22565b606091505b5091509150611c3386838387611e05565b9695505050505050565b6002546000908190611c57906001600160a01b0316611345565b6001600160a01b031663ece91e35611c7a85602001515160ff60a59190911c1690565b6040516001600160e01b031960e084901b16815263ffffffff919091166004820152602401608060405180830381865afa158015611cbc573d6000803e3d6000fd5b505050506040513d601f19601f82011682018060405250810190611ce091906128bb565b50925050506000611d068460400151611cf884611e86565b611d0185611eb0565b611ed4565b90506000846080015182611d1a9190612903565b9050600085608001518660600151611d329190612903565b90506000611d408284612923565b129695505050505050565b6000806fa2a8918ca85bafe22016d0b997e4df60600160ff1b03831115611d785750600090506003611dfc565b6040805160008082526020820180845289905260ff881692820192909252606081018690526080810185905260019060a0016020604051602081039080840390855afa158015611dcc573d6000803e3d6000fd5b5050604051601f1901519150506001600160a01b038116611df557600060019250925050611dfc565b9150600090505b94509492505050565b60608315611e74578251600003611e6d576001600160a01b0385163b611e6d5760405162461bcd60e51b815260206004820152601d60248201527f416464726573733a2063616c6c20746f206e6f6e2d636f6e74726163740000006044820152606401610f37565b5081611e7e565b611e7e8383611f05565b949350505050565b80516000906001600160401b03811690600160401b168203610d3057611eab81612953565b611817565b60006061633fffffff60611b836000015116901c6402540be400610d30919061296f565b60008381606484611ee58785612923565b611eef9190612986565b611ef99190612986565b9050611c3381836129b4565b815115611f155781518083602001fd5b8060405162461bcd60e51b8152600401610f3791906129dc565b6001600160a01b0381168114611b5257600080fd5b60008060408385031215611f5757600080fd5b8235611f6281611f2f565b946020939093013593505050565b60008083601f840112611f8257600080fd5b5081356001600160401b03811115611f9957600080fd5b60208301915083602082850101111561141d57600080fd5b600060e08284031215611fc357600080fd5b50919050565b6000806000806000806000806000898b03610100811215611fe957600080fd5b8a35611ff481611f2f565b99506020601f198201121561200857600080fd5b5060208a01975060408a0135965060608a0135955060808a0135945060a08a0135935060c08a01356001600160401b038082111561204557600080fd5b6120518d838e01611f70565b909550935060e08c013591508082111561206a57600080fd5b506120778c828d01611fb1565b9150509295985092959850929598565b6000806000806060858703121561209d57600080fd5b84356120a881611f2f565b935060208501356120b881611f2f565b925060408501356001600160401b038111156120d357600080fd5b6120df87828801611f70565b95989497509550505050565b6000806000806060858703121561210157600080fd5b843561210c81611f2f565b93506020850135925060408501356001600160401b038111156120d357600080fd5b60008083601f84011261214057600080fd5b5081356001600160401b0381111561215757600080fd5b6020830191508360208260051b850101111561141d57600080fd5b6000806000806060858703121561218857600080fd5b84356001600160401b038082111561219f57600080fd5b6121ab8883890161212e565b909650945060208701359150808211156121c457600080fd5b506121d187828801611fb1565b925050604085013563ffffffff811681146121eb57600080fd5b939692955090935050565b60008060008060006080868803121561220e57600080fd5b853561221981611f2f565b9450602086013593506040860135925060608601356001600160401b0381111561224257600080fd5b61224e88828901611f70565b969995985093965092949392505050565b60006020828403121561227157600080fd5b813561181781611f2f565b60006020828403121561228e57600080fd5b81356001600160401b038111156122a457600080fd5b820160a0818503121561181757600080fd5b600080602083850312156122c957600080fd5b82356001600160401b038111156122df57600080fd5b6122eb8582860161212e565b90969095509350505050565b60005b838110156123125781810151838201526020016122fa565b50506000910152565b600081518084526123338160208601602086016122f7565b601f01601f19169290920160200192915050565b6000602080830181845280855180835260408601915060408160051b870101925083870160005b8281101561239c57603f1988860301845261238a85835161231b565b9450928501929085019060010161236e565b5092979650505050505050565b634e487b7160e01b600052604160045260246000fd5b604051602081016001600160401b03811182821017156123e1576123e16123a9565b60405290565b604051601f8201601f191681016001600160401b038111828210171561240f5761240f6123a9565b604052919050565b6000806000806080858703121561242d57600080fd5b843561243881611f2f565b935060208581013561244981611f2f565b93506040860135925060608601356001600160401b038082111561246c57600080fd5b818801915088601f83011261248057600080fd5b813581811115612492576124926123a9565b6124a4601f8201601f191685016123e7565b915080825289848285010111156124ba57600080fd5b808484018584013760008482840101525080935050505092959194509250565b6000602082840312156124ec57600080fd5b5035919050565b6000806040838503121561250657600080fd5b82359150602083013561251881611f2f565b809150509250929050565b6927a1aa2fa5a2a2a822a960b11b8152600a0190565b6001600160a01b03929092168252602082015260400190565b60006020828403121561256457600080fd5b5051919050565b6000808335601e1984360301811261258257600080fd5b83016020810192503590506001600160401b038111156125a157600080fd5b80360382131561141d57600080fd5b81835281816020850137506000828201602090810191909152601f909101601f19169091010190565b60608082528181018590526000906080808401600588901b850182018985805b8b81101561268a57888403607f190185528235368e9003609e1901811261261e578283fd5b8d0160a0813561262d81611f2f565b6001600160a01b031686526020828101358188015260408084013590880152898301358a8801526126608984018461256b565b9350828a89015261267483890185836125b0565b98820198975050949094019350506001016125f9565b505050602086018890528651604087015293506126a692505050565b95945050505050565b6000602082840312156126c157600080fd5b6126c96123bf565b9135825250919050565b634e487b7160e01b600052601260045260246000fd5b634e487b7160e01b600052601160045260246000fd5b60008261270e5761270e6126d3565b500490565b634e487b7160e01b600052603260045260246000fd5b6000808335601e1984360301811261274057600080fd5b8301803591506001600160401b0382111561275a57600080fd5b60200191503681900382131561141d57600080fd5b600060018201612781576127816126e9565b5060010190565b60006020828403121561279a57600080fd5b815161181781611f2f565b63ffffffff84811682528316602082015260606040820152600082356127ca81611f2f565b6001600160a01b031660608301526127e5602084018461256b565b60e060808501526127fb610140850182846125b0565b915050604084013560a0840152606084013560c0840152608084013560e084015260a084013561010084015260c084013560ff8116811461283b57600080fd5b60ff81166101208501525095945050505050565b60008235609e1983360301811261286557600080fd5b9190910192915050565b634e487b7160e01b600052602160045260246000fd5b600082516128658184602087016122f7565b6000602082840312156128a957600080fd5b6128b16123bf565b9151825250919050565b600080600080608085870312156128d157600080fd5b84519350602085015192506128e98660408701612897565b91506128f88660608701612897565b905092959194509250565b8181036000831280158383131683831282161715610d2e57610d2e6126e9565b80820260008212600160ff1b8414161561293f5761293f6126e9565b8181058314821517610d3057610d306126e9565b6000600160ff1b8201612968576129686126e9565b5060000390565b8082028115828204841417610d3057610d306126e9565b600082612995576129956126d3565b600160ff1b8214600019841416156129af576129af6126e9565b500590565b80820182811260008312801582168215821617156129d4576129d46126e9565b505092915050565b602081526000611817602083018461231b56fe32a34674fa67013a6bdac2228e142f0ae126fec97f37419a710a9c6ba167e7c3416464726573733a206c6f772d6c6576656c2064656c65676174652063616c6c206661696c6564a2646970667358221220fd038e3fedaef0f77f64042c6fbd73c6c66dd80817bcb49afc91f2b9b805d96864736f6c63430008130033",
  "linkReferences": {},
  "deployedLinkReferences": {}
}