{
  "_format": "hh-sol-artifact-1",
  "contractName": "PriceOracle",
  "sourceName": "contracts/core/price-oracle/PriceOracle.sol",
  "abi": [
    {
      "inputs": [],
      "stateMutability": "nonpayable",
      "type": "constructor"
    },
    {
      "anonymous": false,
      "inputs": [
        {
          "indexed": false,
          "internalType": "uint8",
          "name": "version",
          "type": "uint8"
        }
      ],
      "name": "Initialized",
      "type": "event"
    },
    {
      "anonymous": false,
      "inputs": [
        {
          "indexed": true,
          "internalType": "bytes32",
          "name": "role",
          "type": "bytes32"
        },
        {
          "indexed": true,
          "internalType": "bytes32",
          "name": "previousAdminRole",
          "type": "bytes32"
        },
        {
          "indexed": true,
          "internalType": "bytes32",
          "name": "newAdminRole",
          "type": "bytes32"
        }
      ],
      "name": "RoleAdminChanged",
      "type": "event"
    },
    {
      "anonymous": false,
      "inputs": [
        {
          "indexed": true,
          "internalType": "bytes32",
          "name": "role",
          "type": "bytes32"
        },
        {
          "indexed": true,
          "internalType": "address",
          "name": "account",
          "type": "address"
        },
        {
          "indexed": true,
          "internalType": "address",
          "name": "sender",
          "type": "address"
        }
      ],
      "name": "RoleGranted",
      "type": "event"
    },
    {
      "anonymous": false,
      "inputs": [
        {
          "indexed": true,
          "internalType": "bytes32",
          "name": "role",
          "type": "bytes32"
        },
        {
          "indexed": true,
          "internalType": "address",
          "name": "account",
          "type": "address"
        },
        {
          "indexed": true,
          "internalType": "address",
          "name": "sender",
          "type": "address"
        }
      ],
      "name": "RoleRevoked",
      "type": "event"
    },
    {
      "anonymous": false,
      "inputs": [
        {
          "indexed": false,
          "internalType": "uint32",
          "name": "assetId",
          "type": "uint32"
        },
        {
          "indexed": false,
          "internalType": "address",
          "name": "priceFeedAddress",
          "type": "address"
        }
      ],
      "name": "SetDefaultOracle",
      "type": "event"
    },
    {
      "anonymous": false,
      "inputs": [
        {
          "indexed": false,
          "internalType": "uint32",
          "name": "assetId",
          "type": "uint32"
        },
        {
          "indexed": false,
          "internalType": "uint256",
          "name": "price",
          "type": "uint256"
        },
        {
          "indexed": false,
          "internalType": "uint256",
          "name": "timestamp",
          "type": "uint256"
        }
      ],
      "name": "SetPrice",
      "type": "event"
    },
    {
      "inputs": [],
      "name": "DEFAULT_ADMIN_ROLE",
      "outputs": [
        {
          "internalType": "bytes32",
          "name": "",
          "type": "bytes32"
        }
      ],
      "stateMutability": "view",
      "type": "function"
    },
    {
      "inputs": [],
      "name": "DELEVERAGEUR",
      "outputs": [
        {
          "internalType": "bytes32",
          "name": "",
          "type": "bytes32"
        }
      ],
      "stateMutability": "view",
      "type": "function"
    },
    {
      "inputs": [],
      "name": "DEPTH_FACTOR_MANAGER_ROLE",
      "outputs": [
        {
          "internalType": "bytes32",
          "name": "",
          "type": "bytes32"
        }
      ],
      "stateMutability": "view",
      "type": "function"
    },
    {
      "inputs": [],
      "name": "LIMIT_ORDER_KEEPER",
      "outputs": [
        {
          "internalType": "bytes32",
          "name": "",
          "type": "bytes32"
        }
      ],
      "stateMutability": "view",
      "type": "function"
    },
    {
      "inputs": [],
      "name": "LIQUIDATOR",
      "outputs": [
        {
          "internalType": "bytes32",
          "name": "",
          "type": "bytes32"
        }
      ],
      "stateMutability": "view",
      "type": "function"
    },
    {
      "inputs": [],
      "name": "PRICE_KEEPER",
      "outputs": [
        {
          "internalType": "bytes32",
          "name": "",
          "type": "bytes32"
        }
      ],
      "stateMutability": "view",
      "type": "function"
    },
    {
      "inputs": [],
      "name": "USER_TIER_MANAGER_ROLE",
      "outputs": [
        {
          "internalType": "bytes32",
          "name": "",
          "type": "bytes32"
        }
      ],
      "stateMutability": "view",
      "type": "function"
    },
    {
      "inputs": [],
      "name": "WETH",
      "outputs": [
        {
          "internalType": "address",
          "name": "",
          "type": "address"
        }
      ],
      "stateMutability": "view",
      "type": "function"
    },
    {
      "inputs": [],
      "name": "WHITELISTED_USER",
      "outputs": [
        {
          "internalType": "bytes32",
          "name": "",
          "type": "bytes32"
        }
      ],
      "stateMutability": "view",
      "type": "function"
    },
    {
      "inputs": [
        {
          "components": [
            {
              "internalType": "address",
              "name": "WETH",
              "type": "address"
            },
            {
              "internalType": "address",
              "name": "priceOracle",
              "type": "address"
            },
            {
              "internalType": "address",
              "name": "vault",
              "type": "address"
            },
            {
              "internalType": "address",
              "name": "lpManager",
              "type": "address"
            },
            {
              "internalType": "address",
              "name": "futuresManager",
              "type": "address"
            },
            {
              "internalType": "address",
              "name": "masterRouter",
              "type": "address"
            },
            {
              "internalType": "address",
              "name": "insuranceManager",
              "type": "address"
            },
            {
              "internalType": "address",
              "name": "feedVerifier",
              "type": "address"
            }
          ],
          "internalType": "struct DataTypes.AddressCache",
          "name": "validAddresses_",
          "type": "tuple"
        },
        {
          "components": [
            {
              "internalType": "address",
              "name": "tokenAddress",
              "type": "address"
            },
            {
              "internalType": "uint8",
              "name": "decimals",
              "type": "uint8"
            }
          ],
          "internalType": "struct DataTypes.UsdData",
          "name": "usdData_",
          "type": "tuple"
        }
      ],
      "name": "cacheDatas",
      "outputs": [],
      "stateMutability": "nonpayable",
      "type": "function"
    },
    {
      "inputs": [],
      "name": "feedVerifier",
      "outputs": [
        {
          "internalType": "address",
          "name": "",
          "type": "address"
        }
      ],
      "stateMutability": "view",
      "type": "function"
    },
    {
      "inputs": [
        {
          "internalType": "uint256",
          "name": "",
          "type": "uint256"
        }
      ],
      "name": "feeds",
      "outputs": [
        {
          "components": [
            {
              "internalType": "uint256",
              "name": "data",
              "type": "uint256"
            }
          ],
          "internalType": "struct DataTypes.FeedMap",
          "name": "feedMap",
          "type": "tuple"
        },
        {
          "internalType": "address",
          "name": "defaultOracle",
          "type": "address"
        }
      ],
      "stateMutability": "view",
      "type": "function"
    },
    {
      "inputs": [],
      "name": "futuresManager",
      "outputs": [
        {
          "internalType": "address",
          "name": "",
          "type": "address"
        }
      ],
      "stateMutability": "view",
      "type": "function"
    },
    {
      "inputs": [
        {
          "internalType": "uint256",
          "name": "assetId",
          "type": "uint256"
        }
      ],
      "name": "getPriceFeed",
      "outputs": [
        {
          "internalType": "uint256",
          "name": "",
          "type": "uint256"
        }
      ],
      "stateMutability": "view",
      "type": "function"
    },
    {
      "inputs": [
        {
          "internalType": "bytes32",
          "name": "role",
          "type": "bytes32"
        }
      ],
      "name": "getRoleAdmin",
      "outputs": [
        {
          "internalType": "bytes32",
          "name": "",
          "type": "bytes32"
        }
      ],
      "stateMutability": "view",
      "type": "function"
    },
    {
      "inputs": [
        {
          "internalType": "bytes32",
          "name": "role",
          "type": "bytes32"
        },
        {
          "internalType": "address",
          "name": "account",
          "type": "address"
        }
      ],
      "name": "grantRole",
      "outputs": [],
      "stateMutability": "nonpayable",
      "type": "function"
    },
    {
      "inputs": [
        {
          "internalType": "bytes32",
          "name": "role",
          "type": "bytes32"
        },
        {
          "internalType": "address",
          "name": "account",
          "type": "address"
        }
      ],
      "name": "hasRole",
      "outputs": [
        {
          "internalType": "bool",
          "name": "",
          "type": "bool"
        }
      ],
      "stateMutability": "view",
      "type": "function"
    },
    {
      "inputs": [
        {
          "internalType": "address",
          "name": "observer_",
          "type": "address"
        },
        {
          "internalType": "address",
          "name": "usdFeedAddress",
          "type": "address"
        }
      ],
      "name": "initialize",
      "outputs": [],
      "stateMutability": "nonpayable",
      "type": "function"
    },
    {
      "inputs": [],
      "name": "insuranceManager",
      "outputs": [
        {
          "internalType": "address",
          "name": "",
          "type": "address"
        }
      ],
      "stateMutability": "view",
      "type": "function"
    },
    {
      "inputs": [],
      "name": "lpManager",
      "outputs": [
        {
          "internalType": "address",
          "name": "",
          "type": "address"
        }
      ],
      "stateMutability": "view",
      "type": "function"
    },
    {
      "inputs": [],
      "name": "masterRouter",
      "outputs": [
        {
          "internalType": "address",
          "name": "",
          "type": "address"
        }
      ],
      "stateMutability": "view",
      "type": "function"
    },
    {
      "inputs": [
        {
          "internalType": "bytes[]",
          "name": "data",
          "type": "bytes[]"
        }
      ],
      "name": "multicall",
      "outputs": [
        {
          "internalType": "bytes[]",
          "name": "results",
          "type": "bytes[]"
        }
      ],
      "stateMutability": "nonpayable",
      "type": "function"
    },
    {
      "inputs": [],
      "name": "observer",
      "outputs": [
        {
          "internalType": "address",
          "name": "",
          "type": "address"
        }
      ],
      "stateMutability": "view",
      "type": "function"
    },
    {
      "inputs": [],
      "name": "priceOracle",
      "outputs": [
        {
          "internalType": "address",
          "name": "",
          "type": "address"
        }
      ],
      "stateMutability": "view",
      "type": "function"
    },
    {
      "inputs": [
        {
          "internalType": "bytes32",
          "name": "role",
          "type": "bytes32"
        },
        {
          "internalType": "address",
          "name": "account",
          "type": "address"
        }
      ],
      "name": "renounceRole",
      "outputs": [],
      "stateMutability": "nonpayable",
      "type": "function"
    },
    {
      "inputs": [
        {
          "internalType": "bytes32",
          "name": "role",
          "type": "bytes32"
        },
        {
          "internalType": "address",
          "name": "account",
          "type": "address"
        }
      ],
      "name": "revokeRole",
      "outputs": [],
      "stateMutability": "nonpayable",
      "type": "function"
    },
    {
      "inputs": [
        {
          "internalType": "uint32",
          "name": "assetId",
          "type": "uint32"
        },
        {
          "internalType": "address",
          "name": "defaultOracleAddress",
          "type": "address"
        }
      ],
      "name": "setDefaultOracle",
      "outputs": [],
      "stateMutability": "nonpayable",
      "type": "function"
    },
    {
      "inputs": [
        {
          "internalType": "bytes4",
          "name": "interfaceId",
          "type": "bytes4"
        }
      ],
      "name": "supportsInterface",
      "outputs": [
        {
          "internalType": "bool",
          "name": "",
          "type": "bool"
        }
      ],
      "stateMutability": "view",
      "type": "function"
    },
    {
      "inputs": [
        {
          "internalType": "uint32",
          "name": "assetId",
          "type": "uint32"
        },
        {
          "internalType": "uint32",
          "name": "maxSettlementCount",
          "type": "uint32"
        },
        {
          "components": [
            {
              "internalType": "address",
              "name": "oraclePubkey",
              "type": "address"
            },
            {
              "internalType": "string",
              "name": "assetPairId",
              "type": "string"
            },
            {
              "internalType": "uint256",
              "name": "timestamp",
              "type": "uint256"
            },
            {
              "internalType": "uint256",
              "name": "price",
              "type": "uint256"
            },
            {
              "internalType": "bytes32",
              "name": "r",
              "type": "bytes32"
            },
            {
              "internalType": "bytes32",
              "name": "s",
              "type": "bytes32"
            },
            {
              "internalType": "uint8",
              "name": "v",
              "type": "uint8"
            }
          ],
          "internalType": "struct DataTypes.SignaturedPrice",
          "name": "signaturedPrice",
          "type": "tuple"
        }
      ],
      "name": "updatePriceFeed",
      "outputs": [
        {
          "internalType": "uint256",
          "name": "_indexPrice",
          "type": "uint256"
        }
      ],
      "stateMutability": "nonpayable",
      "type": "function"
    },
    {
      "inputs": [],
      "name": "usdData",
      "outputs": [
        {
          "internalType": "address",
          "name": "tokenAddress",
          "type": "address"
        },
        {
          "internalType": "uint8",
          "name": "decimals",
          "type": "uint8"
        }
      ],
      "stateMutability": "view",
      "type": "function"
    },
    {
      "inputs": [],
      "name": "usdFeed",
      "outputs": [
        {
          "components": [
            {
              "internalType": "uint256",
              "name": "data",
              "type": "uint256"
            }
          ],
          "internalType": "struct DataTypes.FeedMap",
          "name": "feedMap",
          "type": "tuple"
        },
        {
          "internalType": "address",
          "name": "defaultOracle",
          "type": "address"
        }
      ],
      "stateMutability": "view",
      "type": "function"
    },
    {
      "inputs": [],
      "name": "vault",
      "outputs": [
        {
          "internalType": "address",
          "name": "",
          "type": "address"
        }
      ],
      "stateMutability": "view",
      "type": "function"
    }
  ],
  "bytecode": "0x608060405234801561001057600080fd5b5061001961001e565b6100de565b600054610100900460ff161561008a5760405162461bcd60e51b815260206004820152602760248201527f496e697469616c697a61626c653a20636f6e747261637420697320696e697469604482015266616c697a696e6760c81b606482015260840160405180910390fd5b60005460ff90811610156100dc576000805460ff191660ff9081179091556040519081527f7f26b83ff96e1f2b6a682f133852f6798a09c465da95921460cefb38474024989060200160405180910390a15b565b611ea0806100ed6000396000f3fe608060405234801561001057600080fd5b50600436106101f05760003560e01c8063983a0d8e1161010f578063c2c5868a116100a2578063eb70e49811610071578063eb70e49814610493578063f3523fa4146104a6578063f91d443f146104b9578063fbfa77cf146104cc57600080fd5b8063c2c5868a14610425578063d3cc3f561461042d578063d547741f1461046d578063e4dd2dba1461048057600080fd5b8063ad5c4648116100de578063ad5c4648146103e4578063af8e6422146103f7578063b906f15a1461040a578063ba5fe6311461041d57600080fd5b8063983a0d8e146103a15780639d8f63b2146103b4578063a217fddf146103bc578063ac9650d8146103c457600080fd5b8063485cc955116101875780638c2296cd116101565780638c2296cd1461036b5780638eb059471461037357806391d148541461037b57806393467b651461038e57600080fd5b8063485cc955146102ff5780634a5479f31461031257806359e93967146103505780635e9658d21461035857600080fd5b80632818c156116101c35780632818c156146102bc5780632f2ff15d146102cf57806336568abe146102e457806346b88796146102f757600080fd5b806301ffc9a7146101f5578063211c066f1461021d578063248a9ca31461025f5780632630c12f14610291575b600080fd5b61020861020336600461161d565b6104df565b60405190151581526020015b60405180910390f35b6040805160208101909152607154815260725461024191906001600160a01b031682565b60408051925183526001600160a01b03909116602083015201610214565b61028361026d366004611647565b6000908152600160208190526040909120015490565b604051908152602001610214565b6036546102a4906001600160a01b031681565b6040516001600160a01b039091168152602001610214565b6102836102ca36600461178a565b610516565b6102e26102dd366004611868565b6106d4565b005b6102e26102f2366004611868565b6106ff565b61028361077d565b6102e261030d366004611894565b6107b0565b610241610320366004611647565b6070602090815260009182526040918290208251918201909252815481526001909101546001600160a01b031682565b610283610934565b603a546102a4906001600160a01b031681565b610283610954565b610283610978565b610208610389366004611868565b6109a0565b603c546102a4906001600160a01b031681565b6102e26103af3660046118be565b6109cb565b610283610a78565b610283600081565b6103d76103d23660046118dc565b610a98565b60405161021491906119a1565b6035546102a4906001600160a01b031681565b6038546102a4906001600160a01b031681565b6039546102a4906001600160a01b031681565b610283610b8d565b610283610bb3565b603d5461044c906001600160a01b03811690600160a01b900460ff1682565b604080516001600160a01b03909316835260ff909116602083015201610214565b6102e261047b366004611868565b610bd8565b6102e261048e366004611a61565b610bfe565b6034546102a4906001600160a01b031681565b603b546102a4906001600160a01b031681565b6102836104c7366004611647565b610d47565b6037546102a4906001600160a01b031681565b60006001600160e01b03198216637965db0b60e01b148061051057506301ffc9a760e01b6001600160e01b03198316145b92915050565b6040516b282924a1a2afa5a2a2a822a960a11b6020820152600090602c016040516020818303038152906040528051906020012061055381610d52565b603c54604051630e09aba360e01b81526000916001600160a01b031690630e09aba390610584908790600401611b2c565b6040805180830381865afa1580156105a0573d6000803e3d6000fd5b505050506040513d601f19601f820116820180604052508101906105c49190611b9c565b909350905063ffffffff868116908216146106265760405162461bcd60e51b815260206004820152601b60248201527f57726f6e6720696e64657820707269636520696e6a656374696f6e000000000060448201526064015b60405180910390fd5b60408051602081019091526000815261063f8185610d5f565b6106498142610d8e565b63ffffffff87161561067f5763ffffffff871660009081526070602052604090208151905561067a87878633610dad565b610685565b80516071555b6040805163ffffffff8916815260208101869052428183015290517f1926f11f634d38d97980686a215ef974964d7257967d1e795ed62169fb35343c9181900360600190a15050509392505050565b600082815260016020819052604090912001546106f081610d52565b6106fa8383610efe565b505050565b6001600160a01b038116331461076f5760405162461bcd60e51b815260206004820152602f60248201527f416363657373436f6e74726f6c3a2063616e206f6e6c792072656e6f756e636560448201526e103937b632b9903337b91039b2b63360891b606482015260840161061d565b6107798282610f69565b5050565b604051692624a8aaa4a220aa27a960b11b6020820152602a015b6040516020818303038152906040528051906020012081565b600054610100900460ff16158080156107d05750600054600160ff909116105b806107ea5750303b1580156107ea575060005460ff166001145b61084d5760405162461bcd60e51b815260206004820152602e60248201527f496e697469616c697a61626c653a20636f6e747261637420697320616c72656160448201526d191e481a5b9a5d1a585b1a5e995960921b606482015260840161061d565b6000805460ff191660011790558015610870576000805461ff0019166101001790555b61087b600033610fd0565b6040516b282924a1a2afa5a2a2a822a960a11b60208201526108b990602c01604051602081830303815290604052805190602001206000801b610fda565b607280546001600160a01b038085166001600160a01b031992831617909255603480549286169290911691909117905580156106fa576000805461ff0019169055604051600181527f7f26b83ff96e1f2b6a682f133852f6798a09c465da95921460cefb3847402498906020015b60405180910390a1505050565b6040516b282924a1a2afa5a2a2a822a960a11b6020820152602c01610797565b6040516f2ba424aa22a624a9aa22a22faaa9a2a960811b6020820152603001610797565b604051732222a82a242fa320a1aa27a92fa6a0a720a3a2a960611b6020820152603401610797565b60009182526001602090815260408084206001600160a01b0393909316845291905290205460ff1690565b60006109d681610d52565b63ffffffff831615610a185763ffffffff8316600090815260706020526040902060010180546001600160a01b0319166001600160a01b038416179055610a34565b607280546001600160a01b0319166001600160a01b0384161790555b6040805163ffffffff851681526001600160a01b03841660208201527f7dee360219bb87ccc4376d72df96ee3b7af38420ff701e9dcd921fd6cd8453fb9101610927565b6040516b2222a622ab22a920a3a2aaa960a11b6020820152602c01610797565b60608167ffffffffffffffff811115610ab357610ab3611672565b604051908082528060200260200182016040528015610ae657816020015b6060815260200190600190039081610ad15790505b50905060005b82811015610b8657610b5630858584818110610b0a57610b0a611bcc565b9050602002810190610b1c9190611be2565b8080601f01602080910402602001604051908101604052809392919081815260200183838082843760009201919091525061102792505050565b828281518110610b6857610b68611bcc565b60200260200101819052508080610b7e90611c46565b915050610aec565b5092915050565b604051712624a6a4aa2fa7a92222a92fa5a2a2a822a960711b6020820152603201610797565b604051702aa9a2a92faa24a2a92fa6a0a720a3a2a960791b6020820152603101610797565b60008281526001602081905260409091200154610bf481610d52565b6106fa8383610f69565b6034546001600160a01b03163314610c6b5760405162461bcd60e51b815260206004820152602a60248201527f416464726573732063616e206265206f6e6c7920696e6a65637465642066726f604482015269369027b139b2b93b32b960b11b606482015260840161061d565b8151603580546001600160a01b039283166001600160a01b0319918216179091556020808501516036805491851691841691909117905560408501516037805491851691841691909117905560808501516038805491851691841691909117905560608501516039805491851691841691909117905560a0850151603a805491851691841691909117905560c0850151603b805491851691841691909117905560e090940151603c8054918416919092161790558151603d8054939094015160ff16600160a01b026001600160a81b0319909316911617179055565b600061051082611053565b610d5c81336111aa565b50565b663fffffffffffff811115610d7357600080fd5b81516a3fffffffffffff00000000191660209190911b179052565b63ffffffff811115610d9f57600080fd5b815163ffffffff1916179052565b603a54604051633e07b48b60e11b815263ffffffff8087166004830152851660248201526001600160a01b039091169060009081908390637c0f691690604401608060405180830381865afa158015610e0a573d6000803e3d6000fd5b505050506040513d601f19601f82011682018060405250810190610e2e9190611c5f565b915091508115610ef5576000610e4381611053565b905080610e54876305f5e100611cff565b610e5e9190611d16565b6040805163b479bb5160e01b815263ffffffff808c166004830152602482018490528551811660448301526020860151811660648301529185015190911660848201526001600160a01b0387811660a48301529197509085169063b479bb519060c401600060405180830381600087803b158015610edb57600080fd5b505af1158015610eef573d6000803e3d6000fd5b50505050505b50505050505050565b610f0882826109a0565b6107795760008281526001602081815260408084206001600160a01b0386168086529252808420805460ff19169093179092559051339285917f2f8788117e7eff1d82e926ec794901d17c78024a50270940304540a733656f0d9190a45050565b610f7382826109a0565b156107795760008281526001602090815260408083206001600160a01b0385168085529252808320805460ff1916905551339285917ff6391f5c32d9c69d2a47ea670b442974b53935d1edc7fd64eb21e047a839171b9190a45050565b6107798282610efe565b6000828152600160208190526040808320909101805490849055905190918391839186917fbd79b86ffe0ab8e8776151514217cd7cacd52c909f66475c3af44e129f0b00ff9190a4505050565b606061104c8383604051806060016040528060278152602001611e44602791396111f7565b9392505050565b60006110806040518060800160405280600081526020016000815260200160008152602001600081525090565b60008361108e57607161109d565b60008481526070602052604090205b60408051606081018252825491810182815281526001909201546001600160a01b0316602080840191909152919250901c663fffffffffffff1681515163ffffffff16606084018190526040840191909152600a906110fc9042611d38565b11156111865760208101516001600160a01b0316156111865780602001516001600160a01b031663feaf968c6040518163ffffffff1660e01b815260040160a060405180830381865afa158015611157573d6000803e3d6000fd5b505050506040513d601f19601f8201168201806040525081019061117b9190611d65565b506020860152508352505b816020015182606001511161119c5781516111a2565b81604001515b949350505050565b6111b482826109a0565b610779576111c1826112d4565b6040516020016111d19190611db5565b60408051601f198184030181529082905262461bcd60e51b825261061d91600401611e14565b60606001600160a01b0384163b61125f5760405162461bcd60e51b815260206004820152602660248201527f416464726573733a2064656c65676174652063616c6c20746f206e6f6e2d636f6044820152651b9d1c9858dd60d21b606482015260840161061d565b600080856001600160a01b03168560405161127a9190611e27565b600060405180830381855af49150503d80600081146112b5576040519150601f19603f3d011682016040523d82523d6000602084013e6112ba565b606091505b50915091506112ca8282866115e4565b9695505050505050565b6060816112fc57505060408051808201909152600581526420a226a4a760d91b602082015290565b6040516b282924a1a2afa5a2a2a822a960a11b6020820152602c0160405160208183030381529060405280519060200120820361135b57505060408051808201909152600c81526b282924a1a2afa5a2a2a822a960a11b602082015290565b604051732222a82a242fa320a1aa27a92fa6a0a720a3a2a960611b60208201526034016040516020818303038152906040528051906020012082036113ca5750506040805180820190915260148152732222a82a242fa320a1aa27a92fa6a0a720a3a2a960611b602082015290565b604051702aa9a2a92faa24a2a92fa6a0a720a3a2a960791b60208201526031016040516020818303038152906040528051906020012082036114335750506040805180820190915260118152702aa9a2a92faa24a2a92fa6a0a720a3a2a960791b602082015290565b6040516f2ba424aa22a624a9aa22a22faaa9a2a960811b602082015260300160405160208183030381529060405280519060200120820361149a57505060408051808201909152601081526f2ba424aa22a624a9aa22a22faaa9a2a960811b602082015290565b6040516b2222a622ab22a920a3a2aaa960a11b6020820152602c016040516020818303038152906040528051906020012082036114f957505060408051808201909152600c81526b2222a622ab22a920a3a2aaa960a11b602082015290565b604051692624a8aaa4a220aa27a960b11b6020820152602a0160405160208183030381529060405280519060200120820361155457505060408051808201909152600a8152692624a8aaa4a220aa27a960b11b602082015290565b604051712624a6a4aa2fa7a92222a92fa5a2a2a822a960711b60208201526032016040516020818303038152906040528051906020012082036115bf5750506040805180820190915260128152712624a6a4aa2fa7a92222a92fa5a2a2a822a960711b602082015290565b50506040805180820190915260048152634e4f4e4560e01b602082015290565b919050565b606083156115f357508161104c565b8251156116035782518084602001fd5b8160405162461bcd60e51b815260040161061d9190611e14565b60006020828403121561162f57600080fd5b81356001600160e01b03198116811461104c57600080fd5b60006020828403121561165957600080fd5b5035919050565b63ffffffff81168114610d5c57600080fd5b634e487b7160e01b600052604160045260246000fd5b60405160e0810167ffffffffffffffff811182821017156116ab576116ab611672565b60405290565b604051610100810167ffffffffffffffff811182821017156116ab576116ab611672565b80356001600160a01b03811681146115df57600080fd5b600082601f8301126116fd57600080fd5b813567ffffffffffffffff8082111561171857611718611672565b604051601f8301601f19908116603f0116810190828211818310171561174057611740611672565b8160405283815286602085880101111561175957600080fd5b836020870160208301376000602085830101528094505050505092915050565b803560ff811681146115df57600080fd5b60008060006060848603121561179f57600080fd5b83356117aa81611660565b925060208401356117ba81611660565b9150604084013567ffffffffffffffff808211156117d757600080fd5b9085019060e082880312156117eb57600080fd5b6117f3611688565b6117fc836116d5565b815260208301358281111561181057600080fd5b61181c898286016116ec565b60208301525060408301356040820152606083013560608201526080830135608082015260a083013560a082015261185660c08401611779565b60c08201528093505050509250925092565b6000806040838503121561187b57600080fd5b8235915061188b602084016116d5565b90509250929050565b600080604083850312156118a757600080fd5b6118b0836116d5565b915061188b602084016116d5565b600080604083850312156118d157600080fd5b82356118b081611660565b600080602083850312156118ef57600080fd5b823567ffffffffffffffff8082111561190757600080fd5b818501915085601f83011261191b57600080fd5b81358181111561192a57600080fd5b8660208260051b850101111561193f57600080fd5b60209290920196919550909350505050565b60005b8381101561196c578181015183820152602001611954565b50506000910152565b6000815180845261198d816020860160208601611951565b601f01601f19169290920160200192915050565b6000602080830181845280855180835260408601915060408160051b870101925083870160005b828110156119f657603f198886030184526119e4858351611975565b945092850192908501906001016119c8565b5092979650505050505050565b600060408284031215611a1557600080fd5b6040516040810181811067ffffffffffffffff82111715611a3857611a38611672565b604052905080611a47836116d5565b8152611a5560208401611779565b60208201525092915050565b600080828403610140811215611a7657600080fd5b61010080821215611a8657600080fd5b611a8e6116b1565b9150611a99856116d5565b8252611aa7602086016116d5565b6020830152611ab8604086016116d5565b6040830152611ac9606086016116d5565b6060830152611ada608086016116d5565b6080830152611aeb60a086016116d5565b60a0830152611afc60c086016116d5565b60c0830152611b0d60e086016116d5565b60e0830152819350611b2186828701611a03565b925050509250929050565b602080825282516001600160a01b03168282015282015160e06040830152600090611b5b610100840182611975565b90506040840151606084015260608401516080840152608084015160a084015260a084015160c084015260ff60c08501511660e08401528091505092915050565b60008060408385031215611baf57600080fd5b825191506020830151611bc181611660565b809150509250929050565b634e487b7160e01b600052603260045260246000fd5b6000808335601e19843603018112611bf957600080fd5b83018035915067ffffffffffffffff821115611c1457600080fd5b602001915036819003821315611c2957600080fd5b9250929050565b634e487b7160e01b600052601160045260246000fd5b600060018201611c5857611c58611c30565b5060010190565b6000808284036080811215611c7357600080fd5b83518015158114611c8357600080fd5b92506060601f1982011215611c9757600080fd5b506040516060810181811067ffffffffffffffff82111715611cbb57611cbb611672565b6040526020840151611ccc81611660565b81526040840151611cdc81611660565b60208201526060840151611cef81611660565b6040820152919491935090915050565b808202811582820484141761051057610510611c30565b600082611d3357634e487b7160e01b600052601260045260246000fd5b500490565b8181038181111561051057610510611c30565b805169ffffffffffffffffffff811681146115df57600080fd5b600080600080600060a08688031215611d7d57600080fd5b611d8686611d4b565b9450602086015193506040860151925060608601519150611da960808701611d4b565b90509295509295909350565b7f416363657373436f6e74726f6c3a206163636f756e74206973206d697373696e815261033960f51b602082015260008251611df8816022850160208701611951565b6420726f6c6560d81b6022939091019283015250602701919050565b60208152600061104c6020830184611975565b60008251611e39818460208701611951565b919091019291505056fe416464726573733a206c6f772d6c6576656c2064656c65676174652063616c6c206661696c6564a2646970667358221220d4260e6a05d7e265a18aeada8073cd9751eeca6c61d509ecce619eb245afcf5664736f6c63430008130033",
  "linkReferences": {},
  "deployedLinkReferences": {}
}